{"contracts/LoanAgreement.sol":{"LoanAgreement":{"abi":[{"inputs":[{"internalType":"address","name":"_lender","type":"address"},{"internalType":"address","name":"_borrower","type":"address"},{"internalType":"uint256","name":"_amount","type":"uint256"},{"internalType":"address","name":"_token","type":"address"},{"internalType":"uint256","name":"_duration","type":"uint256"},{"internalType":"uint256","name":"_interestPercent","type":"uint256"},{"internalType":"uint256","name":"_lateFeePercent","type":"uint256"},{"internalType":"uint256","name":"_installments","type":"uint256"},{"internalType":"address","name":"_factory","type":"address"}],"stateMutability":"nonpayable","type":"constructor"},{"inputs":[{"internalType":"address","name":"token","type":"address"}],"name":"SafeERC20FailedOperation","type":"error"},{"anonymous":false,"inputs":[{"indexed":false,"internalType":"uint256","name":"allowance","type":"uint256"},{"indexed":false,"internalType":"uint256","name":"borrowerBalance","type":"uint256"},{"indexed":false,"internalType":"uint256","name":"totalOwed","type":"uint256"}],"name":"DebugRepayment","type":"event"},{"anonymous":false,"inputs":[{"indexed":true,"internalType":"address","name":"loan","type":"address"},{"indexed":true,"internalType":"address","name":"lender","type":"address"}],"name":"DefaultMarked","type":"event"},{"anonymous":false,"inputs":[{"indexed":true,"internalType":"address","name":"loan","type":"address"}],"name":"FullyRepaid","type":"event"},{"anonymous":false,"inputs":[{"indexed":true,"internalType":"address","name":"payer","type":"address"},{"indexed":false,"internalType":"uint256","name":"amount","type":"uint256"},{"indexed":false,"internalType":"uint256","name":"totalRepaid","type":"uint256"}],"name":"Repaid","type":"event"},{"inputs":[],"name":"borrower","outputs":[{"internalType":"address","name":"","type":"address"}],"stateMutability":"view","type":"function"},{"inputs":[],"name":"countMissedInstallments","outputs":[{"internalType":"uint256","name":"missed","type":"uint256"}],"stateMutability":"view","type":"function"},{"inputs":[],"name":"dueTimestamp","outputs":[{"internalType":"uint256","name":"","type":"uint256"}],"stateMutability":"view","type":"function"},{"inputs":[],"name":"factory","outputs":[{"internalType":"address","name":"","type":"address"}],"stateMutability":"view","type":"function"},{"inputs":[],"name":"getDueTimestamp","outputs":[{"internalType":"uint256","name":"","type":"uint256"}],"stateMutability":"view","type":"function"},{"inputs":[],"name":"getRepaidAmount","outputs":[{"internalType":"uint256","name":"","type":"uint256"}],"stateMutability":"view","type":"function"},{"inputs":[],"name":"getStatus","outputs":[{"internalType":"enum LoanAgreement.LoanStatus","name":"","type":"uint8"}],"stateMutability":"view","type":"function"},{"inputs":[],"name":"getTotalOwed","outputs":[{"internalType":"uint256","name":"totalOwed","type":"uint256"}],"stateMutability":"view","type":"function"},{"inputs":[],"name":"installmentInterval","outputs":[{"internalType":"uint256","name":"","type":"uint256"}],"stateMutability":"view","type":"function"},{"inputs":[],"name":"interestPercent","outputs":[{"internalType":"uint256","name":"","type":"uint256"}],"stateMutability":"view","type":"function"},{"inputs":[],"name":"lateFeePercent","outputs":[{"internalType":"uint256","name":"","type":"uint256"}],"stateMutability":"view","type":"function"},{"inputs":[],"name":"lender","outputs":[{"internalType":"address","name":"","type":"address"}],"stateMutability":"view","type":"function"},{"inputs":[],"name":"markDefault","outputs":[],"stateMutability":"nonpayable","type":"function"},{"inputs":[],"name":"markedDefault","outputs":[{"internalType":"bool","name":"","type":"bool"}],"stateMutability":"view","type":"function"},{"inputs":[],"name":"principal","outputs":[{"internalType":"uint256","name":"","type":"uint256"}],"stateMutability":"view","type":"function"},{"inputs":[],"name":"repaidAmount","outputs":[{"internalType":"uint256","name":"","type":"uint256"}],"stateMutability":"view","type":"function"},{"inputs":[{"internalType":"uint256","name":"amount","type":"uint256"}],"name":"repay","outputs":[],"stateMutability":"nonpayable","type":"function"},{"inputs":[],"name":"startTimestamp","outputs":[{"internalType":"uint256","name":"","type":"uint256"}],"stateMutability":"view","type":"function"},{"inputs":[],"name":"tokenAddress","outputs":[{"internalType":"address","name":"","type":"address"}],"stateMutability":"view","type":"function"},{"inputs":[],"name":"totalInstallments","outputs":[{"internalType":"uint256","name":"","type":"uint256"}],"stateMutability":"view","type":"function"}],"evm":{"bytecode":{"linkReferences":{},"object":"60806040523480156200001157600080fd5b5060405162001a2138038062001a2183398181016040528101906200003791906200023b565b886000806101000a81548173ffffffffffffffffffffffffffffffffffffffff021916908373ffffffffffffffffffffffffffffffffffffffff16021790555087600160006101000a81548173ffffffffffffffffffffffffffffffffffffffff021916908373ffffffffffffffffffffffffffffffffffffffff1602179055508660028190555085600660006101000a81548173ffffffffffffffffffffffffffffffffffffffff021916908373ffffffffffffffffffffffffffffffffffffffff160217905550836003819055508260058190555081600881905550818562000123919062000378565b60098190555080600760006101000a81548173ffffffffffffffffffffffffffffffffffffffff021916908373ffffffffffffffffffffffffffffffffffffffff16021790555042600a8190555084600a54620001819190620003b0565b600481905550505050505050505050620003eb565b600080fd5b600073ffffffffffffffffffffffffffffffffffffffff82169050919050565b6000620001c8826200019b565b9050919050565b620001da81620001bb565b8114620001e657600080fd5b50565b600081519050620001fa81620001cf565b92915050565b6000819050919050565b620002158162000200565b81146200022157600080fd5b50565b60008151905062000235816200020a565b92915050565b60008060008060008060008060006101208a8c03121562000261576200026062000196565b5b6000620002718c828d01620001e9565b9950506020620002848c828d01620001e9565b9850506040620002978c828d0162000224565b9750506060620002aa8c828d01620001e9565b9650506080620002bd8c828d0162000224565b95505060a0620002d08c828d0162000224565b94505060c0620002e38c828d0162000224565b93505060e0620002f68c828d0162000224565b9250506101006200030a8c828d01620001e9565b9150509295985092959850929598565b7f4e487b7100000000000000000000000000000000000000000000000000000000600052601260045260246000fd5b7f4e487b7100000000000000000000000000000000000000000000000000000000600052601160045260246000fd5b6000620003858262000200565b9150620003928362000200565b925082620003a557620003a46200031a565b5b828204905092915050565b6000620003bd8262000200565b9150620003ca8362000200565b9250828201905080821115620003e557620003e462000349565b5b92915050565b61162680620003fb6000396000f3fe608060405234801561001057600080fd5b506004361061012c5760003560e01c8063a35a4ab3116100ad578063d8bac5ed11610071578063d8bac5ed146102dd578063dd3b3110146102fb578063de851b0a14610319578063e6fd48bc14610337578063f98b8028146103555761012c565b8063a35a4ab314610247578063ba5d307814610265578063bcead63e14610283578063c45a0155146102a1578063ccb6a048146102bf5761012c565b80637df1f1b9116100f45780637df1f1b9146101c55780638cff3e4b146101e357806395c8cbc9146101ed5780639675a4bd1461020b5780639d76ea58146102295761012c565b80630675d43214610131578063371fd8e61461014f5780634e69d5601461016b57806353069df6146101895780635451073d146101a7575b600080fd5b610139610373565b6040516101469190610e8f565b60405180910390f35b61016960048036038101906101649190610edb565b610379565b005b610173610739565b6040516101809190610f7f565b60405180910390f35b61019161077a565b60405161019e9190610e8f565b60405180910390f35b6101af610784565b6040516101bc9190610e8f565b60405180910390f35b6101cd61078a565b6040516101da9190610fdb565b60405180910390f35b6101eb6107b0565b005b6101f56109ca565b6040516102029190610e8f565b60405180910390f35b610213610a48565b6040516102209190610e8f565b60405180910390f35b610231610b1d565b60405161023e9190610fdb565b60405180910390f35b61024f610b43565b60405161025c9190610e8f565b60405180910390f35b61026d610b4d565b60405161027a9190610e8f565b60405180910390f35b61028b610b53565b6040516102989190610fdb565b60405180910390f35b6102a9610b77565b6040516102b69190610fdb565b60405180910390f35b6102c7610b9d565b6040516102d49190610e8f565b60405180910390f35b6102e5610ba3565b6040516102f29190611011565b60405180910390f35b610303610bb6565b6040516103109190610e8f565b60405180910390f35b610321610bbc565b60405161032e9190610e8f565b60405180910390f35b61033f610bc2565b60405161034c9190610e8f565b60405180910390f35b61035d610bc8565b60405161036a9190610e8f565b60405180910390f35b60055481565b600160009054906101000a900473ffffffffffffffffffffffffffffffffffffffff1673ffffffffffffffffffffffffffffffffffffffff163373ffffffffffffffffffffffffffffffffffffffff1614610409576040517f08c379a000000000000000000000000000000000000000000000000000000000815260040161040090611089565b60405180910390fd5b6000600660009054906101000a900473ffffffffffffffffffffffffffffffffffffffff1690507fb660cb1c866503d0663185064f29f91c40c52213a6f3d80bda170bb0012016bf8173ffffffffffffffffffffffffffffffffffffffff1663dd62ed3e33306040518363ffffffff1660e01b815260040161048c9291906110a9565b602060405180830381865afa1580156104a9573d6000803e3d6000fd5b505050506040513d601f19601f820116820180604052508101906104cd91906110e7565b8273ffffffffffffffffffffffffffffffffffffffff166370a08231336040518263ffffffff1660e01b81526004016105069190610fdb565b602060405180830381865afa158015610523573d6000803e3d6000fd5b505050506040513d601f19601f8201168201806040525081019061054791906110e7565b61054f6109ca565b60405161055e93929190611114565b60405180910390a161056e6109ca565b82600b5461057c919061117a565b11156105bd576040517f08c379a00000000000000000000000000000000000000000000000000000000081526004016105b4906111fa565b60405180910390fd5b61060a3360008054906101000a900473ffffffffffffffffffffffffffffffffffffffff16848473ffffffffffffffffffffffffffffffffffffffff16610bce909392919063ffffffff16565b81600b600082825461061c919061117a565b925050819055503373ffffffffffffffffffffffffffffffffffffffff167f1b8cd61ed43bec7c6bdad3a18ffee613f99c853d16c50678d248d879e1b4343883600b5460405161066d92919061121a565b60405180910390a26001600281111561068957610688610f08565b5b610691610739565b60028111156106a3576106a2610f08565b5b03610735573073ffffffffffffffffffffffffffffffffffffffff167f927542d877f6ef1fb1779cb252a65aaa543f48e6d9abc25433c57e19ceccf61d60405160405180910390a260006106f5610a48565b1115610729576107247fffffffffffffffffffffffffffffffffffffffffffffffffffffffffffffffff610c50565b610734565b6107336001610c50565b5b5b5050565b6000600c60009054906101000a900460ff16156107595760029050610777565b6107616109ca565b600b54106107725760019050610777565b600090505b90565b6000600b54905090565b60045481565b600160009054906101000a900473ffffffffffffffffffffffffffffffffffffffff1681565b60008054906101000a900473ffffffffffffffffffffffffffffffffffffffff1673ffffffffffffffffffffffffffffffffffffffff163373ffffffffffffffffffffffffffffffffffffffff161461083e576040517f08c379a00000000000000000000000000000000000000000000000000000000081526004016108359061128f565b60405180910390fd5b6000600281111561085257610851610f08565b5b61085a610739565b600281111561086c5761086b610f08565b5b146108ac576040517f08c379a00000000000000000000000000000000000000000000000000000000081526004016108a390611321565b60405180910390fd5b6009546008546108bc9190611341565b600a546108c9919061117a565b421161090a576040517f08c379a0000000000000000000000000000000000000000000000000000000008152600401610901906113cf565b60405180910390fd5b6001600c60006101000a81548160ff02191690831515021790555060008054906101000a900473ffffffffffffffffffffffffffffffffffffffff1673ffffffffffffffffffffffffffffffffffffffff163073ffffffffffffffffffffffffffffffffffffffff167fa6e9acf469d627e8f02eec880995bb6f37ecadea71c528f0e35081bd77e9189760405160405180910390a36109c87ffffffffffffffffffffffffffffffffffffffffffffffffffffffffffffffffe610c50565b565b600060646003546002546109de9190611341565b6109e8919061141e565b6002546109f5919061117a565b90506000610a01610a48565b90506008546064610a129190611341565b81600554600254610a239190611341565b610a2d9190611341565b610a37919061141e565b82610a42919061117a565b91505090565b600080600954600a5442610a5c919061144f565b610a66919061141e565b9050600854811115610a785760085490505b6000600854826064600354600254610a909190611341565b610a9a919061141e565b600254610aa7919061117a565b610ab19190611341565b610abb919061141e565b9050600b54811115610b18576064600354600254610ad99190611341565b610ae3919061141e565b600254610af0919061117a565b600854600b54610b009190611341565b610b0a919061141e565b82610b15919061144f565b92505b505090565b600660009054906101000a900473ffffffffffffffffffffffffffffffffffffffff1681565b6000600454905090565b60025481565b60008054906101000a900473ffffffffffffffffffffffffffffffffffffffff1681565b600760009054906101000a900473ffffffffffffffffffffffffffffffffffffffff1681565b60085481565b600c60009054906101000a900460ff1681565b60035481565b60095481565b600a5481565b600b5481565b610c4a848573ffffffffffffffffffffffffffffffffffffffff166323b872dd868686604051602401610c0393929190611483565b604051602081830303815290604052915060e01b6020820180517bffffffffffffffffffffffffffffffffffffffffffffffffffffffff8381831617835250505050610dd4565b50505050565b6000600760009054906101000a900473ffffffffffffffffffffffffffffffffffffffff1673ffffffffffffffffffffffffffffffffffffffff16600160009054906101000a900473ffffffffffffffffffffffffffffffffffffffff1683604051602401610cc09291906114d3565b6040516020818303038152906040527fe766784d000000000000000000000000000000000000000000000000000000007bffffffffffffffffffffffffffffffffffffffffffffffffffffffff19166020820180517bffffffffffffffffffffffffffffffffffffffffffffffffffffffff8381831617835250505050604051610d4a919061156d565b6000604051808303816000865af19150503d8060008114610d87576040519150601f19603f3d011682016040523d82523d6000602084013e610d8c565b606091505b5050905080610dd0576040517f08c379a0000000000000000000000000000000000000000000000000000000008152600401610dc7906115d0565b60405180910390fd5b5050565b600080602060008451602086016000885af180610df7576040513d6000823e3d81fd5b3d925060005191505060008214610e12576001811415610e2e565b60008473ffffffffffffffffffffffffffffffffffffffff163b145b15610e7057836040517f5274afe7000000000000000000000000000000000000000000000000000000008152600401610e679190610fdb565b60405180910390fd5b50505050565b6000819050919050565b610e8981610e76565b82525050565b6000602082019050610ea46000830184610e80565b92915050565b600080fd5b610eb881610e76565b8114610ec357600080fd5b50565b600081359050610ed581610eaf565b92915050565b600060208284031215610ef157610ef0610eaa565b5b6000610eff84828501610ec6565b91505092915050565b7f4e487b7100000000000000000000000000000000000000000000000000000000600052602160045260246000fd5b60038110610f4857610f47610f08565b5b50565b6000819050610f5982610f37565b919050565b6000610f6982610f4b565b9050919050565b610f7981610f5e565b82525050565b6000602082019050610f946000830184610f70565b92915050565b600073ffffffffffffffffffffffffffffffffffffffff82169050919050565b6000610fc582610f9a565b9050919050565b610fd581610fba565b82525050565b6000602082019050610ff06000830184610fcc565b92915050565b60008115159050919050565b61100b81610ff6565b82525050565b60006020820190506110266000830184611002565b92915050565b600082825260208201905092915050565b7f4f6e6c7920626f72726f7765722063616e207265706179000000000000000000600082015250565b600061107360178361102c565b915061107e8261103d565b602082019050919050565b600060208201905081810360008301526110a281611066565b9050919050565b60006040820190506110be6000830185610fcc565b6110cb6020830184610fcc565b9392505050565b6000815190506110e181610eaf565b92915050565b6000602082840312156110fd576110fc610eaa565b5b600061110b848285016110d2565b91505092915050565b60006060820190506111296000830186610e80565b6111366020830185610e80565b6111436040830184610e80565b949350505050565b7f4e487b7100000000000000000000000000000000000000000000000000000000600052601160045260246000fd5b600061118582610e76565b915061119083610e76565b92508282019050808211156111a8576111a761114b565b5b92915050565b7f52657061796d656e74206578636565647320746f74616c206f77656400000000600082015250565b60006111e4601c8361102c565b91506111ef826111ae565b602082019050919050565b60006020820190508181036000830152611213816111d7565b9050919050565b600060408201905061122f6000830185610e80565b61123c6020830184610e80565b9392505050565b7f4f6e6c79206c656e6465722063616e206d61726b2064656661756c7400000000600082015250565b6000611279601c8361102c565b915061128482611243565b602082019050919050565b600060208201905081810360008301526112a88161126c565b9050919050565b7f4c6f616e206e6f7420616374697665206f7220616c72656164792068616e646c60008201527f6564000000000000000000000000000000000000000000000000000000000000602082015250565b600061130b60228361102c565b9150611316826112af565b604082019050919050565b6000602082019050818103600083015261133a816112fe565b9050919050565b600061134c82610e76565b915061135783610e76565b925082820261136581610e76565b9150828204841483151761137c5761137b61114b565b5b5092915050565b7f4c6f616e206973206e6f74206f76657264756520796574000000000000000000600082015250565b60006113b960178361102c565b91506113c482611383565b602082019050919050565b600060208201905081810360008301526113e8816113ac565b9050919050565b7f4e487b7100000000000000000000000000000000000000000000000000000000600052601260045260246000fd5b600061142982610e76565b915061143483610e76565b925082611444576114436113ef565b5b828204905092915050565b600061145a82610e76565b915061146583610e76565b925082820390508181111561147d5761147c61114b565b5b92915050565b60006060820190506114986000830186610fcc565b6114a56020830185610fcc565b6114b26040830184610e80565b949350505050565b6000819050919050565b6114cd816114ba565b82525050565b60006040820190506114e86000830185610fcc565b6114f560208301846114c4565b9392505050565b600081519050919050565b600081905092915050565b60005b83811015611530578082015181840152602081019050611515565b60008484015250505050565b6000611547826114fc565b6115518185611507565b9350611561818560208601611512565b80840191505092915050565b6000611579828461153c565b915081905092915050565b7f54727573742073636f726520757064617465206661696c656400000000000000600082015250565b60006115ba60198361102c565b91506115c582611584565b602082019050919050565b600060208201905081810360008301526115e9816115ad565b905091905056fea2646970667358221220e9d101a25e11f35c38650104e09c4f40a13ab3f50847ca69885fde8e01a011fb64736f6c63430008140033","opcodes":"PUSH1 0x80 PUSH1 0x40 MSTORE CALLVALUE DUP1 ISZERO PUSH3 0x11 JUMPI PUSH1 0x0 DUP1 REVERT JUMPDEST POP PUSH1 0x40 MLOAD PUSH3 0x1A21 CODESIZE SUB DUP1 PUSH3 0x1A21 DUP4 CODECOPY DUP2 DUP2 ADD PUSH1 0x40 MSTORE DUP2 ADD SWAP1 PUSH3 0x37 SWAP2 SWAP1 PUSH3 0x23B JUMP JUMPDEST DUP9 PUSH1 0x0 DUP1 PUSH2 0x100 EXP DUP2 SLOAD DUP2 PUSH20 0xFFFFFFFFFFFFFFFFFFFFFFFFFFFFFFFFFFFFFFFF MUL NOT AND SWAP1 DUP4 PUSH20 0xFFFFFFFFFFFFFFFFFFFFFFFFFFFFFFFFFFFFFFFF AND MUL OR SWAP1 SSTORE POP DUP8 PUSH1 0x1 PUSH1 0x0 PUSH2 0x100 EXP DUP2 SLOAD DUP2 PUSH20 0xFFFFFFFFFFFFFFFFFFFFFFFFFFFFFFFFFFFFFFFF MUL NOT AND SWAP1 DUP4 PUSH20 0xFFFFFFFFFFFFFFFFFFFFFFFFFFFFFFFFFFFFFFFF AND MUL OR SWAP1 SSTORE POP DUP7 PUSH1 0x2 DUP2 SWAP1 SSTORE POP DUP6 PUSH1 0x6 PUSH1 0x0 PUSH2 0x100 EXP DUP2 SLOAD DUP2 PUSH20 0xFFFFFFFFFFFFFFFFFFFFFFFFFFFFFFFFFFFFFFFF MUL NOT AND SWAP1 DUP4 PUSH20 0xFFFFFFFFFFFFFFFFFFFFFFFFFFFFFFFFFFFFFFFF AND MUL OR SWAP1 SSTORE POP DUP4 PUSH1 0x3 DUP2 SWAP1 SSTORE POP DUP3 PUSH1 0x5 DUP2 SWAP1 SSTORE POP DUP2 PUSH1 0x8 DUP2 SWAP1 SSTORE POP DUP2 DUP6 PUSH3 0x123 SWAP2 SWAP1 PUSH3 0x378 JUMP JUMPDEST PUSH1 0x9 DUP2 SWAP1 SSTORE POP DUP1 PUSH1 0x7 PUSH1 0x0 PUSH2 0x100 EXP DUP2 SLOAD DUP2 PUSH20 0xFFFFFFFFFFFFFFFFFFFFFFFFFFFFFFFFFFFFFFFF MUL NOT AND SWAP1 DUP4 PUSH20 0xFFFFFFFFFFFFFFFFFFFFFFFFFFFFFFFFFFFFFFFF AND MUL OR SWAP1 SSTORE POP TIMESTAMP PUSH1 0xA DUP2 SWAP1 SSTORE POP DUP5 PUSH1 0xA SLOAD PUSH3 0x181 SWAP2 SWAP1 PUSH3 0x3B0 JUMP JUMPDEST PUSH1 0x4 DUP2 SWAP1 SSTORE POP POP POP POP POP POP POP POP POP POP PUSH3 0x3EB JUMP JUMPDEST PUSH1 0x0 DUP1 REVERT JUMPDEST PUSH1 0x0 PUSH20 0xFFFFFFFFFFFFFFFFFFFFFFFFFFFFFFFFFFFFFFFF DUP3 AND SWAP1 POP SWAP2 SWAP1 POP JUMP JUMPDEST PUSH1 0x0 PUSH3 0x1C8 DUP3 PUSH3 0x19B JUMP JUMPDEST SWAP1 POP SWAP2 SWAP1 POP JUMP JUMPDEST PUSH3 0x1DA DUP2 PUSH3 0x1BB JUMP JUMPDEST DUP2 EQ PUSH3 0x1E6 JUMPI PUSH1 0x0 DUP1 REVERT JUMPDEST POP JUMP JUMPDEST PUSH1 0x0 DUP2 MLOAD SWAP1 POP PUSH3 0x1FA DUP2 PUSH3 0x1CF JUMP JUMPDEST SWAP3 SWAP2 POP POP JUMP JUMPDEST PUSH1 0x0 DUP2 SWAP1 POP SWAP2 SWAP1 POP JUMP JUMPDEST PUSH3 0x215 DUP2 PUSH3 0x200 JUMP JUMPDEST DUP2 EQ PUSH3 0x221 JUMPI PUSH1 0x0 DUP1 REVERT JUMPDEST POP JUMP JUMPDEST PUSH1 0x0 DUP2 MLOAD SWAP1 POP PUSH3 0x235 DUP2 PUSH3 0x20A JUMP JUMPDEST SWAP3 SWAP2 POP POP JUMP JUMPDEST PUSH1 0x0 DUP1 PUSH1 0x0 DUP1 PUSH1 0x0 DUP1 PUSH1 0x0 DUP1 PUSH1 0x0 PUSH2 0x120 DUP11 DUP13 SUB SLT ISZERO PUSH3 0x261 JUMPI PUSH3 0x260 PUSH3 0x196 JUMP JUMPDEST JUMPDEST PUSH1 0x0 PUSH3 0x271 DUP13 DUP3 DUP14 ADD PUSH3 0x1E9 JUMP JUMPDEST SWAP10 POP POP PUSH1 0x20 PUSH3 0x284 DUP13 DUP3 DUP14 ADD PUSH3 0x1E9 JUMP JUMPDEST SWAP9 POP POP PUSH1 0x40 PUSH3 0x297 DUP13 DUP3 DUP14 ADD PUSH3 0x224 JUMP JUMPDEST SWAP8 POP POP PUSH1 0x60 PUSH3 0x2AA DUP13 DUP3 DUP14 ADD PUSH3 0x1E9 JUMP JUMPDEST SWAP7 POP POP PUSH1 0x80 PUSH3 0x2BD DUP13 DUP3 DUP14 ADD PUSH3 0x224 JUMP JUMPDEST SWAP6 POP POP PUSH1 0xA0 PUSH3 0x2D0 DUP13 DUP3 DUP14 ADD PUSH3 0x224 JUMP JUMPDEST SWAP5 POP POP PUSH1 0xC0 PUSH3 0x2E3 DUP13 DUP3 DUP14 ADD PUSH3 0x224 JUMP JUMPDEST SWAP4 POP POP PUSH1 0xE0 PUSH3 0x2F6 DUP13 DUP3 DUP14 ADD PUSH3 0x224 JUMP JUMPDEST SWAP3 POP POP PUSH2 0x100 PUSH3 0x30A DUP13 DUP3 DUP14 ADD PUSH3 0x1E9 JUMP JUMPDEST SWAP2 POP POP SWAP3 SWAP6 SWAP9 POP SWAP3 SWAP6 SWAP9 POP SWAP3 SWAP6 SWAP9 JUMP JUMPDEST PUSH32 0x4E487B7100000000000000000000000000000000000000000000000000000000 PUSH1 0x0 MSTORE PUSH1 0x12 PUSH1 0x4 MSTORE PUSH1 0x24 PUSH1 0x0 REVERT JUMPDEST PUSH32 0x4E487B7100000000000000000000000000000000000000000000000000000000 PUSH1 0x0 MSTORE PUSH1 0x11 PUSH1 0x4 MSTORE PUSH1 0x24 PUSH1 0x0 REVERT JUMPDEST PUSH1 0x0 PUSH3 0x385 DUP3 PUSH3 0x200 JUMP JUMPDEST SWAP2 POP PUSH3 0x392 DUP4 PUSH3 0x200 JUMP JUMPDEST SWAP3 POP DUP3 PUSH3 0x3A5 JUMPI PUSH3 0x3A4 PUSH3 0x31A JUMP JUMPDEST JUMPDEST DUP3 DUP3 DIV SWAP1 POP SWAP3 SWAP2 POP POP JUMP JUMPDEST PUSH1 0x0 PUSH3 0x3BD DUP3 PUSH3 0x200 JUMP JUMPDEST SWAP2 POP PUSH3 0x3CA DUP4 PUSH3 0x200 JUMP JUMPDEST SWAP3 POP DUP3 DUP3 ADD SWAP1 POP DUP1 DUP3 GT ISZERO PUSH3 0x3E5 JUMPI PUSH3 0x3E4 PUSH3 0x349 JUMP JUMPDEST JUMPDEST SWAP3 SWAP2 POP POP JUMP JUMPDEST PUSH2 0x1626 DUP1 PUSH3 0x3FB PUSH1 0x0 CODECOPY PUSH1 0x0 RETURN INVALID PUSH1 0x80 PUSH1 0x40 MSTORE CALLVALUE DUP1 ISZERO PUSH2 0x10 JUMPI PUSH1 0x0 DUP1 REVERT JUMPDEST POP PUSH1 0x4 CALLDATASIZE LT PUSH2 0x12C JUMPI PUSH1 0x0 CALLDATALOAD PUSH1 0xE0 SHR DUP1 PUSH4 0xA35A4AB3 GT PUSH2 0xAD JUMPI DUP1 PUSH4 0xD8BAC5ED GT PUSH2 0x71 JUMPI DUP1 PUSH4 0xD8BAC5ED EQ PUSH2 0x2DD JUMPI DUP1 PUSH4 0xDD3B3110 EQ PUSH2 0x2FB JUMPI DUP1 PUSH4 0xDE851B0A EQ PUSH2 0x319 JUMPI DUP1 PUSH4 0xE6FD48BC EQ PUSH2 0x337 JUMPI DUP1 PUSH4 0xF98B8028 EQ PUSH2 0x355 JUMPI PUSH2 0x12C JUMP JUMPDEST DUP1 PUSH4 0xA35A4AB3 EQ PUSH2 0x247 JUMPI DUP1 PUSH4 0xBA5D3078 EQ PUSH2 0x265 JUMPI DUP1 PUSH4 0xBCEAD63E EQ PUSH2 0x283 JUMPI DUP1 PUSH4 0xC45A0155 EQ PUSH2 0x2A1 JUMPI DUP1 PUSH4 0xCCB6A048 EQ PUSH2 0x2BF JUMPI PUSH2 0x12C JUMP JUMPDEST DUP1 PUSH4 0x7DF1F1B9 GT PUSH2 0xF4 JUMPI DUP1 PUSH4 0x7DF1F1B9 EQ PUSH2 0x1C5 JUMPI DUP1 PUSH4 0x8CFF3E4B EQ PUSH2 0x1E3 JUMPI DUP1 PUSH4 0x95C8CBC9 EQ PUSH2 0x1ED JUMPI DUP1 PUSH4 0x9675A4BD EQ PUSH2 0x20B JUMPI DUP1 PUSH4 0x9D76EA58 EQ PUSH2 0x229 JUMPI PUSH2 0x12C JUMP JUMPDEST DUP1 PUSH4 0x675D432 EQ PUSH2 0x131 JUMPI DUP1 PUSH4 0x371FD8E6 EQ PUSH2 0x14F JUMPI DUP1 PUSH4 0x4E69D560 EQ PUSH2 0x16B JUMPI DUP1 PUSH4 0x53069DF6 EQ PUSH2 0x189 JUMPI DUP1 PUSH4 0x5451073D EQ PUSH2 0x1A7 JUMPI JUMPDEST PUSH1 0x0 DUP1 REVERT JUMPDEST PUSH2 0x139 PUSH2 0x373 JUMP JUMPDEST PUSH1 0x40 MLOAD PUSH2 0x146 SWAP2 SWAP1 PUSH2 0xE8F JUMP JUMPDEST PUSH1 0x40 MLOAD DUP1 SWAP2 SUB SWAP1 RETURN JUMPDEST PUSH2 0x169 PUSH1 0x4 DUP1 CALLDATASIZE SUB DUP2 ADD SWAP1 PUSH2 0x164 SWAP2 SWAP1 PUSH2 0xEDB JUMP JUMPDEST PUSH2 0x379 JUMP JUMPDEST STOP JUMPDEST PUSH2 0x173 PUSH2 0x739 JUMP JUMPDEST PUSH1 0x40 MLOAD PUSH2 0x180 SWAP2 SWAP1 PUSH2 0xF7F JUMP JUMPDEST PUSH1 0x40 MLOAD DUP1 SWAP2 SUB SWAP1 RETURN JUMPDEST PUSH2 0x191 PUSH2 0x77A JUMP JUMPDEST PUSH1 0x40 MLOAD PUSH2 0x19E SWAP2 SWAP1 PUSH2 0xE8F JUMP JUMPDEST PUSH1 0x40 MLOAD DUP1 SWAP2 SUB SWAP1 RETURN JUMPDEST PUSH2 0x1AF PUSH2 0x784 JUMP JUMPDEST PUSH1 0x40 MLOAD PUSH2 0x1BC SWAP2 SWAP1 PUSH2 0xE8F JUMP JUMPDEST PUSH1 0x40 MLOAD DUP1 SWAP2 SUB SWAP1 RETURN JUMPDEST PUSH2 0x1CD PUSH2 0x78A JUMP JUMPDEST PUSH1 0x40 MLOAD PUSH2 0x1DA SWAP2 SWAP1 PUSH2 0xFDB JUMP JUMPDEST PUSH1 0x40 MLOAD DUP1 SWAP2 SUB SWAP1 RETURN JUMPDEST PUSH2 0x1EB PUSH2 0x7B0 JUMP JUMPDEST STOP JUMPDEST PUSH2 0x1F5 PUSH2 0x9CA JUMP JUMPDEST PUSH1 0x40 MLOAD PUSH2 0x202 SWAP2 SWAP1 PUSH2 0xE8F JUMP JUMPDEST PUSH1 0x40 MLOAD DUP1 SWAP2 SUB SWAP1 RETURN JUMPDEST PUSH2 0x213 PUSH2 0xA48 JUMP JUMPDEST PUSH1 0x40 MLOAD PUSH2 0x220 SWAP2 SWAP1 PUSH2 0xE8F JUMP JUMPDEST PUSH1 0x40 MLOAD DUP1 SWAP2 SUB SWAP1 RETURN JUMPDEST PUSH2 0x231 PUSH2 0xB1D JUMP JUMPDEST PUSH1 0x40 MLOAD PUSH2 0x23E SWAP2 SWAP1 PUSH2 0xFDB JUMP JUMPDEST PUSH1 0x40 MLOAD DUP1 SWAP2 SUB SWAP1 RETURN JUMPDEST PUSH2 0x24F PUSH2 0xB43 JUMP JUMPDEST PUSH1 0x40 MLOAD PUSH2 0x25C SWAP2 SWAP1 PUSH2 0xE8F JUMP JUMPDEST PUSH1 0x40 MLOAD DUP1 SWAP2 SUB SWAP1 RETURN JUMPDEST PUSH2 0x26D PUSH2 0xB4D JUMP JUMPDEST PUSH1 0x40 MLOAD PUSH2 0x27A SWAP2 SWAP1 PUSH2 0xE8F JUMP JUMPDEST PUSH1 0x40 MLOAD DUP1 SWAP2 SUB SWAP1 RETURN JUMPDEST PUSH2 0x28B PUSH2 0xB53 JUMP JUMPDEST PUSH1 0x40 MLOAD PUSH2 0x298 SWAP2 SWAP1 PUSH2 0xFDB JUMP JUMPDEST PUSH1 0x40 MLOAD DUP1 SWAP2 SUB SWAP1 RETURN JUMPDEST PUSH2 0x2A9 PUSH2 0xB77 JUMP JUMPDEST PUSH1 0x40 MLOAD PUSH2 0x2B6 SWAP2 SWAP1 PUSH2 0xFDB JUMP JUMPDEST PUSH1 0x40 MLOAD DUP1 SWAP2 SUB SWAP1 RETURN JUMPDEST PUSH2 0x2C7 PUSH2 0xB9D JUMP JUMPDEST PUSH1 0x40 MLOAD PUSH2 0x2D4 SWAP2 SWAP1 PUSH2 0xE8F JUMP JUMPDEST PUSH1 0x40 MLOAD DUP1 SWAP2 SUB SWAP1 RETURN JUMPDEST PUSH2 0x2E5 PUSH2 0xBA3 JUMP JUMPDEST PUSH1 0x40 MLOAD PUSH2 0x2F2 SWAP2 SWAP1 PUSH2 0x1011 JUMP JUMPDEST PUSH1 0x40 MLOAD DUP1 SWAP2 SUB SWAP1 RETURN JUMPDEST PUSH2 0x303 PUSH2 0xBB6 JUMP JUMPDEST PUSH1 0x40 MLOAD PUSH2 0x310 SWAP2 SWAP1 PUSH2 0xE8F JUMP JUMPDEST PUSH1 0x40 MLOAD DUP1 SWAP2 SUB SWAP1 RETURN JUMPDEST PUSH2 0x321 PUSH2 0xBBC JUMP JUMPDEST PUSH1 0x40 MLOAD PUSH2 0x32E SWAP2 SWAP1 PUSH2 0xE8F JUMP JUMPDEST PUSH1 0x40 MLOAD DUP1 SWAP2 SUB SWAP1 RETURN JUMPDEST PUSH2 0x33F PUSH2 0xBC2 JUMP JUMPDEST PUSH1 0x40 MLOAD PUSH2 0x34C SWAP2 SWAP1 PUSH2 0xE8F JUMP JUMPDEST PUSH1 0x40 MLOAD DUP1 SWAP2 SUB SWAP1 RETURN JUMPDEST PUSH2 0x35D PUSH2 0xBC8 JUMP JUMPDEST PUSH1 0x40 MLOAD PUSH2 0x36A SWAP2 SWAP1 PUSH2 0xE8F JUMP JUMPDEST PUSH1 0x40 MLOAD DUP1 SWAP2 SUB SWAP1 RETURN JUMPDEST PUSH1 0x5 SLOAD DUP2 JUMP JUMPDEST PUSH1 0x1 PUSH1 0x0 SWAP1 SLOAD SWAP1 PUSH2 0x100 EXP SWAP1 DIV PUSH20 0xFFFFFFFFFFFFFFFFFFFFFFFFFFFFFFFFFFFFFFFF AND PUSH20 0xFFFFFFFFFFFFFFFFFFFFFFFFFFFFFFFFFFFFFFFF AND CALLER PUSH20 0xFFFFFFFFFFFFFFFFFFFFFFFFFFFFFFFFFFFFFFFF AND EQ PUSH2 0x409 JUMPI PUSH1 0x40 MLOAD PUSH32 0x8C379A000000000000000000000000000000000000000000000000000000000 DUP2 MSTORE PUSH1 0x4 ADD PUSH2 0x400 SWAP1 PUSH2 0x1089 JUMP JUMPDEST PUSH1 0x40 MLOAD DUP1 SWAP2 SUB SWAP1 REVERT JUMPDEST PUSH1 0x0 PUSH1 0x6 PUSH1 0x0 SWAP1 SLOAD SWAP1 PUSH2 0x100 EXP SWAP1 DIV PUSH20 0xFFFFFFFFFFFFFFFFFFFFFFFFFFFFFFFFFFFFFFFF AND SWAP1 POP PUSH32 0xB660CB1C866503D0663185064F29F91C40C52213A6F3D80BDA170BB0012016BF DUP2 PUSH20 0xFFFFFFFFFFFFFFFFFFFFFFFFFFFFFFFFFFFFFFFF AND PUSH4 0xDD62ED3E CALLER ADDRESS PUSH1 0x40 MLOAD DUP4 PUSH4 0xFFFFFFFF AND PUSH1 0xE0 SHL DUP2 MSTORE PUSH1 0x4 ADD PUSH2 0x48C SWAP3 SWAP2 SWAP1 PUSH2 0x10A9 JUMP JUMPDEST PUSH1 0x20 PUSH1 0x40 MLOAD DUP1 DUP4 SUB DUP2 DUP7 GAS STATICCALL ISZERO DUP1 ISZERO PUSH2 0x4A9 JUMPI RETURNDATASIZE PUSH1 0x0 DUP1 RETURNDATACOPY RETURNDATASIZE PUSH1 0x0 REVERT JUMPDEST POP POP POP POP PUSH1 0x40 MLOAD RETURNDATASIZE PUSH1 0x1F NOT PUSH1 0x1F DUP3 ADD AND DUP3 ADD DUP1 PUSH1 0x40 MSTORE POP DUP2 ADD SWAP1 PUSH2 0x4CD SWAP2 SWAP1 PUSH2 0x10E7 JUMP JUMPDEST DUP3 PUSH20 0xFFFFFFFFFFFFFFFFFFFFFFFFFFFFFFFFFFFFFFFF AND PUSH4 0x70A08231 CALLER PUSH1 0x40 MLOAD DUP3 PUSH4 0xFFFFFFFF AND PUSH1 0xE0 SHL DUP2 MSTORE PUSH1 0x4 ADD PUSH2 0x506 SWAP2 SWAP1 PUSH2 0xFDB JUMP JUMPDEST PUSH1 0x20 PUSH1 0x40 MLOAD DUP1 DUP4 SUB DUP2 DUP7 GAS STATICCALL ISZERO DUP1 ISZERO PUSH2 0x523 JUMPI RETURNDATASIZE PUSH1 0x0 DUP1 RETURNDATACOPY RETURNDATASIZE PUSH1 0x0 REVERT JUMPDEST POP POP POP POP PUSH1 0x40 MLOAD RETURNDATASIZE PUSH1 0x1F NOT PUSH1 0x1F DUP3 ADD AND DUP3 ADD DUP1 PUSH1 0x40 MSTORE POP DUP2 ADD SWAP1 PUSH2 0x547 SWAP2 SWAP1 PUSH2 0x10E7 JUMP JUMPDEST PUSH2 0x54F PUSH2 0x9CA JUMP JUMPDEST PUSH1 0x40 MLOAD PUSH2 0x55E SWAP4 SWAP3 SWAP2 SWAP1 PUSH2 0x1114 JUMP JUMPDEST PUSH1 0x40 MLOAD DUP1 SWAP2 SUB SWAP1 LOG1 PUSH2 0x56E PUSH2 0x9CA JUMP JUMPDEST DUP3 PUSH1 0xB SLOAD PUSH2 0x57C SWAP2 SWAP1 PUSH2 0x117A JUMP JUMPDEST GT ISZERO PUSH2 0x5BD JUMPI PUSH1 0x40 MLOAD PUSH32 0x8C379A000000000000000000000000000000000000000000000000000000000 DUP2 MSTORE PUSH1 0x4 ADD PUSH2 0x5B4 SWAP1 PUSH2 0x11FA JUMP JUMPDEST PUSH1 0x40 MLOAD DUP1 SWAP2 SUB SWAP1 REVERT JUMPDEST PUSH2 0x60A CALLER PUSH1 0x0 DUP1 SLOAD SWAP1 PUSH2 0x100 EXP SWAP1 DIV PUSH20 0xFFFFFFFFFFFFFFFFFFFFFFFFFFFFFFFFFFFFFFFF AND DUP5 DUP5 PUSH20 0xFFFFFFFFFFFFFFFFFFFFFFFFFFFFFFFFFFFFFFFF AND PUSH2 0xBCE SWAP1 SWAP4 SWAP3 SWAP2 SWAP1 PUSH4 0xFFFFFFFF AND JUMP JUMPDEST DUP2 PUSH1 0xB PUSH1 0x0 DUP3 DUP3 SLOAD PUSH2 0x61C SWAP2 SWAP1 PUSH2 0x117A JUMP JUMPDEST SWAP3 POP POP DUP2 SWAP1 SSTORE POP CALLER PUSH20 0xFFFFFFFFFFFFFFFFFFFFFFFFFFFFFFFFFFFFFFFF AND PUSH32 0x1B8CD61ED43BEC7C6BDAD3A18FFEE613F99C853D16C50678D248D879E1B43438 DUP4 PUSH1 0xB SLOAD PUSH1 0x40 MLOAD PUSH2 0x66D SWAP3 SWAP2 SWAP1 PUSH2 0x121A JUMP JUMPDEST PUSH1 0x40 MLOAD DUP1 SWAP2 SUB SWAP1 LOG2 PUSH1 0x1 PUSH1 0x2 DUP2 GT ISZERO PUSH2 0x689 JUMPI PUSH2 0x688 PUSH2 0xF08 JUMP JUMPDEST JUMPDEST PUSH2 0x691 PUSH2 0x739 JUMP JUMPDEST PUSH1 0x2 DUP2 GT ISZERO PUSH2 0x6A3 JUMPI PUSH2 0x6A2 PUSH2 0xF08 JUMP JUMPDEST JUMPDEST SUB PUSH2 0x735 JUMPI ADDRESS PUSH20 0xFFFFFFFFFFFFFFFFFFFFFFFFFFFFFFFFFFFFFFFF AND PUSH32 0x927542D877F6EF1FB1779CB252A65AAA543F48E6D9ABC25433C57E19CECCF61D PUSH1 0x40 MLOAD PUSH1 0x40 MLOAD DUP1 SWAP2 SUB SWAP1 LOG2 PUSH1 0x0 PUSH2 0x6F5 PUSH2 0xA48 JUMP JUMPDEST GT ISZERO PUSH2 0x729 JUMPI PUSH2 0x724 PUSH32 0xFFFFFFFFFFFFFFFFFFFFFFFFFFFFFFFFFFFFFFFFFFFFFFFFFFFFFFFFFFFFFFFF PUSH2 0xC50 JUMP JUMPDEST PUSH2 0x734 JUMP JUMPDEST PUSH2 0x733 PUSH1 0x1 PUSH2 0xC50 JUMP JUMPDEST JUMPDEST JUMPDEST POP POP JUMP JUMPDEST PUSH1 0x0 PUSH1 0xC PUSH1 0x0 SWAP1 SLOAD SWAP1 PUSH2 0x100 EXP SWAP1 DIV PUSH1 0xFF AND ISZERO PUSH2 0x759 JUMPI PUSH1 0x2 SWAP1 POP PUSH2 0x777 JUMP JUMPDEST PUSH2 0x761 PUSH2 0x9CA JUMP JUMPDEST PUSH1 0xB SLOAD LT PUSH2 0x772 JUMPI PUSH1 0x1 SWAP1 POP PUSH2 0x777 JUMP JUMPDEST PUSH1 0x0 SWAP1 POP JUMPDEST SWAP1 JUMP JUMPDEST PUSH1 0x0 PUSH1 0xB SLOAD SWAP1 POP SWAP1 JUMP JUMPDEST PUSH1 0x4 SLOAD DUP2 JUMP JUMPDEST PUSH1 0x1 PUSH1 0x0 SWAP1 SLOAD SWAP1 PUSH2 0x100 EXP SWAP1 DIV PUSH20 0xFFFFFFFFFFFFFFFFFFFFFFFFFFFFFFFFFFFFFFFF AND DUP2 JUMP JUMPDEST PUSH1 0x0 DUP1 SLOAD SWAP1 PUSH2 0x100 EXP SWAP1 DIV PUSH20 0xFFFFFFFFFFFFFFFFFFFFFFFFFFFFFFFFFFFFFFFF AND PUSH20 0xFFFFFFFFFFFFFFFFFFFFFFFFFFFFFFFFFFFFFFFF AND CALLER PUSH20 0xFFFFFFFFFFFFFFFFFFFFFFFFFFFFFFFFFFFFFFFF AND EQ PUSH2 0x83E JUMPI PUSH1 0x40 MLOAD PUSH32 0x8C379A000000000000000000000000000000000000000000000000000000000 DUP2 MSTORE PUSH1 0x4 ADD PUSH2 0x835 SWAP1 PUSH2 0x128F JUMP JUMPDEST PUSH1 0x40 MLOAD DUP1 SWAP2 SUB SWAP1 REVERT JUMPDEST PUSH1 0x0 PUSH1 0x2 DUP2 GT ISZERO PUSH2 0x852 JUMPI PUSH2 0x851 PUSH2 0xF08 JUMP JUMPDEST JUMPDEST PUSH2 0x85A PUSH2 0x739 JUMP JUMPDEST PUSH1 0x2 DUP2 GT ISZERO PUSH2 0x86C JUMPI PUSH2 0x86B PUSH2 0xF08 JUMP JUMPDEST JUMPDEST EQ PUSH2 0x8AC JUMPI PUSH1 0x40 MLOAD PUSH32 0x8C379A000000000000000000000000000000000000000000000000000000000 DUP2 MSTORE PUSH1 0x4 ADD PUSH2 0x8A3 SWAP1 PUSH2 0x1321 JUMP JUMPDEST PUSH1 0x40 MLOAD DUP1 SWAP2 SUB SWAP1 REVERT JUMPDEST PUSH1 0x9 SLOAD PUSH1 0x8 SLOAD PUSH2 0x8BC SWAP2 SWAP1 PUSH2 0x1341 JUMP JUMPDEST PUSH1 0xA SLOAD PUSH2 0x8C9 SWAP2 SWAP1 PUSH2 0x117A JUMP JUMPDEST TIMESTAMP GT PUSH2 0x90A JUMPI PUSH1 0x40 MLOAD PUSH32 0x8C379A000000000000000000000000000000000000000000000000000000000 DUP2 MSTORE PUSH1 0x4 ADD PUSH2 0x901 SWAP1 PUSH2 0x13CF JUMP JUMPDEST PUSH1 0x40 MLOAD DUP1 SWAP2 SUB SWAP1 REVERT JUMPDEST PUSH1 0x1 PUSH1 0xC PUSH1 0x0 PUSH2 0x100 EXP DUP2 SLOAD DUP2 PUSH1 0xFF MUL NOT AND SWAP1 DUP4 ISZERO ISZERO MUL OR SWAP1 SSTORE POP PUSH1 0x0 DUP1 SLOAD SWAP1 PUSH2 0x100 EXP SWAP1 DIV PUSH20 0xFFFFFFFFFFFFFFFFFFFFFFFFFFFFFFFFFFFFFFFF AND PUSH20 0xFFFFFFFFFFFFFFFFFFFFFFFFFFFFFFFFFFFFFFFF AND ADDRESS PUSH20 0xFFFFFFFFFFFFFFFFFFFFFFFFFFFFFFFFFFFFFFFF AND PUSH32 0xA6E9ACF469D627E8F02EEC880995BB6F37ECADEA71C528F0E35081BD77E91897 PUSH1 0x40 MLOAD PUSH1 0x40 MLOAD DUP1 SWAP2 SUB SWAP1 LOG3 PUSH2 0x9C8 PUSH32 0xFFFFFFFFFFFFFFFFFFFFFFFFFFFFFFFFFFFFFFFFFFFFFFFFFFFFFFFFFFFFFFFE PUSH2 0xC50 JUMP JUMPDEST JUMP JUMPDEST PUSH1 0x0 PUSH1 0x64 PUSH1 0x3 SLOAD PUSH1 0x2 SLOAD PUSH2 0x9DE SWAP2 SWAP1 PUSH2 0x1341 JUMP JUMPDEST PUSH2 0x9E8 SWAP2 SWAP1 PUSH2 0x141E JUMP JUMPDEST PUSH1 0x2 SLOAD PUSH2 0x9F5 SWAP2 SWAP1 PUSH2 0x117A JUMP JUMPDEST SWAP1 POP PUSH1 0x0 PUSH2 0xA01 PUSH2 0xA48 JUMP JUMPDEST SWAP1 POP PUSH1 0x8 SLOAD PUSH1 0x64 PUSH2 0xA12 SWAP2 SWAP1 PUSH2 0x1341 JUMP JUMPDEST DUP2 PUSH1 0x5 SLOAD PUSH1 0x2 SLOAD PUSH2 0xA23 SWAP2 SWAP1 PUSH2 0x1341 JUMP JUMPDEST PUSH2 0xA2D SWAP2 SWAP1 PUSH2 0x1341 JUMP JUMPDEST PUSH2 0xA37 SWAP2 SWAP1 PUSH2 0x141E JUMP JUMPDEST DUP3 PUSH2 0xA42 SWAP2 SWAP1 PUSH2 0x117A JUMP JUMPDEST SWAP2 POP POP SWAP1 JUMP JUMPDEST PUSH1 0x0 DUP1 PUSH1 0x9 SLOAD PUSH1 0xA SLOAD TIMESTAMP PUSH2 0xA5C SWAP2 SWAP1 PUSH2 0x144F JUMP JUMPDEST PUSH2 0xA66 SWAP2 SWAP1 PUSH2 0x141E JUMP JUMPDEST SWAP1 POP PUSH1 0x8 SLOAD DUP2 GT ISZERO PUSH2 0xA78 JUMPI PUSH1 0x8 SLOAD SWAP1 POP JUMPDEST PUSH1 0x0 PUSH1 0x8 SLOAD DUP3 PUSH1 0x64 PUSH1 0x3 SLOAD PUSH1 0x2 SLOAD PUSH2 0xA90 SWAP2 SWAP1 PUSH2 0x1341 JUMP JUMPDEST PUSH2 0xA9A SWAP2 SWAP1 PUSH2 0x141E JUMP JUMPDEST PUSH1 0x2 SLOAD PUSH2 0xAA7 SWAP2 SWAP1 PUSH2 0x117A JUMP JUMPDEST PUSH2 0xAB1 SWAP2 SWAP1 PUSH2 0x1341 JUMP JUMPDEST PUSH2 0xABB SWAP2 SWAP1 PUSH2 0x141E JUMP JUMPDEST SWAP1 POP PUSH1 0xB SLOAD DUP2 GT ISZERO PUSH2 0xB18 JUMPI PUSH1 0x64 PUSH1 0x3 SLOAD PUSH1 0x2 SLOAD PUSH2 0xAD9 SWAP2 SWAP1 PUSH2 0x1341 JUMP JUMPDEST PUSH2 0xAE3 SWAP2 SWAP1 PUSH2 0x141E JUMP JUMPDEST PUSH1 0x2 SLOAD PUSH2 0xAF0 SWAP2 SWAP1 PUSH2 0x117A JUMP JUMPDEST PUSH1 0x8 SLOAD PUSH1 0xB SLOAD PUSH2 0xB00 SWAP2 SWAP1 PUSH2 0x1341 JUMP JUMPDEST PUSH2 0xB0A SWAP2 SWAP1 PUSH2 0x141E JUMP JUMPDEST DUP3 PUSH2 0xB15 SWAP2 SWAP1 PUSH2 0x144F JUMP JUMPDEST SWAP3 POP JUMPDEST POP POP SWAP1 JUMP JUMPDEST PUSH1 0x6 PUSH1 0x0 SWAP1 SLOAD SWAP1 PUSH2 0x100 EXP SWAP1 DIV PUSH20 0xFFFFFFFFFFFFFFFFFFFFFFFFFFFFFFFFFFFFFFFF AND DUP2 JUMP JUMPDEST PUSH1 0x0 PUSH1 0x4 SLOAD SWAP1 POP SWAP1 JUMP JUMPDEST PUSH1 0x2 SLOAD DUP2 JUMP JUMPDEST PUSH1 0x0 DUP1 SLOAD SWAP1 PUSH2 0x100 EXP SWAP1 DIV PUSH20 0xFFFFFFFFFFFFFFFFFFFFFFFFFFFFFFFFFFFFFFFF AND DUP2 JUMP JUMPDEST PUSH1 0x7 PUSH1 0x0 SWAP1 SLOAD SWAP1 PUSH2 0x100 EXP SWAP1 DIV PUSH20 0xFFFFFFFFFFFFFFFFFFFFFFFFFFFFFFFFFFFFFFFF AND DUP2 JUMP JUMPDEST PUSH1 0x8 SLOAD DUP2 JUMP JUMPDEST PUSH1 0xC PUSH1 0x0 SWAP1 SLOAD SWAP1 PUSH2 0x100 EXP SWAP1 DIV PUSH1 0xFF AND DUP2 JUMP JUMPDEST PUSH1 0x3 SLOAD DUP2 JUMP JUMPDEST PUSH1 0x9 SLOAD DUP2 JUMP JUMPDEST PUSH1 0xA SLOAD DUP2 JUMP JUMPDEST PUSH1 0xB SLOAD DUP2 JUMP JUMPDEST PUSH2 0xC4A DUP5 DUP6 PUSH20 0xFFFFFFFFFFFFFFFFFFFFFFFFFFFFFFFFFFFFFFFF AND PUSH4 0x23B872DD DUP7 DUP7 DUP7 PUSH1 0x40 MLOAD PUSH1 0x24 ADD PUSH2 0xC03 SWAP4 SWAP3 SWAP2 SWAP1 PUSH2 0x1483 JUMP JUMPDEST PUSH1 0x40 MLOAD PUSH1 0x20 DUP2 DUP4 SUB SUB DUP2 MSTORE SWAP1 PUSH1 0x40 MSTORE SWAP2 POP PUSH1 0xE0 SHL PUSH1 0x20 DUP3 ADD DUP1 MLOAD PUSH28 0xFFFFFFFFFFFFFFFFFFFFFFFFFFFFFFFFFFFFFFFFFFFFFFFFFFFFFFFF DUP4 DUP2 DUP4 AND OR DUP4 MSTORE POP POP POP POP PUSH2 0xDD4 JUMP JUMPDEST POP POP POP POP JUMP JUMPDEST PUSH1 0x0 PUSH1 0x7 PUSH1 0x0 SWAP1 SLOAD SWAP1 PUSH2 0x100 EXP SWAP1 DIV PUSH20 0xFFFFFFFFFFFFFFFFFFFFFFFFFFFFFFFFFFFFFFFF AND PUSH20 0xFFFFFFFFFFFFFFFFFFFFFFFFFFFFFFFFFFFFFFFF AND PUSH1 0x1 PUSH1 0x0 SWAP1 SLOAD SWAP1 PUSH2 0x100 EXP SWAP1 DIV PUSH20 0xFFFFFFFFFFFFFFFFFFFFFFFFFFFFFFFFFFFFFFFF AND DUP4 PUSH1 0x40 MLOAD PUSH1 0x24 ADD PUSH2 0xCC0 SWAP3 SWAP2 SWAP1 PUSH2 0x14D3 JUMP JUMPDEST PUSH1 0x40 MLOAD PUSH1 0x20 DUP2 DUP4 SUB SUB DUP2 MSTORE SWAP1 PUSH1 0x40 MSTORE PUSH32 0xE766784D00000000000000000000000000000000000000000000000000000000 PUSH28 0xFFFFFFFFFFFFFFFFFFFFFFFFFFFFFFFFFFFFFFFFFFFFFFFFFFFFFFFF NOT AND PUSH1 0x20 DUP3 ADD DUP1 MLOAD PUSH28 0xFFFFFFFFFFFFFFFFFFFFFFFFFFFFFFFFFFFFFFFFFFFFFFFFFFFFFFFF DUP4 DUP2 DUP4 AND OR DUP4 MSTORE POP POP POP POP PUSH1 0x40 MLOAD PUSH2 0xD4A SWAP2 SWAP1 PUSH2 0x156D JUMP JUMPDEST PUSH1 0x0 PUSH1 0x40 MLOAD DUP1 DUP4 SUB DUP2 PUSH1 0x0 DUP7 GAS CALL SWAP2 POP POP RETURNDATASIZE DUP1 PUSH1 0x0 DUP2 EQ PUSH2 0xD87 JUMPI PUSH1 0x40 MLOAD SWAP2 POP PUSH1 0x1F NOT PUSH1 0x3F RETURNDATASIZE ADD AND DUP3 ADD PUSH1 0x40 MSTORE RETURNDATASIZE DUP3 MSTORE RETURNDATASIZE PUSH1 0x0 PUSH1 0x20 DUP5 ADD RETURNDATACOPY PUSH2 0xD8C JUMP JUMPDEST PUSH1 0x60 SWAP2 POP JUMPDEST POP POP SWAP1 POP DUP1 PUSH2 0xDD0 JUMPI PUSH1 0x40 MLOAD PUSH32 0x8C379A000000000000000000000000000000000000000000000000000000000 DUP2 MSTORE PUSH1 0x4 ADD PUSH2 0xDC7 SWAP1 PUSH2 0x15D0 JUMP JUMPDEST PUSH1 0x40 MLOAD DUP1 SWAP2 SUB SWAP1 REVERT JUMPDEST POP POP JUMP JUMPDEST PUSH1 0x0 DUP1 PUSH1 0x20 PUSH1 0x0 DUP5 MLOAD PUSH1 0x20 DUP7 ADD PUSH1 0x0 DUP9 GAS CALL DUP1 PUSH2 0xDF7 JUMPI PUSH1 0x40 MLOAD RETURNDATASIZE PUSH1 0x0 DUP3 RETURNDATACOPY RETURNDATASIZE DUP2 REVERT JUMPDEST RETURNDATASIZE SWAP3 POP PUSH1 0x0 MLOAD SWAP2 POP POP PUSH1 0x0 DUP3 EQ PUSH2 0xE12 JUMPI PUSH1 0x1 DUP2 EQ ISZERO PUSH2 0xE2E JUMP JUMPDEST PUSH1 0x0 DUP5 PUSH20 0xFFFFFFFFFFFFFFFFFFFFFFFFFFFFFFFFFFFFFFFF AND EXTCODESIZE EQ JUMPDEST ISZERO PUSH2 0xE70 JUMPI DUP4 PUSH1 0x40 MLOAD PUSH32 0x5274AFE700000000000000000000000000000000000000000000000000000000 DUP2 MSTORE PUSH1 0x4 ADD PUSH2 0xE67 SWAP2 SWAP1 PUSH2 0xFDB JUMP JUMPDEST PUSH1 0x40 MLOAD DUP1 SWAP2 SUB SWAP1 REVERT JUMPDEST POP POP POP POP JUMP JUMPDEST PUSH1 0x0 DUP2 SWAP1 POP SWAP2 SWAP1 POP JUMP JUMPDEST PUSH2 0xE89 DUP2 PUSH2 0xE76 JUMP JUMPDEST DUP3 MSTORE POP POP JUMP JUMPDEST PUSH1 0x0 PUSH1 0x20 DUP3 ADD SWAP1 POP PUSH2 0xEA4 PUSH1 0x0 DUP4 ADD DUP5 PUSH2 0xE80 JUMP JUMPDEST SWAP3 SWAP2 POP POP JUMP JUMPDEST PUSH1 0x0 DUP1 REVERT JUMPDEST PUSH2 0xEB8 DUP2 PUSH2 0xE76 JUMP JUMPDEST DUP2 EQ PUSH2 0xEC3 JUMPI PUSH1 0x0 DUP1 REVERT JUMPDEST POP JUMP JUMPDEST PUSH1 0x0 DUP2 CALLDATALOAD SWAP1 POP PUSH2 0xED5 DUP2 PUSH2 0xEAF JUMP JUMPDEST SWAP3 SWAP2 POP POP JUMP JUMPDEST PUSH1 0x0 PUSH1 0x20 DUP3 DUP5 SUB SLT ISZERO PUSH2 0xEF1 JUMPI PUSH2 0xEF0 PUSH2 0xEAA JUMP JUMPDEST JUMPDEST PUSH1 0x0 PUSH2 0xEFF DUP5 DUP3 DUP6 ADD PUSH2 0xEC6 JUMP JUMPDEST SWAP2 POP POP SWAP3 SWAP2 POP POP JUMP JUMPDEST PUSH32 0x4E487B7100000000000000000000000000000000000000000000000000000000 PUSH1 0x0 MSTORE PUSH1 0x21 PUSH1 0x4 MSTORE PUSH1 0x24 PUSH1 0x0 REVERT JUMPDEST PUSH1 0x3 DUP2 LT PUSH2 0xF48 JUMPI PUSH2 0xF47 PUSH2 0xF08 JUMP JUMPDEST JUMPDEST POP JUMP JUMPDEST PUSH1 0x0 DUP2 SWAP1 POP PUSH2 0xF59 DUP3 PUSH2 0xF37 JUMP JUMPDEST SWAP2 SWAP1 POP JUMP JUMPDEST PUSH1 0x0 PUSH2 0xF69 DUP3 PUSH2 0xF4B JUMP JUMPDEST SWAP1 POP SWAP2 SWAP1 POP JUMP JUMPDEST PUSH2 0xF79 DUP2 PUSH2 0xF5E JUMP JUMPDEST DUP3 MSTORE POP POP JUMP JUMPDEST PUSH1 0x0 PUSH1 0x20 DUP3 ADD SWAP1 POP PUSH2 0xF94 PUSH1 0x0 DUP4 ADD DUP5 PUSH2 0xF70 JUMP JUMPDEST SWAP3 SWAP2 POP POP JUMP JUMPDEST PUSH1 0x0 PUSH20 0xFFFFFFFFFFFFFFFFFFFFFFFFFFFFFFFFFFFFFFFF DUP3 AND SWAP1 POP SWAP2 SWAP1 POP JUMP JUMPDEST PUSH1 0x0 PUSH2 0xFC5 DUP3 PUSH2 0xF9A JUMP JUMPDEST SWAP1 POP SWAP2 SWAP1 POP JUMP JUMPDEST PUSH2 0xFD5 DUP2 PUSH2 0xFBA JUMP JUMPDEST DUP3 MSTORE POP POP JUMP JUMPDEST PUSH1 0x0 PUSH1 0x20 DUP3 ADD SWAP1 POP PUSH2 0xFF0 PUSH1 0x0 DUP4 ADD DUP5 PUSH2 0xFCC JUMP JUMPDEST SWAP3 SWAP2 POP POP JUMP JUMPDEST PUSH1 0x0 DUP2 ISZERO ISZERO SWAP1 POP SWAP2 SWAP1 POP JUMP JUMPDEST PUSH2 0x100B DUP2 PUSH2 0xFF6 JUMP JUMPDEST DUP3 MSTORE POP POP JUMP JUMPDEST PUSH1 0x0 PUSH1 0x20 DUP3 ADD SWAP1 POP PUSH2 0x1026 PUSH1 0x0 DUP4 ADD DUP5 PUSH2 0x1002 JUMP JUMPDEST SWAP3 SWAP2 POP POP JUMP JUMPDEST PUSH1 0x0 DUP3 DUP3 MSTORE PUSH1 0x20 DUP3 ADD SWAP1 POP SWAP3 SWAP2 POP POP JUMP JUMPDEST PUSH32 0x4F6E6C7920626F72726F7765722063616E207265706179000000000000000000 PUSH1 0x0 DUP3 ADD MSTORE POP JUMP JUMPDEST PUSH1 0x0 PUSH2 0x1073 PUSH1 0x17 DUP4 PUSH2 0x102C JUMP JUMPDEST SWAP2 POP PUSH2 0x107E DUP3 PUSH2 0x103D JUMP JUMPDEST PUSH1 0x20 DUP3 ADD SWAP1 POP SWAP2 SWAP1 POP JUMP JUMPDEST PUSH1 0x0 PUSH1 0x20 DUP3 ADD SWAP1 POP DUP2 DUP2 SUB PUSH1 0x0 DUP4 ADD MSTORE PUSH2 0x10A2 DUP2 PUSH2 0x1066 JUMP JUMPDEST SWAP1 POP SWAP2 SWAP1 POP JUMP JUMPDEST PUSH1 0x0 PUSH1 0x40 DUP3 ADD SWAP1 POP PUSH2 0x10BE PUSH1 0x0 DUP4 ADD DUP6 PUSH2 0xFCC JUMP JUMPDEST PUSH2 0x10CB PUSH1 0x20 DUP4 ADD DUP5 PUSH2 0xFCC JUMP JUMPDEST SWAP4 SWAP3 POP POP POP JUMP JUMPDEST PUSH1 0x0 DUP2 MLOAD SWAP1 POP PUSH2 0x10E1 DUP2 PUSH2 0xEAF JUMP JUMPDEST SWAP3 SWAP2 POP POP JUMP JUMPDEST PUSH1 0x0 PUSH1 0x20 DUP3 DUP5 SUB SLT ISZERO PUSH2 0x10FD JUMPI PUSH2 0x10FC PUSH2 0xEAA JUMP JUMPDEST JUMPDEST PUSH1 0x0 PUSH2 0x110B DUP5 DUP3 DUP6 ADD PUSH2 0x10D2 JUMP JUMPDEST SWAP2 POP POP SWAP3 SWAP2 POP POP JUMP JUMPDEST PUSH1 0x0 PUSH1 0x60 DUP3 ADD SWAP1 POP PUSH2 0x1129 PUSH1 0x0 DUP4 ADD DUP7 PUSH2 0xE80 JUMP JUMPDEST PUSH2 0x1136 PUSH1 0x20 DUP4 ADD DUP6 PUSH2 0xE80 JUMP JUMPDEST PUSH2 0x1143 PUSH1 0x40 DUP4 ADD DUP5 PUSH2 0xE80 JUMP JUMPDEST SWAP5 SWAP4 POP POP POP POP JUMP JUMPDEST PUSH32 0x4E487B7100000000000000000000000000000000000000000000000000000000 PUSH1 0x0 MSTORE PUSH1 0x11 PUSH1 0x4 MSTORE PUSH1 0x24 PUSH1 0x0 REVERT JUMPDEST PUSH1 0x0 PUSH2 0x1185 DUP3 PUSH2 0xE76 JUMP JUMPDEST SWAP2 POP PUSH2 0x1190 DUP4 PUSH2 0xE76 JUMP JUMPDEST SWAP3 POP DUP3 DUP3 ADD SWAP1 POP DUP1 DUP3 GT ISZERO PUSH2 0x11A8 JUMPI PUSH2 0x11A7 PUSH2 0x114B JUMP JUMPDEST JUMPDEST SWAP3 SWAP2 POP POP JUMP JUMPDEST PUSH32 0x52657061796D656E74206578636565647320746F74616C206F77656400000000 PUSH1 0x0 DUP3 ADD MSTORE POP JUMP JUMPDEST PUSH1 0x0 PUSH2 0x11E4 PUSH1 0x1C DUP4 PUSH2 0x102C JUMP JUMPDEST SWAP2 POP PUSH2 0x11EF DUP3 PUSH2 0x11AE JUMP JUMPDEST PUSH1 0x20 DUP3 ADD SWAP1 POP SWAP2 SWAP1 POP JUMP JUMPDEST PUSH1 0x0 PUSH1 0x20 DUP3 ADD SWAP1 POP DUP2 DUP2 SUB PUSH1 0x0 DUP4 ADD MSTORE PUSH2 0x1213 DUP2 PUSH2 0x11D7 JUMP JUMPDEST SWAP1 POP SWAP2 SWAP1 POP JUMP JUMPDEST PUSH1 0x0 PUSH1 0x40 DUP3 ADD SWAP1 POP PUSH2 0x122F PUSH1 0x0 DUP4 ADD DUP6 PUSH2 0xE80 JUMP JUMPDEST PUSH2 0x123C PUSH1 0x20 DUP4 ADD DUP5 PUSH2 0xE80 JUMP JUMPDEST SWAP4 SWAP3 POP POP POP JUMP JUMPDEST PUSH32 0x4F6E6C79206C656E6465722063616E206D61726B2064656661756C7400000000 PUSH1 0x0 DUP3 ADD MSTORE POP JUMP JUMPDEST PUSH1 0x0 PUSH2 0x1279 PUSH1 0x1C DUP4 PUSH2 0x102C JUMP JUMPDEST SWAP2 POP PUSH2 0x1284 DUP3 PUSH2 0x1243 JUMP JUMPDEST PUSH1 0x20 DUP3 ADD SWAP1 POP SWAP2 SWAP1 POP JUMP JUMPDEST PUSH1 0x0 PUSH1 0x20 DUP3 ADD SWAP1 POP DUP2 DUP2 SUB PUSH1 0x0 DUP4 ADD MSTORE PUSH2 0x12A8 DUP2 PUSH2 0x126C JUMP JUMPDEST SWAP1 POP SWAP2 SWAP1 POP JUMP JUMPDEST PUSH32 0x4C6F616E206E6F7420616374697665206F7220616C72656164792068616E646C PUSH1 0x0 DUP3 ADD MSTORE PUSH32 0x6564000000000000000000000000000000000000000000000000000000000000 PUSH1 0x20 DUP3 ADD MSTORE POP JUMP JUMPDEST PUSH1 0x0 PUSH2 0x130B PUSH1 0x22 DUP4 PUSH2 0x102C JUMP JUMPDEST SWAP2 POP PUSH2 0x1316 DUP3 PUSH2 0x12AF JUMP JUMPDEST PUSH1 0x40 DUP3 ADD SWAP1 POP SWAP2 SWAP1 POP JUMP JUMPDEST PUSH1 0x0 PUSH1 0x20 DUP3 ADD SWAP1 POP DUP2 DUP2 SUB PUSH1 0x0 DUP4 ADD MSTORE PUSH2 0x133A DUP2 PUSH2 0x12FE JUMP JUMPDEST SWAP1 POP SWAP2 SWAP1 POP JUMP JUMPDEST PUSH1 0x0 PUSH2 0x134C DUP3 PUSH2 0xE76 JUMP JUMPDEST SWAP2 POP PUSH2 0x1357 DUP4 PUSH2 0xE76 JUMP JUMPDEST SWAP3 POP DUP3 DUP3 MUL PUSH2 0x1365 DUP2 PUSH2 0xE76 JUMP JUMPDEST SWAP2 POP DUP3 DUP3 DIV DUP5 EQ DUP4 ISZERO OR PUSH2 0x137C JUMPI PUSH2 0x137B PUSH2 0x114B JUMP JUMPDEST JUMPDEST POP SWAP3 SWAP2 POP POP JUMP JUMPDEST PUSH32 0x4C6F616E206973206E6F74206F76657264756520796574000000000000000000 PUSH1 0x0 DUP3 ADD MSTORE POP JUMP JUMPDEST PUSH1 0x0 PUSH2 0x13B9 PUSH1 0x17 DUP4 PUSH2 0x102C JUMP JUMPDEST SWAP2 POP PUSH2 0x13C4 DUP3 PUSH2 0x1383 JUMP JUMPDEST PUSH1 0x20 DUP3 ADD SWAP1 POP SWAP2 SWAP1 POP JUMP JUMPDEST PUSH1 0x0 PUSH1 0x20 DUP3 ADD SWAP1 POP DUP2 DUP2 SUB PUSH1 0x0 DUP4 ADD MSTORE PUSH2 0x13E8 DUP2 PUSH2 0x13AC JUMP JUMPDEST SWAP1 POP SWAP2 SWAP1 POP JUMP JUMPDEST PUSH32 0x4E487B7100000000000000000000000000000000000000000000000000000000 PUSH1 0x0 MSTORE PUSH1 0x12 PUSH1 0x4 MSTORE PUSH1 0x24 PUSH1 0x0 REVERT JUMPDEST PUSH1 0x0 PUSH2 0x1429 DUP3 PUSH2 0xE76 JUMP JUMPDEST SWAP2 POP PUSH2 0x1434 DUP4 PUSH2 0xE76 JUMP JUMPDEST SWAP3 POP DUP3 PUSH2 0x1444 JUMPI PUSH2 0x1443 PUSH2 0x13EF JUMP JUMPDEST JUMPDEST DUP3 DUP3 DIV SWAP1 POP SWAP3 SWAP2 POP POP JUMP JUMPDEST PUSH1 0x0 PUSH2 0x145A DUP3 PUSH2 0xE76 JUMP JUMPDEST SWAP2 POP PUSH2 0x1465 DUP4 PUSH2 0xE76 JUMP JUMPDEST SWAP3 POP DUP3 DUP3 SUB SWAP1 POP DUP2 DUP2 GT ISZERO PUSH2 0x147D JUMPI PUSH2 0x147C PUSH2 0x114B JUMP JUMPDEST JUMPDEST SWAP3 SWAP2 POP POP JUMP JUMPDEST PUSH1 0x0 PUSH1 0x60 DUP3 ADD SWAP1 POP PUSH2 0x1498 PUSH1 0x0 DUP4 ADD DUP7 PUSH2 0xFCC JUMP JUMPDEST PUSH2 0x14A5 PUSH1 0x20 DUP4 ADD DUP6 PUSH2 0xFCC JUMP JUMPDEST PUSH2 0x14B2 PUSH1 0x40 DUP4 ADD DUP5 PUSH2 0xE80 JUMP JUMPDEST SWAP5 SWAP4 POP POP POP POP JUMP JUMPDEST PUSH1 0x0 DUP2 SWAP1 POP SWAP2 SWAP1 POP JUMP JUMPDEST PUSH2 0x14CD DUP2 PUSH2 0x14BA JUMP JUMPDEST DUP3 MSTORE POP POP JUMP JUMPDEST PUSH1 0x0 PUSH1 0x40 DUP3 ADD SWAP1 POP PUSH2 0x14E8 PUSH1 0x0 DUP4 ADD DUP6 PUSH2 0xFCC JUMP JUMPDEST PUSH2 0x14F5 PUSH1 0x20 DUP4 ADD DUP5 PUSH2 0x14C4 JUMP JUMPDEST SWAP4 SWAP3 POP POP POP JUMP JUMPDEST PUSH1 0x0 DUP2 MLOAD SWAP1 POP SWAP2 SWAP1 POP JUMP JUMPDEST PUSH1 0x0 DUP2 SWAP1 POP SWAP3 SWAP2 POP POP JUMP JUMPDEST PUSH1 0x0 JUMPDEST DUP4 DUP2 LT ISZERO PUSH2 0x1530 JUMPI DUP1 DUP3 ADD MLOAD DUP2 DUP5 ADD MSTORE PUSH1 0x20 DUP2 ADD SWAP1 POP PUSH2 0x1515 JUMP JUMPDEST PUSH1 0x0 DUP5 DUP5 ADD MSTORE POP POP POP POP JUMP JUMPDEST PUSH1 0x0 PUSH2 0x1547 DUP3 PUSH2 0x14FC JUMP JUMPDEST PUSH2 0x1551 DUP2 DUP6 PUSH2 0x1507 JUMP JUMPDEST SWAP4 POP PUSH2 0x1561 DUP2 DUP6 PUSH1 0x20 DUP7 ADD PUSH2 0x1512 JUMP JUMPDEST DUP1 DUP5 ADD SWAP2 POP POP SWAP3 SWAP2 POP POP JUMP JUMPDEST PUSH1 0x0 PUSH2 0x1579 DUP3 DUP5 PUSH2 0x153C JUMP JUMPDEST SWAP2 POP DUP2 SWAP1 POP SWAP3 SWAP2 POP POP JUMP JUMPDEST PUSH32 0x54727573742073636F726520757064617465206661696C656400000000000000 PUSH1 0x0 DUP3 ADD MSTORE POP JUMP JUMPDEST PUSH1 0x0 PUSH2 0x15BA PUSH1 0x19 DUP4 PUSH2 0x102C JUMP JUMPDEST SWAP2 POP PUSH2 0x15C5 DUP3 PUSH2 0x1584 JUMP JUMPDEST PUSH1 0x20 DUP3 ADD SWAP1 POP SWAP2 SWAP1 POP JUMP JUMPDEST PUSH1 0x0 PUSH1 0x20 DUP3 ADD SWAP1 POP DUP2 DUP2 SUB PUSH1 0x0 DUP4 ADD MSTORE PUSH2 0x15E9 DUP2 PUSH2 0x15AD JUMP JUMPDEST SWAP1 POP SWAP2 SWAP1 POP JUMP INVALID LOG2 PUSH5 0x6970667358 0x22 SLT KECCAK256 0xE9 0xD1 ADD LOG2 0x5E GT RETURN 0x5C CODESIZE PUSH6 0x104E09C4F40 LOG1 GASPRICE 0xB3 CREATE2 ADDMOD SELFBALANCE 0xCA PUSH10 0x885FDE8E01A011FB6473 PUSH16 0x6C634300081400330000000000000000 "},"methodIdentifiers":{"borrower()":"7df1f1b9","countMissedInstallments()":"9675a4bd","dueTimestamp()":"5451073d","factory()":"c45a0155","getDueTimestamp()":"a35a4ab3","getRepaidAmount()":"53069df6","getStatus()":"4e69d560","getTotalOwed()":"95c8cbc9","installmentInterval()":"de851b0a","interestPercent()":"dd3b3110","lateFeePercent()":"0675d432","lender()":"bcead63e","markDefault()":"8cff3e4b","markedDefault()":"d8bac5ed","principal()":"ba5d3078","repaidAmount()":"f98b8028","repay(uint256)":"371fd8e6","startTimestamp()":"e6fd48bc","tokenAddress()":"9d76ea58","totalInstallments()":"ccb6a048"}}}}}