{"contracts/LoanFactory.sol":{"LoanFactory":{"abi":[{"anonymous":false,"inputs":[{"indexed":true,"internalType":"address","name":"borrower","type":"address"},{"indexed":true,"internalType":"address","name":"lender","type":"address"},{"indexed":false,"internalType":"address","name":"loanAddress","type":"address"}],"name":"LoanCreated","type":"event"},{"inputs":[{"internalType":"address","name":"_borrower","type":"address"},{"internalType":"uint256","name":"_amount","type":"uint256"},{"internalType":"address","name":"_token","type":"address"},{"internalType":"uint256","name":"_duration","type":"uint256"},{"internalType":"uint256","name":"_interestPercent","type":"uint256"},{"internalType":"uint256","name":"_lateFeePercent","type":"uint256"},{"internalType":"uint256","name":"_installments","type":"uint256"}],"name":"createLoan","outputs":[{"internalType":"address","name":"loanAddress","type":"address"}],"stateMutability":"nonpayable","type":"function"},{"inputs":[{"internalType":"address","name":"user","type":"address"}],"name":"getBorrowerLoans","outputs":[{"internalType":"address[]","name":"","type":"address[]"}],"stateMutability":"view","type":"function"},{"inputs":[{"internalType":"address","name":"borrower","type":"address"},{"internalType":"enum LoanAgreement.LoanStatus","name":"status","type":"uint8"}],"name":"getBorrowerLoansByStatus","outputs":[{"internalType":"address[]","name":"","type":"address[]"}],"stateMutability":"view","type":"function"},{"inputs":[{"internalType":"address","name":"user","type":"address"}],"name":"getBorrowerLoansCount","outputs":[{"internalType":"uint256","name":"","type":"uint256"}],"stateMutability":"view","type":"function"},{"inputs":[{"internalType":"address","name":"user","type":"address"}],"name":"getLenderLoans","outputs":[{"internalType":"address[]","name":"","type":"address[]"}],"stateMutability":"view","type":"function"},{"inputs":[{"internalType":"address","name":"lender","type":"address"},{"internalType":"enum LoanAgreement.LoanStatus","name":"status","type":"uint8"}],"name":"getLenderLoansByStatus","outputs":[{"internalType":"address[]","name":"","type":"address[]"}],"stateMutability":"view","type":"function"},{"inputs":[{"internalType":"address","name":"user","type":"address"}],"name":"getLenderLoansCount","outputs":[{"internalType":"uint256","name":"","type":"uint256"}],"stateMutability":"view","type":"function"},{"inputs":[],"name":"getLoans","outputs":[{"internalType":"address[]","name":"","type":"address[]"}],"stateMutability":"view","type":"function"},{"inputs":[],"name":"getLoansCount","outputs":[{"internalType":"uint256","name":"","type":"uint256"}],"stateMutability":"view","type":"function"},{"inputs":[{"internalType":"address","name":"_user","type":"address"}],"name":"getTrustScore","outputs":[{"internalType":"int256","name":"","type":"int256"}],"stateMutability":"view","type":"function"},{"inputs":[{"internalType":"address","name":"","type":"address"}],"name":"isValidLoan","outputs":[{"internalType":"bool","name":"","type":"bool"}],"stateMutability":"view","type":"function"},{"inputs":[{"internalType":"uint256","name":"","type":"uint256"}],"name":"loans","outputs":[{"internalType":"address","name":"","type":"address"}],"stateMutability":"view","type":"function"},{"inputs":[{"internalType":"address","name":"","type":"address"},{"internalType":"uint256","name":"","type":"uint256"}],"name":"loansByBorrower","outputs":[{"internalType":"address","name":"","type":"address"}],"stateMutability":"view","type":"function"},{"inputs":[{"internalType":"address","name":"","type":"address"},{"internalType":"uint256","name":"","type":"uint256"}],"name":"loansByLender","outputs":[{"internalType":"address","name":"","type":"address"}],"stateMutability":"view","type":"function"},{"inputs":[{"internalType":"address","name":"","type":"address"}],"name":"trustScores","outputs":[{"internalType":"int256","name":"","type":"int256"}],"stateMutability":"view","type":"function"},{"inputs":[{"internalType":"address","name":"_borrower","type":"address"},{"internalType":"int256","name":"_val","type":"int256"}],"name":"updateTrustScore","outputs":[],"stateMutability":"nonpayable","type":"function"}],"evm":{"bytecode":{"linkReferences":{},"object":"608060405234801561001057600080fd5b506132f9806100206000396000f3fe60806040523480156200001157600080fd5b5060043610620001185760003560e01c8063d9d3920211620000a5578063eb52927b116200006f578063eb52927b1462000367578063eee8b7ff146200039d578063eeeb0c1714620003d3578063fe7f8c3a14620004095762000118565b8063d9d3920214620002a5578063e1ec3c6814620002db578063e44446891462000311578063e766784d14620003475762000118565b80635e09eea111620000e75780635e09eea114620001e15780636becc9f31462000217578063a64e04cd146200024d578063aa4a871114620002835762000118565b80630c97200a146200011d57806312df0fc4146200013f5780631996572514620001755780634b7f1e5a14620001ab575b600080fd5b620001276200043f565b604051620001369190620010af565b60405180910390f35b6200015d600480360381019062000157919062001136565b6200044b565b6040516200016c919062001183565b60405180910390f35b6200019360048036038101906200018d919062001136565b62000463565b604051620001a29190620011bd565b60405180910390f35b620001c96004803603810190620001c391906200120b565b62000483565b604051620001d8919062001263565b60405180910390f35b620001ff6004803603810190620001f9919062001136565b620004d2565b6040516200020e919062001183565b60405180910390f35b6200023560048036038101906200022f91906200120b565b6200051b565b60405162000244919062001263565b60405180910390f35b6200026b600480360381019062000265919062001280565b6200056a565b6040516200027a919062001263565b60405180910390f35b6200028d62000828565b6040516200029c919062001401565b60405180910390f35b620002c36004803603810190620002bd91906200144d565b620008b8565b604051620002d2919062001401565b60405180910390f35b620002f96004803603810190620002f3919062001494565b62000993565b60405162000308919062001263565b60405180910390f35b6200032f60048036038101906200032991906200144d565b620009d3565b6040516200033e919062001401565b60405180910390f35b6200036560048036038101906200035f9190620014f7565b62000aae565b005b6200038560048036038101906200037f919062001136565b62000b99565b604051620003949190620010af565b60405180910390f35b620003bb6004803603810190620003b5919062001136565b62000be5565b604051620003ca919062001401565b60405180910390f35b620003f16004803603810190620003eb919062001136565b62000cb4565b60405162000400919062001401565b60405180910390f35b62000427600480360381019062000421919062001136565b62000d83565b604051620004369190620010af565b60405180910390f35b60008080549050905090565b60046020528060005260406000206000915090505481565b60016020528060005260406000206000915054906101000a900460ff1681565b60026020528160005260406000208181548110620004a057600080fd5b906000526020600020016000915091509054906101000a900473ffffffffffffffffffffffffffffffffffffffff1681565b6000600460008373ffffffffffffffffffffffffffffffffffffffff1673ffffffffffffffffffffffffffffffffffffffff168152602001908152602001600020549050919050565b600360205281600052604060002081815481106200053857600080fd5b906000526020600020016000915091509054906101000a900473ffffffffffffffffffffffffffffffffffffffff1681565b600080338989898989898930604051620005849062001086565b62000598999897969594939291906200153e565b604051809103906000f080158015620005b5573d6000803e3d6000fd5b5090508091506000829080600181540180825580915050600190039060005260206000200160009091909190916101000a81548173ffffffffffffffffffffffffffffffffffffffff021916908373ffffffffffffffffffffffffffffffffffffffff160217905550600260008a73ffffffffffffffffffffffffffffffffffffffff1673ffffffffffffffffffffffffffffffffffffffff168152602001908152602001600020829080600181540180825580915050600190039060005260206000200160009091909190916101000a81548173ffffffffffffffffffffffffffffffffffffffff021916908373ffffffffffffffffffffffffffffffffffffffff160217905550600360003373ffffffffffffffffffffffffffffffffffffffff1673ffffffffffffffffffffffffffffffffffffffff168152602001908152602001600020829080600181540180825580915050600190039060005260206000200160009091909190916101000a81548173ffffffffffffffffffffffffffffffffffffffff021916908373ffffffffffffffffffffffffffffffffffffffff16021790555060018060008473ffffffffffffffffffffffffffffffffffffffff1673ffffffffffffffffffffffffffffffffffffffff16815260200190815260200160002060006101000a81548160ff0219169083151502179055503373ffffffffffffffffffffffffffffffffffffffff168973ffffffffffffffffffffffffffffffffffffffff167fdeff4690a5c09cff073238600ee1dfb7691d17b7d0fe759778730026c40502eb8460405162000814919062001263565b60405180910390a350979650505050505050565b60606000805480602002602001604051908101604052809291908181526020018280548015620008ae57602002820191906000526020600020905b8160009054906101000a900473ffffffffffffffffffffffffffffffffffffffff1673ffffffffffffffffffffffffffffffffffffffff168152602001906001019080831162000863575b5050505050905090565b60606200098b600260008573ffffffffffffffffffffffffffffffffffffffff1673ffffffffffffffffffffffffffffffffffffffff1681526020019081526020016000208054806020026020016040519081016040528092919081815260200182805480156200097f57602002820191906000526020600020905b8160009054906101000a900473ffffffffffffffffffffffffffffffffffffffff1673ffffffffffffffffffffffffffffffffffffffff168152602001906001019080831162000934575b50505050508362000dcf565b905092915050565b60008181548110620009a457600080fd5b906000526020600020016000915054906101000a900473ffffffffffffffffffffffffffffffffffffffff1681565b606062000aa6600360008573ffffffffffffffffffffffffffffffffffffffff1673ffffffffffffffffffffffffffffffffffffffff16815260200190815260200160002080548060200260200160405190810160405280929190818152602001828054801562000a9a57602002820191906000526020600020905b8160009054906101000a900473ffffffffffffffffffffffffffffffffffffffff1673ffffffffffffffffffffffffffffffffffffffff168152602001906001019080831162000a4f575b50505050508362000dcf565b905092915050565b600160003373ffffffffffffffffffffffffffffffffffffffff1673ffffffffffffffffffffffffffffffffffffffff16815260200190815260200160002060009054906101000a900460ff1662000b3d576040517f08c379a000000000000000000000000000000000000000000000000000000000815260040162000b349062001664565b60405180910390fd5b80600460008473ffffffffffffffffffffffffffffffffffffffff1673ffffffffffffffffffffffffffffffffffffffff168152602001908152602001600020600082825462000b8e9190620016b5565b925050819055505050565b6000600360008373ffffffffffffffffffffffffffffffffffffffff1673ffffffffffffffffffffffffffffffffffffffff168152602001908152602001600020805490509050919050565b6060600260008373ffffffffffffffffffffffffffffffffffffffff1673ffffffffffffffffffffffffffffffffffffffff16815260200190815260200160002080548060200260200160405190810160405280929190818152602001828054801562000ca857602002820191906000526020600020905b8160009054906101000a900473ffffffffffffffffffffffffffffffffffffffff1673ffffffffffffffffffffffffffffffffffffffff168152602001906001019080831162000c5d575b50505050509050919050565b6060600360008373ffffffffffffffffffffffffffffffffffffffff1673ffffffffffffffffffffffffffffffffffffffff16815260200190815260200160002080548060200260200160405190810160405280929190818152602001828054801562000d7757602002820191906000526020600020905b8160009054906101000a900473ffffffffffffffffffffffffffffffffffffffff1673ffffffffffffffffffffffffffffffffffffffff168152602001906001019080831162000d2c575b50505050509050919050565b6000600260008373ffffffffffffffffffffffffffffffffffffffff1673ffffffffffffffffffffffffffffffffffffffff168152602001908152602001600020805490509050919050565b60606000805b845181101562000ec65783600281111562000df55762000df462001700565b5b85828151811062000e0b5762000e0a6200172f565b5b602002602001015173ffffffffffffffffffffffffffffffffffffffff16634e69d5606040518163ffffffff1660e01b8152600401602060405180830381865afa15801562000e5e573d6000803e3d6000fd5b505050506040513d601f19601f8201168201806040525081019062000e84919062001775565b600281111562000e995762000e9862001700565b5b0362000eb057818062000eac90620017a7565b9250505b808062000ebd90620017a7565b91505062000dd5565b5060008167ffffffffffffffff81111562000ee65762000ee5620017f4565b5b60405190808252806020026020018201604052801562000f155781602001602082028036833780820191505090505b5090506000805b8651811015620010795785600281111562000f3c5762000f3b62001700565b5b87828151811062000f525762000f516200172f565b5b602002602001015173ffffffffffffffffffffffffffffffffffffffff16634e69d5606040518163ffffffff1660e01b8152600401602060405180830381865afa15801562000fa5573d6000803e3d6000fd5b505050506040513d601f19601f8201168201806040525081019062000fcb919062001775565b600281111562000fe05762000fdf62001700565b5b03620010635786818151811062000ffc5762000ffb6200172f565b5b60200260200101518383806200101290620017a7565b9450815181106200102857620010276200172f565b5b602002602001019073ffffffffffffffffffffffffffffffffffffffff16908173ffffffffffffffffffffffffffffffffffffffff16815250505b80806200107090620017a7565b91505062000f1c565b5081935050505092915050565b611aa0806200182483390190565b6000819050919050565b620010a98162001094565b82525050565b6000602082019050620010c660008301846200109e565b92915050565b600080fd5b600073ffffffffffffffffffffffffffffffffffffffff82169050919050565b6000620010fe82620010d1565b9050919050565b6200111081620010f1565b81146200111c57600080fd5b50565b600081359050620011308162001105565b92915050565b6000602082840312156200114f576200114e620010cc565b5b60006200115f848285016200111f565b91505092915050565b6000819050919050565b6200117d8162001168565b82525050565b60006020820190506200119a600083018462001172565b92915050565b60008115159050919050565b620011b781620011a0565b82525050565b6000602082019050620011d46000830184620011ac565b92915050565b620011e58162001094565b8114620011f157600080fd5b50565b6000813590506200120581620011da565b92915050565b60008060408385031215620012255762001224620010cc565b5b600062001235858286016200111f565b92505060206200124885828601620011f4565b9150509250929050565b6200125d81620010f1565b82525050565b60006020820190506200127a600083018462001252565b92915050565b600080600080600080600060e0888a031215620012a257620012a1620010cc565b5b6000620012b28a828b016200111f565b9750506020620012c58a828b01620011f4565b9650506040620012d88a828b016200111f565b9550506060620012eb8a828b01620011f4565b9450506080620012fe8a828b01620011f4565b93505060a0620013118a828b01620011f4565b92505060c0620013248a828b01620011f4565b91505092959891949750929550565b600081519050919050565b600082825260208201905092915050565b6000819050602082019050919050565b6200136a81620010f1565b82525050565b60006200137e83836200135f565b60208301905092915050565b6000602082019050919050565b6000620013a48262001333565b620013b081856200133e565b9350620013bd836200134f565b8060005b83811015620013f4578151620013d8888262001370565b9750620013e5836200138a565b925050600181019050620013c1565b5085935050505092915050565b600060208201905081810360008301526200141d818462001397565b905092915050565b600381106200143357600080fd5b50565b600081359050620014478162001425565b92915050565b60008060408385031215620014675762001466620010cc565b5b600062001477858286016200111f565b92505060206200148a8582860162001436565b9150509250929050565b600060208284031215620014ad57620014ac620010cc565b5b6000620014bd84828501620011f4565b91505092915050565b620014d18162001168565b8114620014dd57600080fd5b50565b600081359050620014f181620014c6565b92915050565b60008060408385031215620015115762001510620010cc565b5b600062001521858286016200111f565b92505060206200153485828601620014e0565b9150509250929050565b60006101208201905062001556600083018c62001252565b62001565602083018b62001252565b62001574604083018a6200109e565b62001583606083018962001252565b6200159260808301886200109e565b620015a160a08301876200109e565b620015b060c08301866200109e565b620015bf60e08301856200109e565b620015cf61010083018462001252565b9a9950505050505050505050565b600082825260208201905092915050565b7f4f6e6c7920612072656769737465726564206c6f616e2063616e2063616c6c2060008201527f746869732066756e6374696f6e21000000000000000000000000000000000000602082015250565b60006200164c602e83620015dd565b91506200165982620015ee565b604082019050919050565b600060208201905081810360008301526200167f816200163d565b9050919050565b7f4e487b7100000000000000000000000000000000000000000000000000000000600052601160045260246000fd5b6000620016c28262001168565b9150620016cf8362001168565b925082820190508281121560008312168382126000841215161715620016fa57620016f962001686565b5b92915050565b7f4e487b7100000000000000000000000000000000000000000000000000000000600052602160045260246000fd5b7f4e487b7100000000000000000000000000000000000000000000000000000000600052603260045260246000fd5b6000815190506200176f8162001425565b92915050565b6000602082840312156200178e576200178d620010cc565b5b60006200179e848285016200175e565b91505092915050565b6000620017b48262001094565b91507fffffffffffffffffffffffffffffffffffffffffffffffffffffffffffffffff8203620017e957620017e862001686565b5b600182019050919050565b7f4e487b7100000000000000000000000000000000000000000000000000000000600052604160045260246000fdfe60806040523480156200001157600080fd5b5060405162001aa038038062001aa0833981810160405281019062000037919062000308565b886000806101000a81548173ffffffffffffffffffffffffffffffffffffffff021916908373ffffffffffffffffffffffffffffffffffffffff16021790555087600160006101000a81548173ffffffffffffffffffffffffffffffffffffffff021916908373ffffffffffffffffffffffffffffffffffffffff1602179055508660028190555085600660006101000a81548173ffffffffffffffffffffffffffffffffffffffff021916908373ffffffffffffffffffffffffffffffffffffffff160217905550836003819055508260058190555081600881905550818562000123919062000445565b60098190555080600760006101000a81548173ffffffffffffffffffffffffffffffffffffffff021916908373ffffffffffffffffffffffffffffffffffffffff16021790555042600a8190555084600a546200018191906200047d565b60048190555060008690508073ffffffffffffffffffffffffffffffffffffffff166323b872dd8b8b8b6040518463ffffffff1660e01b8152600401620001cb93929190620004da565b6020604051808303816000875af1158015620001eb573d6000803e3d6000fd5b505050506040513d601f19601f8201168201806040525081019062000211919062000554565b62000253576040517f08c379a00000000000000000000000000000000000000000000000000000000081526004016200024a90620005e7565b60405180910390fd5b5050505050505050505062000609565b600080fd5b600073ffffffffffffffffffffffffffffffffffffffff82169050919050565b6000620002958262000268565b9050919050565b620002a78162000288565b8114620002b357600080fd5b50565b600081519050620002c7816200029c565b92915050565b6000819050919050565b620002e281620002cd565b8114620002ee57600080fd5b50565b6000815190506200030281620002d7565b92915050565b60008060008060008060008060006101208a8c0312156200032e576200032d62000263565b5b60006200033e8c828d01620002b6565b9950506020620003518c828d01620002b6565b9850506040620003648c828d01620002f1565b9750506060620003778c828d01620002b6565b96505060806200038a8c828d01620002f1565b95505060a06200039d8c828d01620002f1565b94505060c0620003b08c828d01620002f1565b93505060e0620003c38c828d01620002f1565b925050610100620003d78c828d01620002b6565b9150509295985092959850929598565b7f4e487b7100000000000000000000000000000000000000000000000000000000600052601260045260246000fd5b7f4e487b7100000000000000000000000000000000000000000000000000000000600052601160045260246000fd5b60006200045282620002cd565b91506200045f83620002cd565b925082620004725762000471620003e7565b5b828204905092915050565b60006200048a82620002cd565b91506200049783620002cd565b9250828201905080821115620004b257620004b162000416565b5b92915050565b620004c38162000288565b82525050565b620004d481620002cd565b82525050565b6000606082019050620004f16000830186620004b8565b620005006020830185620004b8565b6200050f6040830184620004c9565b949350505050565b60008115159050919050565b6200052e8162000517565b81146200053a57600080fd5b50565b6000815190506200054e8162000523565b92915050565b6000602082840312156200056d576200056c62000263565b5b60006200057d848285016200053d565b91505092915050565b600082825260208201905092915050565b7f546f6b656e207472616e73666572206661696c65640000000000000000000000600082015250565b6000620005cf60158362000586565b9150620005dc8262000597565b602082019050919050565b600060208201905081810360008301526200060281620005c0565b9050919050565b61148780620006196000396000f3fe608060405234801561001057600080fd5b506004361061012c5760003560e01c8063a35a4ab3116100ad578063d8bac5ed11610071578063d8bac5ed146102dd578063dd3b3110146102fb578063de851b0a14610319578063e6fd48bc14610337578063f98b8028146103555761012c565b8063a35a4ab314610247578063ba5d307814610265578063bcead63e14610283578063c45a0155146102a1578063ccb6a048146102bf5761012c565b80637df1f1b9116100f45780637df1f1b9146101c55780638cff3e4b146101e357806395c8cbc9146101ed5780639675a4bd1461020b5780639d76ea58146102295761012c565b80630675d43214610131578063371fd8e61461014f5780634e69d5601461016b57806353069df6146101895780635451073d146101a7575b600080fd5b610139610373565b6040516101469190610ccd565b60405180910390f35b61016960048036038101906101649190610d19565b610379565b005b61017361069b565b6040516101809190610dbd565b60405180910390f35b6101916106dc565b60405161019e9190610ccd565b60405180910390f35b6101af6106e6565b6040516101bc9190610ccd565b60405180910390f35b6101cd6106ec565b6040516101da9190610e19565b60405180910390f35b6101eb610712565b005b6101f561092c565b6040516102029190610ccd565b60405180910390f35b6102136109aa565b6040516102209190610ccd565b60405180910390f35b610231610a7f565b60405161023e9190610e19565b60405180910390f35b61024f610aa5565b60405161025c9190610ccd565b60405180910390f35b61026d610aaf565b60405161027a9190610ccd565b60405180910390f35b61028b610ab5565b6040516102989190610e19565b60405180910390f35b6102a9610ad9565b6040516102b69190610e19565b60405180910390f35b6102c7610aff565b6040516102d49190610ccd565b60405180910390f35b6102e5610b05565b6040516102f29190610e4f565b60405180910390f35b610303610b18565b6040516103109190610ccd565b60405180910390f35b610321610b1e565b60405161032e9190610ccd565b60405180910390f35b61033f610b24565b60405161034c9190610ccd565b60405180910390f35b61035d610b2a565b60405161036a9190610ccd565b60405180910390f35b60055481565b600160009054906101000a900473ffffffffffffffffffffffffffffffffffffffff1673ffffffffffffffffffffffffffffffffffffffff163373ffffffffffffffffffffffffffffffffffffffff1614610409576040517f08c379a000000000000000000000000000000000000000000000000000000000815260040161040090610ec7565b60405180910390fd5b600061041361092c565b90508082600b546104249190610f16565b1115610465576040517f08c379a000000000000000000000000000000000000000000000000000000000815260040161045c90610f96565b60405180910390fd5b6000600660009054906101000a900473ffffffffffffffffffffffffffffffffffffffff1690508073ffffffffffffffffffffffffffffffffffffffff166323b872dd3360008054906101000a900473ffffffffffffffffffffffffffffffffffffffff16866040518463ffffffff1660e01b81526004016104e993929190610fb6565b6020604051808303816000875af1158015610508573d6000803e3d6000fd5b505050506040513d601f19601f8201168201806040525081019061052c9190611019565b61056b576040517f08c379a000000000000000000000000000000000000000000000000000000000815260040161056290611092565b60405180910390fd5b82600b600082825461057d9190610f16565b925050819055503373ffffffffffffffffffffffffffffffffffffffff167f1b8cd61ed43bec7c6bdad3a18ffee613f99c853d16c50678d248d879e1b4343884600b546040516105ce9291906110b2565b60405180910390a2600160028111156105ea576105e9610d46565b5b6105f261069b565b600281111561060457610603610d46565b5b03610696573073ffffffffffffffffffffffffffffffffffffffff167f927542d877f6ef1fb1779cb252a65aaa543f48e6d9abc25433c57e19ceccf61d60405160405180910390a260006106566109aa565b111561068a576106857fffffffffffffffffffffffffffffffffffffffffffffffffffffffffffffffff610b30565b610695565b6106946001610b30565b5b5b505050565b6000600c60009054906101000a900460ff16156106bb57600290506106d9565b6106c361092c565b600b54106106d457600190506106d9565b600090505b90565b6000600b54905090565b60045481565b600160009054906101000a900473ffffffffffffffffffffffffffffffffffffffff1681565b60008054906101000a900473ffffffffffffffffffffffffffffffffffffffff1673ffffffffffffffffffffffffffffffffffffffff163373ffffffffffffffffffffffffffffffffffffffff16146107a0576040517f08c379a000000000000000000000000000000000000000000000000000000000815260040161079790611127565b60405180910390fd5b600060028111156107b4576107b3610d46565b5b6107bc61069b565b60028111156107ce576107cd610d46565b5b1461080e576040517f08c379a0000000000000000000000000000000000000000000000000000000008152600401610805906111b9565b60405180910390fd5b60095460085461081e91906111d9565b600a5461082b9190610f16565b421161086c576040517f08c379a000000000000000000000000000000000000000000000000000000000815260040161086390611267565b60405180910390fd5b6001600c60006101000a81548160ff02191690831515021790555060008054906101000a900473ffffffffffffffffffffffffffffffffffffffff1673ffffffffffffffffffffffffffffffffffffffff163073ffffffffffffffffffffffffffffffffffffffff167fa6e9acf469d627e8f02eec880995bb6f37ecadea71c528f0e35081bd77e9189760405160405180910390a361092a7ffffffffffffffffffffffffffffffffffffffffffffffffffffffffffffffffe610b30565b565b6000606460035460025461094091906111d9565b61094a91906112b6565b6002546109579190610f16565b905060006109636109aa565b9050600854606461097491906111d9565b8160055460025461098591906111d9565b61098f91906111d9565b61099991906112b6565b826109a49190610f16565b91505090565b600080600954600a54426109be91906112e7565b6109c891906112b6565b90506008548111156109da5760085490505b60006008548260646003546002546109f291906111d9565b6109fc91906112b6565b600254610a099190610f16565b610a1391906111d9565b610a1d91906112b6565b9050600b54811115610a7a576064600354600254610a3b91906111d9565b610a4591906112b6565b600254610a529190610f16565b600854600b54610a6291906111d9565b610a6c91906112b6565b82610a7791906112e7565b92505b505090565b600660009054906101000a900473ffffffffffffffffffffffffffffffffffffffff1681565b6000600454905090565b60025481565b60008054906101000a900473ffffffffffffffffffffffffffffffffffffffff1681565b600760009054906101000a900473ffffffffffffffffffffffffffffffffffffffff1681565b60085481565b600c60009054906101000a900460ff1681565b60035481565b60095481565b600a5481565b600b5481565b6000600760009054906101000a900473ffffffffffffffffffffffffffffffffffffffff1673ffffffffffffffffffffffffffffffffffffffff16600160009054906101000a900473ffffffffffffffffffffffffffffffffffffffff1683604051602401610ba0929190611334565b6040516020818303038152906040527fe766784d000000000000000000000000000000000000000000000000000000007bffffffffffffffffffffffffffffffffffffffffffffffffffffffff19166020820180517bffffffffffffffffffffffffffffffffffffffffffffffffffffffff8381831617835250505050604051610c2a91906113ce565b6000604051808303816000865af19150503d8060008114610c67576040519150601f19603f3d011682016040523d82523d6000602084013e610c6c565b606091505b5050905080610cb0576040517f08c379a0000000000000000000000000000000000000000000000000000000008152600401610ca790611431565b60405180910390fd5b5050565b6000819050919050565b610cc781610cb4565b82525050565b6000602082019050610ce26000830184610cbe565b92915050565b600080fd5b610cf681610cb4565b8114610d0157600080fd5b50565b600081359050610d1381610ced565b92915050565b600060208284031215610d2f57610d2e610ce8565b5b6000610d3d84828501610d04565b91505092915050565b7f4e487b7100000000000000000000000000000000000000000000000000000000600052602160045260246000fd5b60038110610d8657610d85610d46565b5b50565b6000819050610d9782610d75565b919050565b6000610da782610d89565b9050919050565b610db781610d9c565b82525050565b6000602082019050610dd26000830184610dae565b92915050565b600073ffffffffffffffffffffffffffffffffffffffff82169050919050565b6000610e0382610dd8565b9050919050565b610e1381610df8565b82525050565b6000602082019050610e2e6000830184610e0a565b92915050565b60008115159050919050565b610e4981610e34565b82525050565b6000602082019050610e646000830184610e40565b92915050565b600082825260208201905092915050565b7f4f6e6c7920626f72726f7765722063616e207265706179000000000000000000600082015250565b6000610eb1601783610e6a565b9150610ebc82610e7b565b602082019050919050565b60006020820190508181036000830152610ee081610ea4565b9050919050565b7f4e487b7100000000000000000000000000000000000000000000000000000000600052601160045260246000fd5b6000610f2182610cb4565b9150610f2c83610cb4565b9250828201905080821115610f4457610f43610ee7565b5b92915050565b7f52657061796d656e74206578636565647320746f74616c206f77656400000000600082015250565b6000610f80601c83610e6a565b9150610f8b82610f4a565b602082019050919050565b60006020820190508181036000830152610faf81610f73565b9050919050565b6000606082019050610fcb6000830186610e0a565b610fd86020830185610e0a565b610fe56040830184610cbe565b949350505050565b610ff681610e34565b811461100157600080fd5b50565b60008151905061101381610fed565b92915050565b60006020828403121561102f5761102e610ce8565b5b600061103d84828501611004565b91505092915050565b7f546f6b656e207472616e73666572206661696c65640000000000000000000000600082015250565b600061107c601583610e6a565b915061108782611046565b602082019050919050565b600060208201905081810360008301526110ab8161106f565b9050919050565b60006040820190506110c76000830185610cbe565b6110d46020830184610cbe565b9392505050565b7f4f6e6c79206c656e6465722063616e206d61726b2064656661756c7400000000600082015250565b6000611111601c83610e6a565b915061111c826110db565b602082019050919050565b6000602082019050818103600083015261114081611104565b9050919050565b7f4c6f616e206e6f7420616374697665206f7220616c72656164792068616e646c60008201527f6564000000000000000000000000000000000000000000000000000000000000602082015250565b60006111a3602283610e6a565b91506111ae82611147565b604082019050919050565b600060208201905081810360008301526111d281611196565b9050919050565b60006111e482610cb4565b91506111ef83610cb4565b92508282026111fd81610cb4565b9150828204841483151761121457611213610ee7565b5b5092915050565b7f4c6f616e206973206e6f74206f76657264756520796574000000000000000000600082015250565b6000611251601783610e6a565b915061125c8261121b565b602082019050919050565b6000602082019050818103600083015261128081611244565b9050919050565b7f4e487b7100000000000000000000000000000000000000000000000000000000600052601260045260246000fd5b60006112c182610cb4565b91506112cc83610cb4565b9250826112dc576112db611287565b5b828204905092915050565b60006112f282610cb4565b91506112fd83610cb4565b925082820390508181111561131557611314610ee7565b5b92915050565b6000819050919050565b61132e8161131b565b82525050565b60006040820190506113496000830185610e0a565b6113566020830184611325565b9392505050565b600081519050919050565b600081905092915050565b60005b83811015611391578082015181840152602081019050611376565b60008484015250505050565b60006113a88261135d565b6113b28185611368565b93506113c2818560208601611373565b80840191505092915050565b60006113da828461139d565b915081905092915050565b7f54727573742073636f726520757064617465206661696c656400000000000000600082015250565b600061141b601983610e6a565b9150611426826113e5565b602082019050919050565b6000602082019050818103600083015261144a8161140e565b905091905056fea2646970667358221220d008e4bd46a67609e5a09963c21d301ba4f93a4a227deb4c148d64efe9e9351564736f6c63430008140033a2646970667358221220e957bae3e2c7bc93fcf4ae4586ed503ff8e16a75fd02f9557864426a01698b0864736f6c63430008140033","opcodes":"PUSH1 0x80 PUSH1 0x40 MSTORE CALLVALUE DUP1 ISZERO PUSH2 0x10 JUMPI PUSH1 0x0 DUP1 REVERT JUMPDEST POP PUSH2 0x32F9 DUP1 PUSH2 0x20 PUSH1 0x0 CODECOPY PUSH1 0x0 RETURN INVALID PUSH1 0x80 PUSH1 0x40 MSTORE CALLVALUE DUP1 ISZERO PUSH3 0x11 JUMPI PUSH1 0x0 DUP1 REVERT JUMPDEST POP PUSH1 0x4 CALLDATASIZE LT PUSH3 0x118 JUMPI PUSH1 0x0 CALLDATALOAD PUSH1 0xE0 SHR DUP1 PUSH4 0xD9D39202 GT PUSH3 0xA5 JUMPI DUP1 PUSH4 0xEB52927B GT PUSH3 0x6F JUMPI DUP1 PUSH4 0xEB52927B EQ PUSH3 0x367 JUMPI DUP1 PUSH4 0xEEE8B7FF EQ PUSH3 0x39D JUMPI DUP1 PUSH4 0xEEEB0C17 EQ PUSH3 0x3D3 JUMPI DUP1 PUSH4 0xFE7F8C3A EQ PUSH3 0x409 JUMPI PUSH3 0x118 JUMP JUMPDEST DUP1 PUSH4 0xD9D39202 EQ PUSH3 0x2A5 JUMPI DUP1 PUSH4 0xE1EC3C68 EQ PUSH3 0x2DB JUMPI DUP1 PUSH4 0xE4444689 EQ PUSH3 0x311 JUMPI DUP1 PUSH4 0xE766784D EQ PUSH3 0x347 JUMPI PUSH3 0x118 JUMP JUMPDEST DUP1 PUSH4 0x5E09EEA1 GT PUSH3 0xE7 JUMPI DUP1 PUSH4 0x5E09EEA1 EQ PUSH3 0x1E1 JUMPI DUP1 PUSH4 0x6BECC9F3 EQ PUSH3 0x217 JUMPI DUP1 PUSH4 0xA64E04CD EQ PUSH3 0x24D JUMPI DUP1 PUSH4 0xAA4A8711 EQ PUSH3 0x283 JUMPI PUSH3 0x118 JUMP JUMPDEST DUP1 PUSH4 0xC97200A EQ PUSH3 0x11D JUMPI DUP1 PUSH4 0x12DF0FC4 EQ PUSH3 0x13F JUMPI DUP1 PUSH4 0x19965725 EQ PUSH3 0x175 JUMPI DUP1 PUSH4 0x4B7F1E5A EQ PUSH3 0x1AB JUMPI JUMPDEST PUSH1 0x0 DUP1 REVERT JUMPDEST PUSH3 0x127 PUSH3 0x43F JUMP JUMPDEST PUSH1 0x40 MLOAD PUSH3 0x136 SWAP2 SWAP1 PUSH3 0x10AF JUMP JUMPDEST PUSH1 0x40 MLOAD DUP1 SWAP2 SUB SWAP1 RETURN JUMPDEST PUSH3 0x15D PUSH1 0x4 DUP1 CALLDATASIZE SUB DUP2 ADD SWAP1 PUSH3 0x157 SWAP2 SWAP1 PUSH3 0x1136 JUMP JUMPDEST PUSH3 0x44B JUMP JUMPDEST PUSH1 0x40 MLOAD PUSH3 0x16C SWAP2 SWAP1 PUSH3 0x1183 JUMP JUMPDEST PUSH1 0x40 MLOAD DUP1 SWAP2 SUB SWAP1 RETURN JUMPDEST PUSH3 0x193 PUSH1 0x4 DUP1 CALLDATASIZE SUB DUP2 ADD SWAP1 PUSH3 0x18D SWAP2 SWAP1 PUSH3 0x1136 JUMP JUMPDEST PUSH3 0x463 JUMP JUMPDEST PUSH1 0x40 MLOAD PUSH3 0x1A2 SWAP2 SWAP1 PUSH3 0x11BD JUMP JUMPDEST PUSH1 0x40 MLOAD DUP1 SWAP2 SUB SWAP1 RETURN JUMPDEST PUSH3 0x1C9 PUSH1 0x4 DUP1 CALLDATASIZE SUB DUP2 ADD SWAP1 PUSH3 0x1C3 SWAP2 SWAP1 PUSH3 0x120B JUMP JUMPDEST PUSH3 0x483 JUMP JUMPDEST PUSH1 0x40 MLOAD PUSH3 0x1D8 SWAP2 SWAP1 PUSH3 0x1263 JUMP JUMPDEST PUSH1 0x40 MLOAD DUP1 SWAP2 SUB SWAP1 RETURN JUMPDEST PUSH3 0x1FF PUSH1 0x4 DUP1 CALLDATASIZE SUB DUP2 ADD SWAP1 PUSH3 0x1F9 SWAP2 SWAP1 PUSH3 0x1136 JUMP JUMPDEST PUSH3 0x4D2 JUMP JUMPDEST PUSH1 0x40 MLOAD PUSH3 0x20E SWAP2 SWAP1 PUSH3 0x1183 JUMP JUMPDEST PUSH1 0x40 MLOAD DUP1 SWAP2 SUB SWAP1 RETURN JUMPDEST PUSH3 0x235 PUSH1 0x4 DUP1 CALLDATASIZE SUB DUP2 ADD SWAP1 PUSH3 0x22F SWAP2 SWAP1 PUSH3 0x120B JUMP JUMPDEST PUSH3 0x51B JUMP JUMPDEST PUSH1 0x40 MLOAD PUSH3 0x244 SWAP2 SWAP1 PUSH3 0x1263 JUMP JUMPDEST PUSH1 0x40 MLOAD DUP1 SWAP2 SUB SWAP1 RETURN JUMPDEST PUSH3 0x26B PUSH1 0x4 DUP1 CALLDATASIZE SUB DUP2 ADD SWAP1 PUSH3 0x265 SWAP2 SWAP1 PUSH3 0x1280 JUMP JUMPDEST PUSH3 0x56A JUMP JUMPDEST PUSH1 0x40 MLOAD PUSH3 0x27A SWAP2 SWAP1 PUSH3 0x1263 JUMP JUMPDEST PUSH1 0x40 MLOAD DUP1 SWAP2 SUB SWAP1 RETURN JUMPDEST PUSH3 0x28D PUSH3 0x828 JUMP JUMPDEST PUSH1 0x40 MLOAD PUSH3 0x29C SWAP2 SWAP1 PUSH3 0x1401 JUMP JUMPDEST PUSH1 0x40 MLOAD DUP1 SWAP2 SUB SWAP1 RETURN JUMPDEST PUSH3 0x2C3 PUSH1 0x4 DUP1 CALLDATASIZE SUB DUP2 ADD SWAP1 PUSH3 0x2BD SWAP2 SWAP1 PUSH3 0x144D JUMP JUMPDEST PUSH3 0x8B8 JUMP JUMPDEST PUSH1 0x40 MLOAD PUSH3 0x2D2 SWAP2 SWAP1 PUSH3 0x1401 JUMP JUMPDEST PUSH1 0x40 MLOAD DUP1 SWAP2 SUB SWAP1 RETURN JUMPDEST PUSH3 0x2F9 PUSH1 0x4 DUP1 CALLDATASIZE SUB DUP2 ADD SWAP1 PUSH3 0x2F3 SWAP2 SWAP1 PUSH3 0x1494 JUMP JUMPDEST PUSH3 0x993 JUMP JUMPDEST PUSH1 0x40 MLOAD PUSH3 0x308 SWAP2 SWAP1 PUSH3 0x1263 JUMP JUMPDEST PUSH1 0x40 MLOAD DUP1 SWAP2 SUB SWAP1 RETURN JUMPDEST PUSH3 0x32F PUSH1 0x4 DUP1 CALLDATASIZE SUB DUP2 ADD SWAP1 PUSH3 0x329 SWAP2 SWAP1 PUSH3 0x144D JUMP JUMPDEST PUSH3 0x9D3 JUMP JUMPDEST PUSH1 0x40 MLOAD PUSH3 0x33E SWAP2 SWAP1 PUSH3 0x1401 JUMP JUMPDEST PUSH1 0x40 MLOAD DUP1 SWAP2 SUB SWAP1 RETURN JUMPDEST PUSH3 0x365 PUSH1 0x4 DUP1 CALLDATASIZE SUB DUP2 ADD SWAP1 PUSH3 0x35F SWAP2 SWAP1 PUSH3 0x14F7 JUMP JUMPDEST PUSH3 0xAAE JUMP JUMPDEST STOP JUMPDEST PUSH3 0x385 PUSH1 0x4 DUP1 CALLDATASIZE SUB DUP2 ADD SWAP1 PUSH3 0x37F SWAP2 SWAP1 PUSH3 0x1136 JUMP JUMPDEST PUSH3 0xB99 JUMP JUMPDEST PUSH1 0x40 MLOAD PUSH3 0x394 SWAP2 SWAP1 PUSH3 0x10AF JUMP JUMPDEST PUSH1 0x40 MLOAD DUP1 SWAP2 SUB SWAP1 RETURN JUMPDEST PUSH3 0x3BB PUSH1 0x4 DUP1 CALLDATASIZE SUB DUP2 ADD SWAP1 PUSH3 0x3B5 SWAP2 SWAP1 PUSH3 0x1136 JUMP JUMPDEST PUSH3 0xBE5 JUMP JUMPDEST PUSH1 0x40 MLOAD PUSH3 0x3CA SWAP2 SWAP1 PUSH3 0x1401 JUMP JUMPDEST PUSH1 0x40 MLOAD DUP1 SWAP2 SUB SWAP1 RETURN JUMPDEST PUSH3 0x3F1 PUSH1 0x4 DUP1 CALLDATASIZE SUB DUP2 ADD SWAP1 PUSH3 0x3EB SWAP2 SWAP1 PUSH3 0x1136 JUMP JUMPDEST PUSH3 0xCB4 JUMP JUMPDEST PUSH1 0x40 MLOAD PUSH3 0x400 SWAP2 SWAP1 PUSH3 0x1401 JUMP JUMPDEST PUSH1 0x40 MLOAD DUP1 SWAP2 SUB SWAP1 RETURN JUMPDEST PUSH3 0x427 PUSH1 0x4 DUP1 CALLDATASIZE SUB DUP2 ADD SWAP1 PUSH3 0x421 SWAP2 SWAP1 PUSH3 0x1136 JUMP JUMPDEST PUSH3 0xD83 JUMP JUMPDEST PUSH1 0x40 MLOAD PUSH3 0x436 SWAP2 SWAP1 PUSH3 0x10AF JUMP JUMPDEST PUSH1 0x40 MLOAD DUP1 SWAP2 SUB SWAP1 RETURN JUMPDEST PUSH1 0x0 DUP1 DUP1 SLOAD SWAP1 POP SWAP1 POP SWAP1 JUMP JUMPDEST PUSH1 0x4 PUSH1 0x20 MSTORE DUP1 PUSH1 0x0 MSTORE PUSH1 0x40 PUSH1 0x0 KECCAK256 PUSH1 0x0 SWAP2 POP SWAP1 POP SLOAD DUP2 JUMP JUMPDEST PUSH1 0x1 PUSH1 0x20 MSTORE DUP1 PUSH1 0x0 MSTORE PUSH1 0x40 PUSH1 0x0 KECCAK256 PUSH1 0x0 SWAP2 POP SLOAD SWAP1 PUSH2 0x100 EXP SWAP1 DIV PUSH1 0xFF AND DUP2 JUMP JUMPDEST PUSH1 0x2 PUSH1 0x20 MSTORE DUP2 PUSH1 0x0 MSTORE PUSH1 0x40 PUSH1 0x0 KECCAK256 DUP2 DUP2 SLOAD DUP2 LT PUSH3 0x4A0 JUMPI PUSH1 0x0 DUP1 REVERT JUMPDEST SWAP1 PUSH1 0x0 MSTORE PUSH1 0x20 PUSH1 0x0 KECCAK256 ADD PUSH1 0x0 SWAP2 POP SWAP2 POP SWAP1 SLOAD SWAP1 PUSH2 0x100 EXP SWAP1 DIV PUSH20 0xFFFFFFFFFFFFFFFFFFFFFFFFFFFFFFFFFFFFFFFF AND DUP2 JUMP JUMPDEST PUSH1 0x0 PUSH1 0x4 PUSH1 0x0 DUP4 PUSH20 0xFFFFFFFFFFFFFFFFFFFFFFFFFFFFFFFFFFFFFFFF AND PUSH20 0xFFFFFFFFFFFFFFFFFFFFFFFFFFFFFFFFFFFFFFFF AND DUP2 MSTORE PUSH1 0x20 ADD SWAP1 DUP2 MSTORE PUSH1 0x20 ADD PUSH1 0x0 KECCAK256 SLOAD SWAP1 POP SWAP2 SWAP1 POP JUMP JUMPDEST PUSH1 0x3 PUSH1 0x20 MSTORE DUP2 PUSH1 0x0 MSTORE PUSH1 0x40 PUSH1 0x0 KECCAK256 DUP2 DUP2 SLOAD DUP2 LT PUSH3 0x538 JUMPI PUSH1 0x0 DUP1 REVERT JUMPDEST SWAP1 PUSH1 0x0 MSTORE PUSH1 0x20 PUSH1 0x0 KECCAK256 ADD PUSH1 0x0 SWAP2 POP SWAP2 POP SWAP1 SLOAD SWAP1 PUSH2 0x100 EXP SWAP1 DIV PUSH20 0xFFFFFFFFFFFFFFFFFFFFFFFFFFFFFFFFFFFFFFFF AND DUP2 JUMP JUMPDEST PUSH1 0x0 DUP1 CALLER DUP10 DUP10 DUP10 DUP10 DUP10 DUP10 DUP10 ADDRESS PUSH1 0x40 MLOAD PUSH3 0x584 SWAP1 PUSH3 0x1086 JUMP JUMPDEST PUSH3 0x598 SWAP10 SWAP9 SWAP8 SWAP7 SWAP6 SWAP5 SWAP4 SWAP3 SWAP2 SWAP1 PUSH3 0x153E JUMP JUMPDEST PUSH1 0x40 MLOAD DUP1 SWAP2 SUB SWAP1 PUSH1 0x0 CREATE DUP1 ISZERO DUP1 ISZERO PUSH3 0x5B5 JUMPI RETURNDATASIZE PUSH1 0x0 DUP1 RETURNDATACOPY RETURNDATASIZE PUSH1 0x0 REVERT JUMPDEST POP SWAP1 POP DUP1 SWAP2 POP PUSH1 0x0 DUP3 SWAP1 DUP1 PUSH1 0x1 DUP2 SLOAD ADD DUP1 DUP3 SSTORE DUP1 SWAP2 POP POP PUSH1 0x1 SWAP1 SUB SWAP1 PUSH1 0x0 MSTORE PUSH1 0x20 PUSH1 0x0 KECCAK256 ADD PUSH1 0x0 SWAP1 SWAP2 SWAP1 SWAP2 SWAP1 SWAP2 PUSH2 0x100 EXP DUP2 SLOAD DUP2 PUSH20 0xFFFFFFFFFFFFFFFFFFFFFFFFFFFFFFFFFFFFFFFF MUL NOT AND SWAP1 DUP4 PUSH20 0xFFFFFFFFFFFFFFFFFFFFFFFFFFFFFFFFFFFFFFFF AND MUL OR SWAP1 SSTORE POP PUSH1 0x2 PUSH1 0x0 DUP11 PUSH20 0xFFFFFFFFFFFFFFFFFFFFFFFFFFFFFFFFFFFFFFFF AND PUSH20 0xFFFFFFFFFFFFFFFFFFFFFFFFFFFFFFFFFFFFFFFF AND DUP2 MSTORE PUSH1 0x20 ADD SWAP1 DUP2 MSTORE PUSH1 0x20 ADD PUSH1 0x0 KECCAK256 DUP3 SWAP1 DUP1 PUSH1 0x1 DUP2 SLOAD ADD DUP1 DUP3 SSTORE DUP1 SWAP2 POP POP PUSH1 0x1 SWAP1 SUB SWAP1 PUSH1 0x0 MSTORE PUSH1 0x20 PUSH1 0x0 KECCAK256 ADD PUSH1 0x0 SWAP1 SWAP2 SWAP1 SWAP2 SWAP1 SWAP2 PUSH2 0x100 EXP DUP2 SLOAD DUP2 PUSH20 0xFFFFFFFFFFFFFFFFFFFFFFFFFFFFFFFFFFFFFFFF MUL NOT AND SWAP1 DUP4 PUSH20 0xFFFFFFFFFFFFFFFFFFFFFFFFFFFFFFFFFFFFFFFF AND MUL OR SWAP1 SSTORE POP PUSH1 0x3 PUSH1 0x0 CALLER PUSH20 0xFFFFFFFFFFFFFFFFFFFFFFFFFFFFFFFFFFFFFFFF AND PUSH20 0xFFFFFFFFFFFFFFFFFFFFFFFFFFFFFFFFFFFFFFFF AND DUP2 MSTORE PUSH1 0x20 ADD SWAP1 DUP2 MSTORE PUSH1 0x20 ADD PUSH1 0x0 KECCAK256 DUP3 SWAP1 DUP1 PUSH1 0x1 DUP2 SLOAD ADD DUP1 DUP3 SSTORE DUP1 SWAP2 POP POP PUSH1 0x1 SWAP1 SUB SWAP1 PUSH1 0x0 MSTORE PUSH1 0x20 PUSH1 0x0 KECCAK256 ADD PUSH1 0x0 SWAP1 SWAP2 SWAP1 SWAP2 SWAP1 SWAP2 PUSH2 0x100 EXP DUP2 SLOAD DUP2 PUSH20 0xFFFFFFFFFFFFFFFFFFFFFFFFFFFFFFFFFFFFFFFF MUL NOT AND SWAP1 DUP4 PUSH20 0xFFFFFFFFFFFFFFFFFFFFFFFFFFFFFFFFFFFFFFFF AND MUL OR SWAP1 SSTORE POP PUSH1 0x1 DUP1 PUSH1 0x0 DUP5 PUSH20 0xFFFFFFFFFFFFFFFFFFFFFFFFFFFFFFFFFFFFFFFF AND PUSH20 0xFFFFFFFFFFFFFFFFFFFFFFFFFFFFFFFFFFFFFFFF AND DUP2 MSTORE PUSH1 0x20 ADD SWAP1 DUP2 MSTORE PUSH1 0x20 ADD PUSH1 0x0 KECCAK256 PUSH1 0x0 PUSH2 0x100 EXP DUP2 SLOAD DUP2 PUSH1 0xFF MUL NOT AND SWAP1 DUP4 ISZERO ISZERO MUL OR SWAP1 SSTORE POP CALLER PUSH20 0xFFFFFFFFFFFFFFFFFFFFFFFFFFFFFFFFFFFFFFFF AND DUP10 PUSH20 0xFFFFFFFFFFFFFFFFFFFFFFFFFFFFFFFFFFFFFFFF AND PUSH32 0xDEFF4690A5C09CFF073238600EE1DFB7691D17B7D0FE759778730026C40502EB DUP5 PUSH1 0x40 MLOAD PUSH3 0x814 SWAP2 SWAP1 PUSH3 0x1263 JUMP JUMPDEST PUSH1 0x40 MLOAD DUP1 SWAP2 SUB SWAP1 LOG3 POP SWAP8 SWAP7 POP POP POP POP POP POP POP JUMP JUMPDEST PUSH1 0x60 PUSH1 0x0 DUP1 SLOAD DUP1 PUSH1 0x20 MUL PUSH1 0x20 ADD PUSH1 0x40 MLOAD SWAP1 DUP2 ADD PUSH1 0x40 MSTORE DUP1 SWAP3 SWAP2 SWAP1 DUP2 DUP2 MSTORE PUSH1 0x20 ADD DUP3 DUP1 SLOAD DUP1 ISZERO PUSH3 0x8AE JUMPI PUSH1 0x20 MUL DUP3 ADD SWAP2 SWAP1 PUSH1 0x0 MSTORE PUSH1 0x20 PUSH1 0x0 KECCAK256 SWAP1 JUMPDEST DUP2 PUSH1 0x0 SWAP1 SLOAD SWAP1 PUSH2 0x100 EXP SWAP1 DIV PUSH20 0xFFFFFFFFFFFFFFFFFFFFFFFFFFFFFFFFFFFFFFFF AND PUSH20 0xFFFFFFFFFFFFFFFFFFFFFFFFFFFFFFFFFFFFFFFF AND DUP2 MSTORE PUSH1 0x20 ADD SWAP1 PUSH1 0x1 ADD SWAP1 DUP1 DUP4 GT PUSH3 0x863 JUMPI JUMPDEST POP POP POP POP POP SWAP1 POP SWAP1 JUMP JUMPDEST PUSH1 0x60 PUSH3 0x98B PUSH1 0x2 PUSH1 0x0 DUP6 PUSH20 0xFFFFFFFFFFFFFFFFFFFFFFFFFFFFFFFFFFFFFFFF AND PUSH20 0xFFFFFFFFFFFFFFFFFFFFFFFFFFFFFFFFFFFFFFFF AND DUP2 MSTORE PUSH1 0x20 ADD SWAP1 DUP2 MSTORE PUSH1 0x20 ADD PUSH1 0x0 KECCAK256 DUP1 SLOAD DUP1 PUSH1 0x20 MUL PUSH1 0x20 ADD PUSH1 0x40 MLOAD SWAP1 DUP2 ADD PUSH1 0x40 MSTORE DUP1 SWAP3 SWAP2 SWAP1 DUP2 DUP2 MSTORE PUSH1 0x20 ADD DUP3 DUP1 SLOAD DUP1 ISZERO PUSH3 0x97F JUMPI PUSH1 0x20 MUL DUP3 ADD SWAP2 SWAP1 PUSH1 0x0 MSTORE PUSH1 0x20 PUSH1 0x0 KECCAK256 SWAP1 JUMPDEST DUP2 PUSH1 0x0 SWAP1 SLOAD SWAP1 PUSH2 0x100 EXP SWAP1 DIV PUSH20 0xFFFFFFFFFFFFFFFFFFFFFFFFFFFFFFFFFFFFFFFF AND PUSH20 0xFFFFFFFFFFFFFFFFFFFFFFFFFFFFFFFFFFFFFFFF AND DUP2 MSTORE PUSH1 0x20 ADD SWAP1 PUSH1 0x1 ADD SWAP1 DUP1 DUP4 GT PUSH3 0x934 JUMPI JUMPDEST POP POP POP POP POP DUP4 PUSH3 0xDCF JUMP JUMPDEST SWAP1 POP SWAP3 SWAP2 POP POP JUMP JUMPDEST PUSH1 0x0 DUP2 DUP2 SLOAD DUP2 LT PUSH3 0x9A4 JUMPI PUSH1 0x0 DUP1 REVERT JUMPDEST SWAP1 PUSH1 0x0 MSTORE PUSH1 0x20 PUSH1 0x0 KECCAK256 ADD PUSH1 0x0 SWAP2 POP SLOAD SWAP1 PUSH2 0x100 EXP SWAP1 DIV PUSH20 0xFFFFFFFFFFFFFFFFFFFFFFFFFFFFFFFFFFFFFFFF AND DUP2 JUMP JUMPDEST PUSH1 0x60 PUSH3 0xAA6 PUSH1 0x3 PUSH1 0x0 DUP6 PUSH20 0xFFFFFFFFFFFFFFFFFFFFFFFFFFFFFFFFFFFFFFFF AND PUSH20 0xFFFFFFFFFFFFFFFFFFFFFFFFFFFFFFFFFFFFFFFF AND DUP2 MSTORE PUSH1 0x20 ADD SWAP1 DUP2 MSTORE PUSH1 0x20 ADD PUSH1 0x0 KECCAK256 DUP1 SLOAD DUP1 PUSH1 0x20 MUL PUSH1 0x20 ADD PUSH1 0x40 MLOAD SWAP1 DUP2 ADD PUSH1 0x40 MSTORE DUP1 SWAP3 SWAP2 SWAP1 DUP2 DUP2 MSTORE PUSH1 0x20 ADD DUP3 DUP1 SLOAD DUP1 ISZERO PUSH3 0xA9A JUMPI PUSH1 0x20 MUL DUP3 ADD SWAP2 SWAP1 PUSH1 0x0 MSTORE PUSH1 0x20 PUSH1 0x0 KECCAK256 SWAP1 JUMPDEST DUP2 PUSH1 0x0 SWAP1 SLOAD SWAP1 PUSH2 0x100 EXP SWAP1 DIV PUSH20 0xFFFFFFFFFFFFFFFFFFFFFFFFFFFFFFFFFFFFFFFF AND PUSH20 0xFFFFFFFFFFFFFFFFFFFFFFFFFFFFFFFFFFFFFFFF AND DUP2 MSTORE PUSH1 0x20 ADD SWAP1 PUSH1 0x1 ADD SWAP1 DUP1 DUP4 GT PUSH3 0xA4F JUMPI JUMPDEST POP POP POP POP POP DUP4 PUSH3 0xDCF JUMP JUMPDEST SWAP1 POP SWAP3 SWAP2 POP POP JUMP JUMPDEST PUSH1 0x1 PUSH1 0x0 CALLER PUSH20 0xFFFFFFFFFFFFFFFFFFFFFFFFFFFFFFFFFFFFFFFF AND PUSH20 0xFFFFFFFFFFFFFFFFFFFFFFFFFFFFFFFFFFFFFFFF AND DUP2 MSTORE PUSH1 0x20 ADD SWAP1 DUP2 MSTORE PUSH1 0x20 ADD PUSH1 0x0 KECCAK256 PUSH1 0x0 SWAP1 SLOAD SWAP1 PUSH2 0x100 EXP SWAP1 DIV PUSH1 0xFF AND PUSH3 0xB3D JUMPI PUSH1 0x40 MLOAD PUSH32 0x8C379A000000000000000000000000000000000000000000000000000000000 DUP2 MSTORE PUSH1 0x4 ADD PUSH3 0xB34 SWAP1 PUSH3 0x1664 JUMP JUMPDEST PUSH1 0x40 MLOAD DUP1 SWAP2 SUB SWAP1 REVERT JUMPDEST DUP1 PUSH1 0x4 PUSH1 0x0 DUP5 PUSH20 0xFFFFFFFFFFFFFFFFFFFFFFFFFFFFFFFFFFFFFFFF AND PUSH20 0xFFFFFFFFFFFFFFFFFFFFFFFFFFFFFFFFFFFFFFFF AND DUP2 MSTORE PUSH1 0x20 ADD SWAP1 DUP2 MSTORE PUSH1 0x20 ADD PUSH1 0x0 KECCAK256 PUSH1 0x0 DUP3 DUP3 SLOAD PUSH3 0xB8E SWAP2 SWAP1 PUSH3 0x16B5 JUMP JUMPDEST SWAP3 POP POP DUP2 SWAP1 SSTORE POP POP POP JUMP JUMPDEST PUSH1 0x0 PUSH1 0x3 PUSH1 0x0 DUP4 PUSH20 0xFFFFFFFFFFFFFFFFFFFFFFFFFFFFFFFFFFFFFFFF AND PUSH20 0xFFFFFFFFFFFFFFFFFFFFFFFFFFFFFFFFFFFFFFFF AND DUP2 MSTORE PUSH1 0x20 ADD SWAP1 DUP2 MSTORE PUSH1 0x20 ADD PUSH1 0x0 KECCAK256 DUP1 SLOAD SWAP1 POP SWAP1 POP SWAP2 SWAP1 POP JUMP JUMPDEST PUSH1 0x60 PUSH1 0x2 PUSH1 0x0 DUP4 PUSH20 0xFFFFFFFFFFFFFFFFFFFFFFFFFFFFFFFFFFFFFFFF AND PUSH20 0xFFFFFFFFFFFFFFFFFFFFFFFFFFFFFFFFFFFFFFFF AND DUP2 MSTORE PUSH1 0x20 ADD SWAP1 DUP2 MSTORE PUSH1 0x20 ADD PUSH1 0x0 KECCAK256 DUP1 SLOAD DUP1 PUSH1 0x20 MUL PUSH1 0x20 ADD PUSH1 0x40 MLOAD SWAP1 DUP2 ADD PUSH1 0x40 MSTORE DUP1 SWAP3 SWAP2 SWAP1 DUP2 DUP2 MSTORE PUSH1 0x20 ADD DUP3 DUP1 SLOAD DUP1 ISZERO PUSH3 0xCA8 JUMPI PUSH1 0x20 MUL DUP3 ADD SWAP2 SWAP1 PUSH1 0x0 MSTORE PUSH1 0x20 PUSH1 0x0 KECCAK256 SWAP1 JUMPDEST DUP2 PUSH1 0x0 SWAP1 SLOAD SWAP1 PUSH2 0x100 EXP SWAP1 DIV PUSH20 0xFFFFFFFFFFFFFFFFFFFFFFFFFFFFFFFFFFFFFFFF AND PUSH20 0xFFFFFFFFFFFFFFFFFFFFFFFFFFFFFFFFFFFFFFFF AND DUP2 MSTORE PUSH1 0x20 ADD SWAP1 PUSH1 0x1 ADD SWAP1 DUP1 DUP4 GT PUSH3 0xC5D JUMPI JUMPDEST POP POP POP POP POP SWAP1 POP SWAP2 SWAP1 POP JUMP JUMPDEST PUSH1 0x60 PUSH1 0x3 PUSH1 0x0 DUP4 PUSH20 0xFFFFFFFFFFFFFFFFFFFFFFFFFFFFFFFFFFFFFFFF AND PUSH20 0xFFFFFFFFFFFFFFFFFFFFFFFFFFFFFFFFFFFFFFFF AND DUP2 MSTORE PUSH1 0x20 ADD SWAP1 DUP2 MSTORE PUSH1 0x20 ADD PUSH1 0x0 KECCAK256 DUP1 SLOAD DUP1 PUSH1 0x20 MUL PUSH1 0x20 ADD PUSH1 0x40 MLOAD SWAP1 DUP2 ADD PUSH1 0x40 MSTORE DUP1 SWAP3 SWAP2 SWAP1 DUP2 DUP2 MSTORE PUSH1 0x20 ADD DUP3 DUP1 SLOAD DUP1 ISZERO PUSH3 0xD77 JUMPI PUSH1 0x20 MUL DUP3 ADD SWAP2 SWAP1 PUSH1 0x0 MSTORE PUSH1 0x20 PUSH1 0x0 KECCAK256 SWAP1 JUMPDEST DUP2 PUSH1 0x0 SWAP1 SLOAD SWAP1 PUSH2 0x100 EXP SWAP1 DIV PUSH20 0xFFFFFFFFFFFFFFFFFFFFFFFFFFFFFFFFFFFFFFFF AND PUSH20 0xFFFFFFFFFFFFFFFFFFFFFFFFFFFFFFFFFFFFFFFF AND DUP2 MSTORE PUSH1 0x20 ADD SWAP1 PUSH1 0x1 ADD SWAP1 DUP1 DUP4 GT PUSH3 0xD2C JUMPI JUMPDEST POP POP POP POP POP SWAP1 POP SWAP2 SWAP1 POP JUMP JUMPDEST PUSH1 0x0 PUSH1 0x2 PUSH1 0x0 DUP4 PUSH20 0xFFFFFFFFFFFFFFFFFFFFFFFFFFFFFFFFFFFFFFFF AND PUSH20 0xFFFFFFFFFFFFFFFFFFFFFFFFFFFFFFFFFFFFFFFF AND DUP2 MSTORE PUSH1 0x20 ADD SWAP1 DUP2 MSTORE PUSH1 0x20 ADD PUSH1 0x0 KECCAK256 DUP1 SLOAD SWAP1 POP SWAP1 POP SWAP2 SWAP1 POP JUMP JUMPDEST PUSH1 0x60 PUSH1 0x0 DUP1 JUMPDEST DUP5 MLOAD DUP2 LT ISZERO PUSH3 0xEC6 JUMPI DUP4 PUSH1 0x2 DUP2 GT ISZERO PUSH3 0xDF5 JUMPI PUSH3 0xDF4 PUSH3 0x1700 JUMP JUMPDEST JUMPDEST DUP6 DUP3 DUP2 MLOAD DUP2 LT PUSH3 0xE0B JUMPI PUSH3 0xE0A PUSH3 0x172F JUMP JUMPDEST JUMPDEST PUSH1 0x20 MUL PUSH1 0x20 ADD ADD MLOAD PUSH20 0xFFFFFFFFFFFFFFFFFFFFFFFFFFFFFFFFFFFFFFFF AND PUSH4 0x4E69D560 PUSH1 0x40 MLOAD DUP2 PUSH4 0xFFFFFFFF AND PUSH1 0xE0 SHL DUP2 MSTORE PUSH1 0x4 ADD PUSH1 0x20 PUSH1 0x40 MLOAD DUP1 DUP4 SUB DUP2 DUP7 GAS STATICCALL ISZERO DUP1 ISZERO PUSH3 0xE5E JUMPI RETURNDATASIZE PUSH1 0x0 DUP1 RETURNDATACOPY RETURNDATASIZE PUSH1 0x0 REVERT JUMPDEST POP POP POP POP PUSH1 0x40 MLOAD RETURNDATASIZE PUSH1 0x1F NOT PUSH1 0x1F DUP3 ADD AND DUP3 ADD DUP1 PUSH1 0x40 MSTORE POP DUP2 ADD SWAP1 PUSH3 0xE84 SWAP2 SWAP1 PUSH3 0x1775 JUMP JUMPDEST PUSH1 0x2 DUP2 GT ISZERO PUSH3 0xE99 JUMPI PUSH3 0xE98 PUSH3 0x1700 JUMP JUMPDEST JUMPDEST SUB PUSH3 0xEB0 JUMPI DUP2 DUP1 PUSH3 0xEAC SWAP1 PUSH3 0x17A7 JUMP JUMPDEST SWAP3 POP POP JUMPDEST DUP1 DUP1 PUSH3 0xEBD SWAP1 PUSH3 0x17A7 JUMP JUMPDEST SWAP2 POP POP PUSH3 0xDD5 JUMP JUMPDEST POP PUSH1 0x0 DUP2 PUSH8 0xFFFFFFFFFFFFFFFF DUP2 GT ISZERO PUSH3 0xEE6 JUMPI PUSH3 0xEE5 PUSH3 0x17F4 JUMP JUMPDEST JUMPDEST PUSH1 0x40 MLOAD SWAP1 DUP1 DUP3 MSTORE DUP1 PUSH1 0x20 MUL PUSH1 0x20 ADD DUP3 ADD PUSH1 0x40 MSTORE DUP1 ISZERO PUSH3 0xF15 JUMPI DUP2 PUSH1 0x20 ADD PUSH1 0x20 DUP3 MUL DUP1 CALLDATASIZE DUP4 CALLDATACOPY DUP1 DUP3 ADD SWAP2 POP POP SWAP1 POP JUMPDEST POP SWAP1 POP PUSH1 0x0 DUP1 JUMPDEST DUP7 MLOAD DUP2 LT ISZERO PUSH3 0x1079 JUMPI DUP6 PUSH1 0x2 DUP2 GT ISZERO PUSH3 0xF3C JUMPI PUSH3 0xF3B PUSH3 0x1700 JUMP JUMPDEST JUMPDEST DUP8 DUP3 DUP2 MLOAD DUP2 LT PUSH3 0xF52 JUMPI PUSH3 0xF51 PUSH3 0x172F JUMP JUMPDEST JUMPDEST PUSH1 0x20 MUL PUSH1 0x20 ADD ADD MLOAD PUSH20 0xFFFFFFFFFFFFFFFFFFFFFFFFFFFFFFFFFFFFFFFF AND PUSH4 0x4E69D560 PUSH1 0x40 MLOAD DUP2 PUSH4 0xFFFFFFFF AND PUSH1 0xE0 SHL DUP2 MSTORE PUSH1 0x4 ADD PUSH1 0x20 PUSH1 0x40 MLOAD DUP1 DUP4 SUB DUP2 DUP7 GAS STATICCALL ISZERO DUP1 ISZERO PUSH3 0xFA5 JUMPI RETURNDATASIZE PUSH1 0x0 DUP1 RETURNDATACOPY RETURNDATASIZE PUSH1 0x0 REVERT JUMPDEST POP POP POP POP PUSH1 0x40 MLOAD RETURNDATASIZE PUSH1 0x1F NOT PUSH1 0x1F DUP3 ADD AND DUP3 ADD DUP1 PUSH1 0x40 MSTORE POP DUP2 ADD SWAP1 PUSH3 0xFCB SWAP2 SWAP1 PUSH3 0x1775 JUMP JUMPDEST PUSH1 0x2 DUP2 GT ISZERO PUSH3 0xFE0 JUMPI PUSH3 0xFDF PUSH3 0x1700 JUMP JUMPDEST JUMPDEST SUB PUSH3 0x1063 JUMPI DUP7 DUP2 DUP2 MLOAD DUP2 LT PUSH3 0xFFC JUMPI PUSH3 0xFFB PUSH3 0x172F JUMP JUMPDEST JUMPDEST PUSH1 0x20 MUL PUSH1 0x20 ADD ADD MLOAD DUP4 DUP4 DUP1 PUSH3 0x1012 SWAP1 PUSH3 0x17A7 JUMP JUMPDEST SWAP5 POP DUP2 MLOAD DUP2 LT PUSH3 0x1028 JUMPI PUSH3 0x1027 PUSH3 0x172F JUMP JUMPDEST JUMPDEST PUSH1 0x20 MUL PUSH1 0x20 ADD ADD SWAP1 PUSH20 0xFFFFFFFFFFFFFFFFFFFFFFFFFFFFFFFFFFFFFFFF AND SWAP1 DUP2 PUSH20 0xFFFFFFFFFFFFFFFFFFFFFFFFFFFFFFFFFFFFFFFF AND DUP2 MSTORE POP POP JUMPDEST DUP1 DUP1 PUSH3 0x1070 SWAP1 PUSH3 0x17A7 JUMP JUMPDEST SWAP2 POP POP PUSH3 0xF1C JUMP JUMPDEST POP DUP2 SWAP4 POP POP POP POP SWAP3 SWAP2 POP POP JUMP JUMPDEST PUSH2 0x1AA0 DUP1 PUSH3 0x1824 DUP4 CODECOPY ADD SWAP1 JUMP JUMPDEST PUSH1 0x0 DUP2 SWAP1 POP SWAP2 SWAP1 POP JUMP JUMPDEST PUSH3 0x10A9 DUP2 PUSH3 0x1094 JUMP JUMPDEST DUP3 MSTORE POP POP JUMP JUMPDEST PUSH1 0x0 PUSH1 0x20 DUP3 ADD SWAP1 POP PUSH3 0x10C6 PUSH1 0x0 DUP4 ADD DUP5 PUSH3 0x109E JUMP JUMPDEST SWAP3 SWAP2 POP POP JUMP JUMPDEST PUSH1 0x0 DUP1 REVERT JUMPDEST PUSH1 0x0 PUSH20 0xFFFFFFFFFFFFFFFFFFFFFFFFFFFFFFFFFFFFFFFF DUP3 AND SWAP1 POP SWAP2 SWAP1 POP JUMP JUMPDEST PUSH1 0x0 PUSH3 0x10FE DUP3 PUSH3 0x10D1 JUMP JUMPDEST SWAP1 POP SWAP2 SWAP1 POP JUMP JUMPDEST PUSH3 0x1110 DUP2 PUSH3 0x10F1 JUMP JUMPDEST DUP2 EQ PUSH3 0x111C JUMPI PUSH1 0x0 DUP1 REVERT JUMPDEST POP JUMP JUMPDEST PUSH1 0x0 DUP2 CALLDATALOAD SWAP1 POP PUSH3 0x1130 DUP2 PUSH3 0x1105 JUMP JUMPDEST SWAP3 SWAP2 POP POP JUMP JUMPDEST PUSH1 0x0 PUSH1 0x20 DUP3 DUP5 SUB SLT ISZERO PUSH3 0x114F JUMPI PUSH3 0x114E PUSH3 0x10CC JUMP JUMPDEST JUMPDEST PUSH1 0x0 PUSH3 0x115F DUP5 DUP3 DUP6 ADD PUSH3 0x111F JUMP JUMPDEST SWAP2 POP POP SWAP3 SWAP2 POP POP JUMP JUMPDEST PUSH1 0x0 DUP2 SWAP1 POP SWAP2 SWAP1 POP JUMP JUMPDEST PUSH3 0x117D DUP2 PUSH3 0x1168 JUMP JUMPDEST DUP3 MSTORE POP POP JUMP JUMPDEST PUSH1 0x0 PUSH1 0x20 DUP3 ADD SWAP1 POP PUSH3 0x119A PUSH1 0x0 DUP4 ADD DUP5 PUSH3 0x1172 JUMP JUMPDEST SWAP3 SWAP2 POP POP JUMP JUMPDEST PUSH1 0x0 DUP2 ISZERO ISZERO SWAP1 POP SWAP2 SWAP1 POP JUMP JUMPDEST PUSH3 0x11B7 DUP2 PUSH3 0x11A0 JUMP JUMPDEST DUP3 MSTORE POP POP JUMP JUMPDEST PUSH1 0x0 PUSH1 0x20 DUP3 ADD SWAP1 POP PUSH3 0x11D4 PUSH1 0x0 DUP4 ADD DUP5 PUSH3 0x11AC JUMP JUMPDEST SWAP3 SWAP2 POP POP JUMP JUMPDEST PUSH3 0x11E5 DUP2 PUSH3 0x1094 JUMP JUMPDEST DUP2 EQ PUSH3 0x11F1 JUMPI PUSH1 0x0 DUP1 REVERT JUMPDEST POP JUMP JUMPDEST PUSH1 0x0 DUP2 CALLDATALOAD SWAP1 POP PUSH3 0x1205 DUP2 PUSH3 0x11DA JUMP JUMPDEST SWAP3 SWAP2 POP POP JUMP JUMPDEST PUSH1 0x0 DUP1 PUSH1 0x40 DUP4 DUP6 SUB SLT ISZERO PUSH3 0x1225 JUMPI PUSH3 0x1224 PUSH3 0x10CC JUMP JUMPDEST JUMPDEST PUSH1 0x0 PUSH3 0x1235 DUP6 DUP3 DUP7 ADD PUSH3 0x111F JUMP JUMPDEST SWAP3 POP POP PUSH1 0x20 PUSH3 0x1248 DUP6 DUP3 DUP7 ADD PUSH3 0x11F4 JUMP JUMPDEST SWAP2 POP POP SWAP3 POP SWAP3 SWAP1 POP JUMP JUMPDEST PUSH3 0x125D DUP2 PUSH3 0x10F1 JUMP JUMPDEST DUP3 MSTORE POP POP JUMP JUMPDEST PUSH1 0x0 PUSH1 0x20 DUP3 ADD SWAP1 POP PUSH3 0x127A PUSH1 0x0 DUP4 ADD DUP5 PUSH3 0x1252 JUMP JUMPDEST SWAP3 SWAP2 POP POP JUMP JUMPDEST PUSH1 0x0 DUP1 PUSH1 0x0 DUP1 PUSH1 0x0 DUP1 PUSH1 0x0 PUSH1 0xE0 DUP9 DUP11 SUB SLT ISZERO PUSH3 0x12A2 JUMPI PUSH3 0x12A1 PUSH3 0x10CC JUMP JUMPDEST JUMPDEST PUSH1 0x0 PUSH3 0x12B2 DUP11 DUP3 DUP12 ADD PUSH3 0x111F JUMP JUMPDEST SWAP8 POP POP PUSH1 0x20 PUSH3 0x12C5 DUP11 DUP3 DUP12 ADD PUSH3 0x11F4 JUMP JUMPDEST SWAP7 POP POP PUSH1 0x40 PUSH3 0x12D8 DUP11 DUP3 DUP12 ADD PUSH3 0x111F JUMP JUMPDEST SWAP6 POP POP PUSH1 0x60 PUSH3 0x12EB DUP11 DUP3 DUP12 ADD PUSH3 0x11F4 JUMP JUMPDEST SWAP5 POP POP PUSH1 0x80 PUSH3 0x12FE DUP11 DUP3 DUP12 ADD PUSH3 0x11F4 JUMP JUMPDEST SWAP4 POP POP PUSH1 0xA0 PUSH3 0x1311 DUP11 DUP3 DUP12 ADD PUSH3 0x11F4 JUMP JUMPDEST SWAP3 POP POP PUSH1 0xC0 PUSH3 0x1324 DUP11 DUP3 DUP12 ADD PUSH3 0x11F4 JUMP JUMPDEST SWAP2 POP POP SWAP3 SWAP6 SWAP9 SWAP2 SWAP5 SWAP8 POP SWAP3 SWAP6 POP JUMP JUMPDEST PUSH1 0x0 DUP2 MLOAD SWAP1 POP SWAP2 SWAP1 POP JUMP JUMPDEST PUSH1 0x0 DUP3 DUP3 MSTORE PUSH1 0x20 DUP3 ADD SWAP1 POP SWAP3 SWAP2 POP POP JUMP JUMPDEST PUSH1 0x0 DUP2 SWAP1 POP PUSH1 0x20 DUP3 ADD SWAP1 POP SWAP2 SWAP1 POP JUMP JUMPDEST PUSH3 0x136A DUP2 PUSH3 0x10F1 JUMP JUMPDEST DUP3 MSTORE POP POP JUMP JUMPDEST PUSH1 0x0 PUSH3 0x137E DUP4 DUP4 PUSH3 0x135F JUMP JUMPDEST PUSH1 0x20 DUP4 ADD SWAP1 POP SWAP3 SWAP2 POP POP JUMP JUMPDEST PUSH1 0x0 PUSH1 0x20 DUP3 ADD SWAP1 POP SWAP2 SWAP1 POP JUMP JUMPDEST PUSH1 0x0 PUSH3 0x13A4 DUP3 PUSH3 0x1333 JUMP JUMPDEST PUSH3 0x13B0 DUP2 DUP6 PUSH3 0x133E JUMP JUMPDEST SWAP4 POP PUSH3 0x13BD DUP4 PUSH3 0x134F JUMP JUMPDEST DUP1 PUSH1 0x0 JUMPDEST DUP4 DUP2 LT ISZERO PUSH3 0x13F4 JUMPI DUP2 MLOAD PUSH3 0x13D8 DUP9 DUP3 PUSH3 0x1370 JUMP JUMPDEST SWAP8 POP PUSH3 0x13E5 DUP4 PUSH3 0x138A JUMP JUMPDEST SWAP3 POP POP PUSH1 0x1 DUP2 ADD SWAP1 POP PUSH3 0x13C1 JUMP JUMPDEST POP DUP6 SWAP4 POP POP POP POP SWAP3 SWAP2 POP POP JUMP JUMPDEST PUSH1 0x0 PUSH1 0x20 DUP3 ADD SWAP1 POP DUP2 DUP2 SUB PUSH1 0x0 DUP4 ADD MSTORE PUSH3 0x141D DUP2 DUP5 PUSH3 0x1397 JUMP JUMPDEST SWAP1 POP SWAP3 SWAP2 POP POP JUMP JUMPDEST PUSH1 0x3 DUP2 LT PUSH3 0x1433 JUMPI PUSH1 0x0 DUP1 REVERT JUMPDEST POP JUMP JUMPDEST PUSH1 0x0 DUP2 CALLDATALOAD SWAP1 POP PUSH3 0x1447 DUP2 PUSH3 0x1425 JUMP JUMPDEST SWAP3 SWAP2 POP POP JUMP JUMPDEST PUSH1 0x0 DUP1 PUSH1 0x40 DUP4 DUP6 SUB SLT ISZERO PUSH3 0x1467 JUMPI PUSH3 0x1466 PUSH3 0x10CC JUMP JUMPDEST JUMPDEST PUSH1 0x0 PUSH3 0x1477 DUP6 DUP3 DUP7 ADD PUSH3 0x111F JUMP JUMPDEST SWAP3 POP POP PUSH1 0x20 PUSH3 0x148A DUP6 DUP3 DUP7 ADD PUSH3 0x1436 JUMP JUMPDEST SWAP2 POP POP SWAP3 POP SWAP3 SWAP1 POP JUMP JUMPDEST PUSH1 0x0 PUSH1 0x20 DUP3 DUP5 SUB SLT ISZERO PUSH3 0x14AD JUMPI PUSH3 0x14AC PUSH3 0x10CC JUMP JUMPDEST JUMPDEST PUSH1 0x0 PUSH3 0x14BD DUP5 DUP3 DUP6 ADD PUSH3 0x11F4 JUMP JUMPDEST SWAP2 POP POP SWAP3 SWAP2 POP POP JUMP JUMPDEST PUSH3 0x14D1 DUP2 PUSH3 0x1168 JUMP JUMPDEST DUP2 EQ PUSH3 0x14DD JUMPI PUSH1 0x0 DUP1 REVERT JUMPDEST POP JUMP JUMPDEST PUSH1 0x0 DUP2 CALLDATALOAD SWAP1 POP PUSH3 0x14F1 DUP2 PUSH3 0x14C6 JUMP JUMPDEST SWAP3 SWAP2 POP POP JUMP JUMPDEST PUSH1 0x0 DUP1 PUSH1 0x40 DUP4 DUP6 SUB SLT ISZERO PUSH3 0x1511 JUMPI PUSH3 0x1510 PUSH3 0x10CC JUMP JUMPDEST JUMPDEST PUSH1 0x0 PUSH3 0x1521 DUP6 DUP3 DUP7 ADD PUSH3 0x111F JUMP JUMPDEST SWAP3 POP POP PUSH1 0x20 PUSH3 0x1534 DUP6 DUP3 DUP7 ADD PUSH3 0x14E0 JUMP JUMPDEST SWAP2 POP POP SWAP3 POP SWAP3 SWAP1 POP JUMP JUMPDEST PUSH1 0x0 PUSH2 0x120 DUP3 ADD SWAP1 POP PUSH3 0x1556 PUSH1 0x0 DUP4 ADD DUP13 PUSH3 0x1252 JUMP JUMPDEST PUSH3 0x1565 PUSH1 0x20 DUP4 ADD DUP12 PUSH3 0x1252 JUMP JUMPDEST PUSH3 0x1574 PUSH1 0x40 DUP4 ADD DUP11 PUSH3 0x109E JUMP JUMPDEST PUSH3 0x1583 PUSH1 0x60 DUP4 ADD DUP10 PUSH3 0x1252 JUMP JUMPDEST PUSH3 0x1592 PUSH1 0x80 DUP4 ADD DUP9 PUSH3 0x109E JUMP JUMPDEST PUSH3 0x15A1 PUSH1 0xA0 DUP4 ADD DUP8 PUSH3 0x109E JUMP JUMPDEST PUSH3 0x15B0 PUSH1 0xC0 DUP4 ADD DUP7 PUSH3 0x109E JUMP JUMPDEST PUSH3 0x15BF PUSH1 0xE0 DUP4 ADD DUP6 PUSH3 0x109E JUMP JUMPDEST PUSH3 0x15CF PUSH2 0x100 DUP4 ADD DUP5 PUSH3 0x1252 JUMP JUMPDEST SWAP11 SWAP10 POP POP POP POP POP POP POP POP POP POP JUMP JUMPDEST PUSH1 0x0 DUP3 DUP3 MSTORE PUSH1 0x20 DUP3 ADD SWAP1 POP SWAP3 SWAP2 POP POP JUMP JUMPDEST PUSH32 0x4F6E6C7920612072656769737465726564206C6F616E2063616E2063616C6C20 PUSH1 0x0 DUP3 ADD MSTORE PUSH32 0x746869732066756E6374696F6E21000000000000000000000000000000000000 PUSH1 0x20 DUP3 ADD MSTORE POP JUMP JUMPDEST PUSH1 0x0 PUSH3 0x164C PUSH1 0x2E DUP4 PUSH3 0x15DD JUMP JUMPDEST SWAP2 POP PUSH3 0x1659 DUP3 PUSH3 0x15EE JUMP JUMPDEST PUSH1 0x40 DUP3 ADD SWAP1 POP SWAP2 SWAP1 POP JUMP JUMPDEST PUSH1 0x0 PUSH1 0x20 DUP3 ADD SWAP1 POP DUP2 DUP2 SUB PUSH1 0x0 DUP4 ADD MSTORE PUSH3 0x167F DUP2 PUSH3 0x163D JUMP JUMPDEST SWAP1 POP SWAP2 SWAP1 POP JUMP JUMPDEST PUSH32 0x4E487B7100000000000000000000000000000000000000000000000000000000 PUSH1 0x0 MSTORE PUSH1 0x11 PUSH1 0x4 MSTORE PUSH1 0x24 PUSH1 0x0 REVERT JUMPDEST PUSH1 0x0 PUSH3 0x16C2 DUP3 PUSH3 0x1168 JUMP JUMPDEST SWAP2 POP PUSH3 0x16CF DUP4 PUSH3 0x1168 JUMP JUMPDEST SWAP3 POP DUP3 DUP3 ADD SWAP1 POP DUP3 DUP2 SLT ISZERO PUSH1 0x0 DUP4 SLT AND DUP4 DUP3 SLT PUSH1 0x0 DUP5 SLT ISZERO AND OR ISZERO PUSH3 0x16FA JUMPI PUSH3 0x16F9 PUSH3 0x1686 JUMP JUMPDEST JUMPDEST SWAP3 SWAP2 POP POP JUMP JUMPDEST PUSH32 0x4E487B7100000000000000000000000000000000000000000000000000000000 PUSH1 0x0 MSTORE PUSH1 0x21 PUSH1 0x4 MSTORE PUSH1 0x24 PUSH1 0x0 REVERT JUMPDEST PUSH32 0x4E487B7100000000000000000000000000000000000000000000000000000000 PUSH1 0x0 MSTORE PUSH1 0x32 PUSH1 0x4 MSTORE PUSH1 0x24 PUSH1 0x0 REVERT JUMPDEST PUSH1 0x0 DUP2 MLOAD SWAP1 POP PUSH3 0x176F DUP2 PUSH3 0x1425 JUMP JUMPDEST SWAP3 SWAP2 POP POP JUMP JUMPDEST PUSH1 0x0 PUSH1 0x20 DUP3 DUP5 SUB SLT ISZERO PUSH3 0x178E JUMPI PUSH3 0x178D PUSH3 0x10CC JUMP JUMPDEST JUMPDEST PUSH1 0x0 PUSH3 0x179E DUP5 DUP3 DUP6 ADD PUSH3 0x175E JUMP JUMPDEST SWAP2 POP POP SWAP3 SWAP2 POP POP JUMP JUMPDEST PUSH1 0x0 PUSH3 0x17B4 DUP3 PUSH3 0x1094 JUMP JUMPDEST SWAP2 POP PUSH32 0xFFFFFFFFFFFFFFFFFFFFFFFFFFFFFFFFFFFFFFFFFFFFFFFFFFFFFFFFFFFFFFFF DUP3 SUB PUSH3 0x17E9 JUMPI PUSH3 0x17E8 PUSH3 0x1686 JUMP JUMPDEST JUMPDEST PUSH1 0x1 DUP3 ADD SWAP1 POP SWAP2 SWAP1 POP JUMP JUMPDEST PUSH32 0x4E487B7100000000000000000000000000000000000000000000000000000000 PUSH1 0x0 MSTORE PUSH1 0x41 PUSH1 0x4 MSTORE PUSH1 0x24 PUSH1 0x0 REVERT INVALID PUSH1 0x80 PUSH1 0x40 MSTORE CALLVALUE DUP1 ISZERO PUSH3 0x11 JUMPI PUSH1 0x0 DUP1 REVERT JUMPDEST POP PUSH1 0x40 MLOAD PUSH3 0x1AA0 CODESIZE SUB DUP1 PUSH3 0x1AA0 DUP4 CODECOPY DUP2 DUP2 ADD PUSH1 0x40 MSTORE DUP2 ADD SWAP1 PUSH3 0x37 SWAP2 SWAP1 PUSH3 0x308 JUMP JUMPDEST DUP9 PUSH1 0x0 DUP1 PUSH2 0x100 EXP DUP2 SLOAD DUP2 PUSH20 0xFFFFFFFFFFFFFFFFFFFFFFFFFFFFFFFFFFFFFFFF MUL NOT AND SWAP1 DUP4 PUSH20 0xFFFFFFFFFFFFFFFFFFFFFFFFFFFFFFFFFFFFFFFF AND MUL OR SWAP1 SSTORE POP DUP8 PUSH1 0x1 PUSH1 0x0 PUSH2 0x100 EXP DUP2 SLOAD DUP2 PUSH20 0xFFFFFFFFFFFFFFFFFFFFFFFFFFFFFFFFFFFFFFFF MUL NOT AND SWAP1 DUP4 PUSH20 0xFFFFFFFFFFFFFFFFFFFFFFFFFFFFFFFFFFFFFFFF AND MUL OR SWAP1 SSTORE POP DUP7 PUSH1 0x2 DUP2 SWAP1 SSTORE POP DUP6 PUSH1 0x6 PUSH1 0x0 PUSH2 0x100 EXP DUP2 SLOAD DUP2 PUSH20 0xFFFFFFFFFFFFFFFFFFFFFFFFFFFFFFFFFFFFFFFF MUL NOT AND SWAP1 DUP4 PUSH20 0xFFFFFFFFFFFFFFFFFFFFFFFFFFFFFFFFFFFFFFFF AND MUL OR SWAP1 SSTORE POP DUP4 PUSH1 0x3 DUP2 SWAP1 SSTORE POP DUP3 PUSH1 0x5 DUP2 SWAP1 SSTORE POP DUP2 PUSH1 0x8 DUP2 SWAP1 SSTORE POP DUP2 DUP6 PUSH3 0x123 SWAP2 SWAP1 PUSH3 0x445 JUMP JUMPDEST PUSH1 0x9 DUP2 SWAP1 SSTORE POP DUP1 PUSH1 0x7 PUSH1 0x0 PUSH2 0x100 EXP DUP2 SLOAD DUP2 PUSH20 0xFFFFFFFFFFFFFFFFFFFFFFFFFFFFFFFFFFFFFFFF MUL NOT AND SWAP1 DUP4 PUSH20 0xFFFFFFFFFFFFFFFFFFFFFFFFFFFFFFFFFFFFFFFF AND MUL OR SWAP1 SSTORE POP TIMESTAMP PUSH1 0xA DUP2 SWAP1 SSTORE POP DUP5 PUSH1 0xA SLOAD PUSH3 0x181 SWAP2 SWAP1 PUSH3 0x47D JUMP JUMPDEST PUSH1 0x4 DUP2 SWAP1 SSTORE POP PUSH1 0x0 DUP7 SWAP1 POP DUP1 PUSH20 0xFFFFFFFFFFFFFFFFFFFFFFFFFFFFFFFFFFFFFFFF AND PUSH4 0x23B872DD DUP12 DUP12 DUP12 PUSH1 0x40 MLOAD DUP5 PUSH4 0xFFFFFFFF AND PUSH1 0xE0 SHL DUP2 MSTORE PUSH1 0x4 ADD PUSH3 0x1CB SWAP4 SWAP3 SWAP2 SWAP1 PUSH3 0x4DA JUMP JUMPDEST PUSH1 0x20 PUSH1 0x40 MLOAD DUP1 DUP4 SUB DUP2 PUSH1 0x0 DUP8 GAS CALL ISZERO DUP1 ISZERO PUSH3 0x1EB JUMPI RETURNDATASIZE PUSH1 0x0 DUP1 RETURNDATACOPY RETURNDATASIZE PUSH1 0x0 REVERT JUMPDEST POP POP POP POP PUSH1 0x40 MLOAD RETURNDATASIZE PUSH1 0x1F NOT PUSH1 0x1F DUP3 ADD AND DUP3 ADD DUP1 PUSH1 0x40 MSTORE POP DUP2 ADD SWAP1 PUSH3 0x211 SWAP2 SWAP1 PUSH3 0x554 JUMP JUMPDEST PUSH3 0x253 JUMPI PUSH1 0x40 MLOAD PUSH32 0x8C379A000000000000000000000000000000000000000000000000000000000 DUP2 MSTORE PUSH1 0x4 ADD PUSH3 0x24A SWAP1 PUSH3 0x5E7 JUMP JUMPDEST PUSH1 0x40 MLOAD DUP1 SWAP2 SUB SWAP1 REVERT JUMPDEST POP POP POP POP POP POP POP POP POP POP PUSH3 0x609 JUMP JUMPDEST PUSH1 0x0 DUP1 REVERT JUMPDEST PUSH1 0x0 PUSH20 0xFFFFFFFFFFFFFFFFFFFFFFFFFFFFFFFFFFFFFFFF DUP3 AND SWAP1 POP SWAP2 SWAP1 POP JUMP JUMPDEST PUSH1 0x0 PUSH3 0x295 DUP3 PUSH3 0x268 JUMP JUMPDEST SWAP1 POP SWAP2 SWAP1 POP JUMP JUMPDEST PUSH3 0x2A7 DUP2 PUSH3 0x288 JUMP JUMPDEST DUP2 EQ PUSH3 0x2B3 JUMPI PUSH1 0x0 DUP1 REVERT JUMPDEST POP JUMP JUMPDEST PUSH1 0x0 DUP2 MLOAD SWAP1 POP PUSH3 0x2C7 DUP2 PUSH3 0x29C JUMP JUMPDEST SWAP3 SWAP2 POP POP JUMP JUMPDEST PUSH1 0x0 DUP2 SWAP1 POP SWAP2 SWAP1 POP JUMP JUMPDEST PUSH3 0x2E2 DUP2 PUSH3 0x2CD JUMP JUMPDEST DUP2 EQ PUSH3 0x2EE JUMPI PUSH1 0x0 DUP1 REVERT JUMPDEST POP JUMP JUMPDEST PUSH1 0x0 DUP2 MLOAD SWAP1 POP PUSH3 0x302 DUP2 PUSH3 0x2D7 JUMP JUMPDEST SWAP3 SWAP2 POP POP JUMP JUMPDEST PUSH1 0x0 DUP1 PUSH1 0x0 DUP1 PUSH1 0x0 DUP1 PUSH1 0x0 DUP1 PUSH1 0x0 PUSH2 0x120 DUP11 DUP13 SUB SLT ISZERO PUSH3 0x32E JUMPI PUSH3 0x32D PUSH3 0x263 JUMP JUMPDEST JUMPDEST PUSH1 0x0 PUSH3 0x33E DUP13 DUP3 DUP14 ADD PUSH3 0x2B6 JUMP JUMPDEST SWAP10 POP POP PUSH1 0x20 PUSH3 0x351 DUP13 DUP3 DUP14 ADD PUSH3 0x2B6 JUMP JUMPDEST SWAP9 POP POP PUSH1 0x40 PUSH3 0x364 DUP13 DUP3 DUP14 ADD PUSH3 0x2F1 JUMP JUMPDEST SWAP8 POP POP PUSH1 0x60 PUSH3 0x377 DUP13 DUP3 DUP14 ADD PUSH3 0x2B6 JUMP JUMPDEST SWAP7 POP POP PUSH1 0x80 PUSH3 0x38A DUP13 DUP3 DUP14 ADD PUSH3 0x2F1 JUMP JUMPDEST SWAP6 POP POP PUSH1 0xA0 PUSH3 0x39D DUP13 DUP3 DUP14 ADD PUSH3 0x2F1 JUMP JUMPDEST SWAP5 POP POP PUSH1 0xC0 PUSH3 0x3B0 DUP13 DUP3 DUP14 ADD PUSH3 0x2F1 JUMP JUMPDEST SWAP4 POP POP PUSH1 0xE0 PUSH3 0x3C3 DUP13 DUP3 DUP14 ADD PUSH3 0x2F1 JUMP JUMPDEST SWAP3 POP POP PUSH2 0x100 PUSH3 0x3D7 DUP13 DUP3 DUP14 ADD PUSH3 0x2B6 JUMP JUMPDEST SWAP2 POP POP SWAP3 SWAP6 SWAP9 POP SWAP3 SWAP6 SWAP9 POP SWAP3 SWAP6 SWAP9 JUMP JUMPDEST PUSH32 0x4E487B7100000000000000000000000000000000000000000000000000000000 PUSH1 0x0 MSTORE PUSH1 0x12 PUSH1 0x4 MSTORE PUSH1 0x24 PUSH1 0x0 REVERT JUMPDEST PUSH32 0x4E487B7100000000000000000000000000000000000000000000000000000000 PUSH1 0x0 MSTORE PUSH1 0x11 PUSH1 0x4 MSTORE PUSH1 0x24 PUSH1 0x0 REVERT JUMPDEST PUSH1 0x0 PUSH3 0x452 DUP3 PUSH3 0x2CD JUMP JUMPDEST SWAP2 POP PUSH3 0x45F DUP4 PUSH3 0x2CD JUMP JUMPDEST SWAP3 POP DUP3 PUSH3 0x472 JUMPI PUSH3 0x471 PUSH3 0x3E7 JUMP JUMPDEST JUMPDEST DUP3 DUP3 DIV SWAP1 POP SWAP3 SWAP2 POP POP JUMP JUMPDEST PUSH1 0x0 PUSH3 0x48A DUP3 PUSH3 0x2CD JUMP JUMPDEST SWAP2 POP PUSH3 0x497 DUP4 PUSH3 0x2CD JUMP JUMPDEST SWAP3 POP DUP3 DUP3 ADD SWAP1 POP DUP1 DUP3 GT ISZERO PUSH3 0x4B2 JUMPI PUSH3 0x4B1 PUSH3 0x416 JUMP JUMPDEST JUMPDEST SWAP3 SWAP2 POP POP JUMP JUMPDEST PUSH3 0x4C3 DUP2 PUSH3 0x288 JUMP JUMPDEST DUP3 MSTORE POP POP JUMP JUMPDEST PUSH3 0x4D4 DUP2 PUSH3 0x2CD JUMP JUMPDEST DUP3 MSTORE POP POP JUMP JUMPDEST PUSH1 0x0 PUSH1 0x60 DUP3 ADD SWAP1 POP PUSH3 0x4F1 PUSH1 0x0 DUP4 ADD DUP7 PUSH3 0x4B8 JUMP JUMPDEST PUSH3 0x500 PUSH1 0x20 DUP4 ADD DUP6 PUSH3 0x4B8 JUMP JUMPDEST PUSH3 0x50F PUSH1 0x40 DUP4 ADD DUP5 PUSH3 0x4C9 JUMP JUMPDEST SWAP5 SWAP4 POP POP POP POP JUMP JUMPDEST PUSH1 0x0 DUP2 ISZERO ISZERO SWAP1 POP SWAP2 SWAP1 POP JUMP JUMPDEST PUSH3 0x52E DUP2 PUSH3 0x517 JUMP JUMPDEST DUP2 EQ PUSH3 0x53A JUMPI PUSH1 0x0 DUP1 REVERT JUMPDEST POP JUMP JUMPDEST PUSH1 0x0 DUP2 MLOAD SWAP1 POP PUSH3 0x54E DUP2 PUSH3 0x523 JUMP JUMPDEST SWAP3 SWAP2 POP POP JUMP JUMPDEST PUSH1 0x0 PUSH1 0x20 DUP3 DUP5 SUB SLT ISZERO PUSH3 0x56D JUMPI PUSH3 0x56C PUSH3 0x263 JUMP JUMPDEST JUMPDEST PUSH1 0x0 PUSH3 0x57D DUP5 DUP3 DUP6 ADD PUSH3 0x53D JUMP JUMPDEST SWAP2 POP POP SWAP3 SWAP2 POP POP JUMP JUMPDEST PUSH1 0x0 DUP3 DUP3 MSTORE PUSH1 0x20 DUP3 ADD SWAP1 POP SWAP3 SWAP2 POP POP JUMP JUMPDEST PUSH32 0x546F6B656E207472616E73666572206661696C65640000000000000000000000 PUSH1 0x0 DUP3 ADD MSTORE POP JUMP JUMPDEST PUSH1 0x0 PUSH3 0x5CF PUSH1 0x15 DUP4 PUSH3 0x586 JUMP JUMPDEST SWAP2 POP PUSH3 0x5DC DUP3 PUSH3 0x597 JUMP JUMPDEST PUSH1 0x20 DUP3 ADD SWAP1 POP SWAP2 SWAP1 POP JUMP JUMPDEST PUSH1 0x0 PUSH1 0x20 DUP3 ADD SWAP1 POP DUP2 DUP2 SUB PUSH1 0x0 DUP4 ADD MSTORE PUSH3 0x602 DUP2 PUSH3 0x5C0 JUMP JUMPDEST SWAP1 POP SWAP2 SWAP1 POP JUMP JUMPDEST PUSH2 0x1487 DUP1 PUSH3 0x619 PUSH1 0x0 CODECOPY PUSH1 0x0 RETURN INVALID PUSH1 0x80 PUSH1 0x40 MSTORE CALLVALUE DUP1 ISZERO PUSH2 0x10 JUMPI PUSH1 0x0 DUP1 REVERT JUMPDEST POP PUSH1 0x4 CALLDATASIZE LT PUSH2 0x12C JUMPI PUSH1 0x0 CALLDATALOAD PUSH1 0xE0 SHR DUP1 PUSH4 0xA35A4AB3 GT PUSH2 0xAD JUMPI DUP1 PUSH4 0xD8BAC5ED GT PUSH2 0x71 JUMPI DUP1 PUSH4 0xD8BAC5ED EQ PUSH2 0x2DD JUMPI DUP1 PUSH4 0xDD3B3110 EQ PUSH2 0x2FB JUMPI DUP1 PUSH4 0xDE851B0A EQ PUSH2 0x319 JUMPI DUP1 PUSH4 0xE6FD48BC EQ PUSH2 0x337 JUMPI DUP1 PUSH4 0xF98B8028 EQ PUSH2 0x355 JUMPI PUSH2 0x12C JUMP JUMPDEST DUP1 PUSH4 0xA35A4AB3 EQ PUSH2 0x247 JUMPI DUP1 PUSH4 0xBA5D3078 EQ PUSH2 0x265 JUMPI DUP1 PUSH4 0xBCEAD63E EQ PUSH2 0x283 JUMPI DUP1 PUSH4 0xC45A0155 EQ PUSH2 0x2A1 JUMPI DUP1 PUSH4 0xCCB6A048 EQ PUSH2 0x2BF JUMPI PUSH2 0x12C JUMP JUMPDEST DUP1 PUSH4 0x7DF1F1B9 GT PUSH2 0xF4 JUMPI DUP1 PUSH4 0x7DF1F1B9 EQ PUSH2 0x1C5 JUMPI DUP1 PUSH4 0x8CFF3E4B EQ PUSH2 0x1E3 JUMPI DUP1 PUSH4 0x95C8CBC9 EQ PUSH2 0x1ED JUMPI DUP1 PUSH4 0x9675A4BD EQ PUSH2 0x20B JUMPI DUP1 PUSH4 0x9D76EA58 EQ PUSH2 0x229 JUMPI PUSH2 0x12C JUMP JUMPDEST DUP1 PUSH4 0x675D432 EQ PUSH2 0x131 JUMPI DUP1 PUSH4 0x371FD8E6 EQ PUSH2 0x14F JUMPI DUP1 PUSH4 0x4E69D560 EQ PUSH2 0x16B JUMPI DUP1 PUSH4 0x53069DF6 EQ PUSH2 0x189 JUMPI DUP1 PUSH4 0x5451073D EQ PUSH2 0x1A7 JUMPI JUMPDEST PUSH1 0x0 DUP1 REVERT JUMPDEST PUSH2 0x139 PUSH2 0x373 JUMP JUMPDEST PUSH1 0x40 MLOAD PUSH2 0x146 SWAP2 SWAP1 PUSH2 0xCCD JUMP JUMPDEST PUSH1 0x40 MLOAD DUP1 SWAP2 SUB SWAP1 RETURN JUMPDEST PUSH2 0x169 PUSH1 0x4 DUP1 CALLDATASIZE SUB DUP2 ADD SWAP1 PUSH2 0x164 SWAP2 SWAP1 PUSH2 0xD19 JUMP JUMPDEST PUSH2 0x379 JUMP JUMPDEST STOP JUMPDEST PUSH2 0x173 PUSH2 0x69B JUMP JUMPDEST PUSH1 0x40 MLOAD PUSH2 0x180 SWAP2 SWAP1 PUSH2 0xDBD JUMP JUMPDEST PUSH1 0x40 MLOAD DUP1 SWAP2 SUB SWAP1 RETURN JUMPDEST PUSH2 0x191 PUSH2 0x6DC JUMP JUMPDEST PUSH1 0x40 MLOAD PUSH2 0x19E SWAP2 SWAP1 PUSH2 0xCCD JUMP JUMPDEST PUSH1 0x40 MLOAD DUP1 SWAP2 SUB SWAP1 RETURN JUMPDEST PUSH2 0x1AF PUSH2 0x6E6 JUMP JUMPDEST PUSH1 0x40 MLOAD PUSH2 0x1BC SWAP2 SWAP1 PUSH2 0xCCD JUMP JUMPDEST PUSH1 0x40 MLOAD DUP1 SWAP2 SUB SWAP1 RETURN JUMPDEST PUSH2 0x1CD PUSH2 0x6EC JUMP JUMPDEST PUSH1 0x40 MLOAD PUSH2 0x1DA SWAP2 SWAP1 PUSH2 0xE19 JUMP JUMPDEST PUSH1 0x40 MLOAD DUP1 SWAP2 SUB SWAP1 RETURN JUMPDEST PUSH2 0x1EB PUSH2 0x712 JUMP JUMPDEST STOP JUMPDEST PUSH2 0x1F5 PUSH2 0x92C JUMP JUMPDEST PUSH1 0x40 MLOAD PUSH2 0x202 SWAP2 SWAP1 PUSH2 0xCCD JUMP JUMPDEST PUSH1 0x40 MLOAD DUP1 SWAP2 SUB SWAP1 RETURN JUMPDEST PUSH2 0x213 PUSH2 0x9AA JUMP JUMPDEST PUSH1 0x40 MLOAD PUSH2 0x220 SWAP2 SWAP1 PUSH2 0xCCD JUMP JUMPDEST PUSH1 0x40 MLOAD DUP1 SWAP2 SUB SWAP1 RETURN JUMPDEST PUSH2 0x231 PUSH2 0xA7F JUMP JUMPDEST PUSH1 0x40 MLOAD PUSH2 0x23E SWAP2 SWAP1 PUSH2 0xE19 JUMP JUMPDEST PUSH1 0x40 MLOAD DUP1 SWAP2 SUB SWAP1 RETURN JUMPDEST PUSH2 0x24F PUSH2 0xAA5 JUMP JUMPDEST PUSH1 0x40 MLOAD PUSH2 0x25C SWAP2 SWAP1 PUSH2 0xCCD JUMP JUMPDEST PUSH1 0x40 MLOAD DUP1 SWAP2 SUB SWAP1 RETURN JUMPDEST PUSH2 0x26D PUSH2 0xAAF JUMP JUMPDEST PUSH1 0x40 MLOAD PUSH2 0x27A SWAP2 SWAP1 PUSH2 0xCCD JUMP JUMPDEST PUSH1 0x40 MLOAD DUP1 SWAP2 SUB SWAP1 RETURN JUMPDEST PUSH2 0x28B PUSH2 0xAB5 JUMP JUMPDEST PUSH1 0x40 MLOAD PUSH2 0x298 SWAP2 SWAP1 PUSH2 0xE19 JUMP JUMPDEST PUSH1 0x40 MLOAD DUP1 SWAP2 SUB SWAP1 RETURN JUMPDEST PUSH2 0x2A9 PUSH2 0xAD9 JUMP JUMPDEST PUSH1 0x40 MLOAD PUSH2 0x2B6 SWAP2 SWAP1 PUSH2 0xE19 JUMP JUMPDEST PUSH1 0x40 MLOAD DUP1 SWAP2 SUB SWAP1 RETURN JUMPDEST PUSH2 0x2C7 PUSH2 0xAFF JUMP JUMPDEST PUSH1 0x40 MLOAD PUSH2 0x2D4 SWAP2 SWAP1 PUSH2 0xCCD JUMP JUMPDEST PUSH1 0x40 MLOAD DUP1 SWAP2 SUB SWAP1 RETURN JUMPDEST PUSH2 0x2E5 PUSH2 0xB05 JUMP JUMPDEST PUSH1 0x40 MLOAD PUSH2 0x2F2 SWAP2 SWAP1 PUSH2 0xE4F JUMP JUMPDEST PUSH1 0x40 MLOAD DUP1 SWAP2 SUB SWAP1 RETURN JUMPDEST PUSH2 0x303 PUSH2 0xB18 JUMP JUMPDEST PUSH1 0x40 MLOAD PUSH2 0x310 SWAP2 SWAP1 PUSH2 0xCCD JUMP JUMPDEST PUSH1 0x40 MLOAD DUP1 SWAP2 SUB SWAP1 RETURN JUMPDEST PUSH2 0x321 PUSH2 0xB1E JUMP JUMPDEST PUSH1 0x40 MLOAD PUSH2 0x32E SWAP2 SWAP1 PUSH2 0xCCD JUMP JUMPDEST PUSH1 0x40 MLOAD DUP1 SWAP2 SUB SWAP1 RETURN JUMPDEST PUSH2 0x33F PUSH2 0xB24 JUMP JUMPDEST PUSH1 0x40 MLOAD PUSH2 0x34C SWAP2 SWAP1 PUSH2 0xCCD JUMP JUMPDEST PUSH1 0x40 MLOAD DUP1 SWAP2 SUB SWAP1 RETURN JUMPDEST PUSH2 0x35D PUSH2 0xB2A JUMP JUMPDEST PUSH1 0x40 MLOAD PUSH2 0x36A SWAP2 SWAP1 PUSH2 0xCCD JUMP JUMPDEST PUSH1 0x40 MLOAD DUP1 SWAP2 SUB SWAP1 RETURN JUMPDEST PUSH1 0x5 SLOAD DUP2 JUMP JUMPDEST PUSH1 0x1 PUSH1 0x0 SWAP1 SLOAD SWAP1 PUSH2 0x100 EXP SWAP1 DIV PUSH20 0xFFFFFFFFFFFFFFFFFFFFFFFFFFFFFFFFFFFFFFFF AND PUSH20 0xFFFFFFFFFFFFFFFFFFFFFFFFFFFFFFFFFFFFFFFF AND CALLER PUSH20 0xFFFFFFFFFFFFFFFFFFFFFFFFFFFFFFFFFFFFFFFF AND EQ PUSH2 0x409 JUMPI PUSH1 0x40 MLOAD PUSH32 0x8C379A000000000000000000000000000000000000000000000000000000000 DUP2 MSTORE PUSH1 0x4 ADD PUSH2 0x400 SWAP1 PUSH2 0xEC7 JUMP JUMPDEST PUSH1 0x40 MLOAD DUP1 SWAP2 SUB SWAP1 REVERT JUMPDEST PUSH1 0x0 PUSH2 0x413 PUSH2 0x92C JUMP JUMPDEST SWAP1 POP DUP1 DUP3 PUSH1 0xB SLOAD PUSH2 0x424 SWAP2 SWAP1 PUSH2 0xF16 JUMP JUMPDEST GT ISZERO PUSH2 0x465 JUMPI PUSH1 0x40 MLOAD PUSH32 0x8C379A000000000000000000000000000000000000000000000000000000000 DUP2 MSTORE PUSH1 0x4 ADD PUSH2 0x45C SWAP1 PUSH2 0xF96 JUMP JUMPDEST PUSH1 0x40 MLOAD DUP1 SWAP2 SUB SWAP1 REVERT JUMPDEST PUSH1 0x0 PUSH1 0x6 PUSH1 0x0 SWAP1 SLOAD SWAP1 PUSH2 0x100 EXP SWAP1 DIV PUSH20 0xFFFFFFFFFFFFFFFFFFFFFFFFFFFFFFFFFFFFFFFF AND SWAP1 POP DUP1 PUSH20 0xFFFFFFFFFFFFFFFFFFFFFFFFFFFFFFFFFFFFFFFF AND PUSH4 0x23B872DD CALLER PUSH1 0x0 DUP1 SLOAD SWAP1 PUSH2 0x100 EXP SWAP1 DIV PUSH20 0xFFFFFFFFFFFFFFFFFFFFFFFFFFFFFFFFFFFFFFFF AND DUP7 PUSH1 0x40 MLOAD DUP5 PUSH4 0xFFFFFFFF AND PUSH1 0xE0 SHL DUP2 MSTORE PUSH1 0x4 ADD PUSH2 0x4E9 SWAP4 SWAP3 SWAP2 SWAP1 PUSH2 0xFB6 JUMP JUMPDEST PUSH1 0x20 PUSH1 0x40 MLOAD DUP1 DUP4 SUB DUP2 PUSH1 0x0 DUP8 GAS CALL ISZERO DUP1 ISZERO PUSH2 0x508 JUMPI RETURNDATASIZE PUSH1 0x0 DUP1 RETURNDATACOPY RETURNDATASIZE PUSH1 0x0 REVERT JUMPDEST POP POP POP POP PUSH1 0x40 MLOAD RETURNDATASIZE PUSH1 0x1F NOT PUSH1 0x1F DUP3 ADD AND DUP3 ADD DUP1 PUSH1 0x40 MSTORE POP DUP2 ADD SWAP1 PUSH2 0x52C SWAP2 SWAP1 PUSH2 0x1019 JUMP JUMPDEST PUSH2 0x56B JUMPI PUSH1 0x40 MLOAD PUSH32 0x8C379A000000000000000000000000000000000000000000000000000000000 DUP2 MSTORE PUSH1 0x4 ADD PUSH2 0x562 SWAP1 PUSH2 0x1092 JUMP JUMPDEST PUSH1 0x40 MLOAD DUP1 SWAP2 SUB SWAP1 REVERT JUMPDEST DUP3 PUSH1 0xB PUSH1 0x0 DUP3 DUP3 SLOAD PUSH2 0x57D SWAP2 SWAP1 PUSH2 0xF16 JUMP JUMPDEST SWAP3 POP POP DUP2 SWAP1 SSTORE POP CALLER PUSH20 0xFFFFFFFFFFFFFFFFFFFFFFFFFFFFFFFFFFFFFFFF AND PUSH32 0x1B8CD61ED43BEC7C6BDAD3A18FFEE613F99C853D16C50678D248D879E1B43438 DUP5 PUSH1 0xB SLOAD PUSH1 0x40 MLOAD PUSH2 0x5CE SWAP3 SWAP2 SWAP1 PUSH2 0x10B2 JUMP JUMPDEST PUSH1 0x40 MLOAD DUP1 SWAP2 SUB SWAP1 LOG2 PUSH1 0x1 PUSH1 0x2 DUP2 GT ISZERO PUSH2 0x5EA JUMPI PUSH2 0x5E9 PUSH2 0xD46 JUMP JUMPDEST JUMPDEST PUSH2 0x5F2 PUSH2 0x69B JUMP JUMPDEST PUSH1 0x2 DUP2 GT ISZERO PUSH2 0x604 JUMPI PUSH2 0x603 PUSH2 0xD46 JUMP JUMPDEST JUMPDEST SUB PUSH2 0x696 JUMPI ADDRESS PUSH20 0xFFFFFFFFFFFFFFFFFFFFFFFFFFFFFFFFFFFFFFFF AND PUSH32 0x927542D877F6EF1FB1779CB252A65AAA543F48E6D9ABC25433C57E19CECCF61D PUSH1 0x40 MLOAD PUSH1 0x40 MLOAD DUP1 SWAP2 SUB SWAP1 LOG2 PUSH1 0x0 PUSH2 0x656 PUSH2 0x9AA JUMP JUMPDEST GT ISZERO PUSH2 0x68A JUMPI PUSH2 0x685 PUSH32 0xFFFFFFFFFFFFFFFFFFFFFFFFFFFFFFFFFFFFFFFFFFFFFFFFFFFFFFFFFFFFFFFF PUSH2 0xB30 JUMP JUMPDEST PUSH2 0x695 JUMP JUMPDEST PUSH2 0x694 PUSH1 0x1 PUSH2 0xB30 JUMP JUMPDEST JUMPDEST JUMPDEST POP POP POP JUMP JUMPDEST PUSH1 0x0 PUSH1 0xC PUSH1 0x0 SWAP1 SLOAD SWAP1 PUSH2 0x100 EXP SWAP1 DIV PUSH1 0xFF AND ISZERO PUSH2 0x6BB JUMPI PUSH1 0x2 SWAP1 POP PUSH2 0x6D9 JUMP JUMPDEST PUSH2 0x6C3 PUSH2 0x92C JUMP JUMPDEST PUSH1 0xB SLOAD LT PUSH2 0x6D4 JUMPI PUSH1 0x1 SWAP1 POP PUSH2 0x6D9 JUMP JUMPDEST PUSH1 0x0 SWAP1 POP JUMPDEST SWAP1 JUMP JUMPDEST PUSH1 0x0 PUSH1 0xB SLOAD SWAP1 POP SWAP1 JUMP JUMPDEST PUSH1 0x4 SLOAD DUP2 JUMP JUMPDEST PUSH1 0x1 PUSH1 0x0 SWAP1 SLOAD SWAP1 PUSH2 0x100 EXP SWAP1 DIV PUSH20 0xFFFFFFFFFFFFFFFFFFFFFFFFFFFFFFFFFFFFFFFF AND DUP2 JUMP JUMPDEST PUSH1 0x0 DUP1 SLOAD SWAP1 PUSH2 0x100 EXP SWAP1 DIV PUSH20 0xFFFFFFFFFFFFFFFFFFFFFFFFFFFFFFFFFFFFFFFF AND PUSH20 0xFFFFFFFFFFFFFFFFFFFFFFFFFFFFFFFFFFFFFFFF AND CALLER PUSH20 0xFFFFFFFFFFFFFFFFFFFFFFFFFFFFFFFFFFFFFFFF AND EQ PUSH2 0x7A0 JUMPI PUSH1 0x40 MLOAD PUSH32 0x8C379A000000000000000000000000000000000000000000000000000000000 DUP2 MSTORE PUSH1 0x4 ADD PUSH2 0x797 SWAP1 PUSH2 0x1127 JUMP JUMPDEST PUSH1 0x40 MLOAD DUP1 SWAP2 SUB SWAP1 REVERT JUMPDEST PUSH1 0x0 PUSH1 0x2 DUP2 GT ISZERO PUSH2 0x7B4 JUMPI PUSH2 0x7B3 PUSH2 0xD46 JUMP JUMPDEST JUMPDEST PUSH2 0x7BC PUSH2 0x69B JUMP JUMPDEST PUSH1 0x2 DUP2 GT ISZERO PUSH2 0x7CE JUMPI PUSH2 0x7CD PUSH2 0xD46 JUMP JUMPDEST JUMPDEST EQ PUSH2 0x80E JUMPI PUSH1 0x40 MLOAD PUSH32 0x8C379A000000000000000000000000000000000000000000000000000000000 DUP2 MSTORE PUSH1 0x4 ADD PUSH2 0x805 SWAP1 PUSH2 0x11B9 JUMP JUMPDEST PUSH1 0x40 MLOAD DUP1 SWAP2 SUB SWAP1 REVERT JUMPDEST PUSH1 0x9 SLOAD PUSH1 0x8 SLOAD PUSH2 0x81E SWAP2 SWAP1 PUSH2 0x11D9 JUMP JUMPDEST PUSH1 0xA SLOAD PUSH2 0x82B SWAP2 SWAP1 PUSH2 0xF16 JUMP JUMPDEST TIMESTAMP GT PUSH2 0x86C JUMPI PUSH1 0x40 MLOAD PUSH32 0x8C379A000000000000000000000000000000000000000000000000000000000 DUP2 MSTORE PUSH1 0x4 ADD PUSH2 0x863 SWAP1 PUSH2 0x1267 JUMP JUMPDEST PUSH1 0x40 MLOAD DUP1 SWAP2 SUB SWAP1 REVERT JUMPDEST PUSH1 0x1 PUSH1 0xC PUSH1 0x0 PUSH2 0x100 EXP DUP2 SLOAD DUP2 PUSH1 0xFF MUL NOT AND SWAP1 DUP4 ISZERO ISZERO MUL OR SWAP1 SSTORE POP PUSH1 0x0 DUP1 SLOAD SWAP1 PUSH2 0x100 EXP SWAP1 DIV PUSH20 0xFFFFFFFFFFFFFFFFFFFFFFFFFFFFFFFFFFFFFFFF AND PUSH20 0xFFFFFFFFFFFFFFFFFFFFFFFFFFFFFFFFFFFFFFFF AND ADDRESS PUSH20 0xFFFFFFFFFFFFFFFFFFFFFFFFFFFFFFFFFFFFFFFF AND PUSH32 0xA6E9ACF469D627E8F02EEC880995BB6F37ECADEA71C528F0E35081BD77E91897 PUSH1 0x40 MLOAD PUSH1 0x40 MLOAD DUP1 SWAP2 SUB SWAP1 LOG3 PUSH2 0x92A PUSH32 0xFFFFFFFFFFFFFFFFFFFFFFFFFFFFFFFFFFFFFFFFFFFFFFFFFFFFFFFFFFFFFFFE PUSH2 0xB30 JUMP JUMPDEST JUMP JUMPDEST PUSH1 0x0 PUSH1 0x64 PUSH1 0x3 SLOAD PUSH1 0x2 SLOAD PUSH2 0x940 SWAP2 SWAP1 PUSH2 0x11D9 JUMP JUMPDEST PUSH2 0x94A SWAP2 SWAP1 PUSH2 0x12B6 JUMP JUMPDEST PUSH1 0x2 SLOAD PUSH2 0x957 SWAP2 SWAP1 PUSH2 0xF16 JUMP JUMPDEST SWAP1 POP PUSH1 0x0 PUSH2 0x963 PUSH2 0x9AA JUMP JUMPDEST SWAP1 POP PUSH1 0x8 SLOAD PUSH1 0x64 PUSH2 0x974 SWAP2 SWAP1 PUSH2 0x11D9 JUMP JUMPDEST DUP2 PUSH1 0x5 SLOAD PUSH1 0x2 SLOAD PUSH2 0x985 SWAP2 SWAP1 PUSH2 0x11D9 JUMP JUMPDEST PUSH2 0x98F SWAP2 SWAP1 PUSH2 0x11D9 JUMP JUMPDEST PUSH2 0x999 SWAP2 SWAP1 PUSH2 0x12B6 JUMP JUMPDEST DUP3 PUSH2 0x9A4 SWAP2 SWAP1 PUSH2 0xF16 JUMP JUMPDEST SWAP2 POP POP SWAP1 JUMP JUMPDEST PUSH1 0x0 DUP1 PUSH1 0x9 SLOAD PUSH1 0xA SLOAD TIMESTAMP PUSH2 0x9BE SWAP2 SWAP1 PUSH2 0x12E7 JUMP JUMPDEST PUSH2 0x9C8 SWAP2 SWAP1 PUSH2 0x12B6 JUMP JUMPDEST SWAP1 POP PUSH1 0x8 SLOAD DUP2 GT ISZERO PUSH2 0x9DA JUMPI PUSH1 0x8 SLOAD SWAP1 POP JUMPDEST PUSH1 0x0 PUSH1 0x8 SLOAD DUP3 PUSH1 0x64 PUSH1 0x3 SLOAD PUSH1 0x2 SLOAD PUSH2 0x9F2 SWAP2 SWAP1 PUSH2 0x11D9 JUMP JUMPDEST PUSH2 0x9FC SWAP2 SWAP1 PUSH2 0x12B6 JUMP JUMPDEST PUSH1 0x2 SLOAD PUSH2 0xA09 SWAP2 SWAP1 PUSH2 0xF16 JUMP JUMPDEST PUSH2 0xA13 SWAP2 SWAP1 PUSH2 0x11D9 JUMP JUMPDEST PUSH2 0xA1D SWAP2 SWAP1 PUSH2 0x12B6 JUMP JUMPDEST SWAP1 POP PUSH1 0xB SLOAD DUP2 GT ISZERO PUSH2 0xA7A JUMPI PUSH1 0x64 PUSH1 0x3 SLOAD PUSH1 0x2 SLOAD PUSH2 0xA3B SWAP2 SWAP1 PUSH2 0x11D9 JUMP JUMPDEST PUSH2 0xA45 SWAP2 SWAP1 PUSH2 0x12B6 JUMP JUMPDEST PUSH1 0x2 SLOAD PUSH2 0xA52 SWAP2 SWAP1 PUSH2 0xF16 JUMP JUMPDEST PUSH1 0x8 SLOAD PUSH1 0xB SLOAD PUSH2 0xA62 SWAP2 SWAP1 PUSH2 0x11D9 JUMP JUMPDEST PUSH2 0xA6C SWAP2 SWAP1 PUSH2 0x12B6 JUMP JUMPDEST DUP3 PUSH2 0xA77 SWAP2 SWAP1 PUSH2 0x12E7 JUMP JUMPDEST SWAP3 POP JUMPDEST POP POP SWAP1 JUMP JUMPDEST PUSH1 0x6 PUSH1 0x0 SWAP1 SLOAD SWAP1 PUSH2 0x100 EXP SWAP1 DIV PUSH20 0xFFFFFFFFFFFFFFFFFFFFFFFFFFFFFFFFFFFFFFFF AND DUP2 JUMP JUMPDEST PUSH1 0x0 PUSH1 0x4 SLOAD SWAP1 POP SWAP1 JUMP JUMPDEST PUSH1 0x2 SLOAD DUP2 JUMP JUMPDEST PUSH1 0x0 DUP1 SLOAD SWAP1 PUSH2 0x100 EXP SWAP1 DIV PUSH20 0xFFFFFFFFFFFFFFFFFFFFFFFFFFFFFFFFFFFFFFFF AND DUP2 JUMP JUMPDEST PUSH1 0x7 PUSH1 0x0 SWAP1 SLOAD SWAP1 PUSH2 0x100 EXP SWAP1 DIV PUSH20 0xFFFFFFFFFFFFFFFFFFFFFFFFFFFFFFFFFFFFFFFF AND DUP2 JUMP JUMPDEST PUSH1 0x8 SLOAD DUP2 JUMP JUMPDEST PUSH1 0xC PUSH1 0x0 SWAP1 SLOAD SWAP1 PUSH2 0x100 EXP SWAP1 DIV PUSH1 0xFF AND DUP2 JUMP JUMPDEST PUSH1 0x3 SLOAD DUP2 JUMP JUMPDEST PUSH1 0x9 SLOAD DUP2 JUMP JUMPDEST PUSH1 0xA SLOAD DUP2 JUMP JUMPDEST PUSH1 0xB SLOAD DUP2 JUMP JUMPDEST PUSH1 0x0 PUSH1 0x7 PUSH1 0x0 SWAP1 SLOAD SWAP1 PUSH2 0x100 EXP SWAP1 DIV PUSH20 0xFFFFFFFFFFFFFFFFFFFFFFFFFFFFFFFFFFFFFFFF AND PUSH20 0xFFFFFFFFFFFFFFFFFFFFFFFFFFFFFFFFFFFFFFFF AND PUSH1 0x1 PUSH1 0x0 SWAP1 SLOAD SWAP1 PUSH2 0x100 EXP SWAP1 DIV PUSH20 0xFFFFFFFFFFFFFFFFFFFFFFFFFFFFFFFFFFFFFFFF AND DUP4 PUSH1 0x40 MLOAD PUSH1 0x24 ADD PUSH2 0xBA0 SWAP3 SWAP2 SWAP1 PUSH2 0x1334 JUMP JUMPDEST PUSH1 0x40 MLOAD PUSH1 0x20 DUP2 DUP4 SUB SUB DUP2 MSTORE SWAP1 PUSH1 0x40 MSTORE PUSH32 0xE766784D00000000000000000000000000000000000000000000000000000000 PUSH28 0xFFFFFFFFFFFFFFFFFFFFFFFFFFFFFFFFFFFFFFFFFFFFFFFFFFFFFFFF NOT AND PUSH1 0x20 DUP3 ADD DUP1 MLOAD PUSH28 0xFFFFFFFFFFFFFFFFFFFFFFFFFFFFFFFFFFFFFFFFFFFFFFFFFFFFFFFF DUP4 DUP2 DUP4 AND OR DUP4 MSTORE POP POP POP POP PUSH1 0x40 MLOAD PUSH2 0xC2A SWAP2 SWAP1 PUSH2 0x13CE JUMP JUMPDEST PUSH1 0x0 PUSH1 0x40 MLOAD DUP1 DUP4 SUB DUP2 PUSH1 0x0 DUP7 GAS CALL SWAP2 POP POP RETURNDATASIZE DUP1 PUSH1 0x0 DUP2 EQ PUSH2 0xC67 JUMPI PUSH1 0x40 MLOAD SWAP2 POP PUSH1 0x1F NOT PUSH1 0x3F RETURNDATASIZE ADD AND DUP3 ADD PUSH1 0x40 MSTORE RETURNDATASIZE DUP3 MSTORE RETURNDATASIZE PUSH1 0x0 PUSH1 0x20 DUP5 ADD RETURNDATACOPY PUSH2 0xC6C JUMP JUMPDEST PUSH1 0x60 SWAP2 POP JUMPDEST POP POP SWAP1 POP DUP1 PUSH2 0xCB0 JUMPI PUSH1 0x40 MLOAD PUSH32 0x8C379A000000000000000000000000000000000000000000000000000000000 DUP2 MSTORE PUSH1 0x4 ADD PUSH2 0xCA7 SWAP1 PUSH2 0x1431 JUMP JUMPDEST PUSH1 0x40 MLOAD DUP1 SWAP2 SUB SWAP1 REVERT JUMPDEST POP POP JUMP JUMPDEST PUSH1 0x0 DUP2 SWAP1 POP SWAP2 SWAP1 POP JUMP JUMPDEST PUSH2 0xCC7 DUP2 PUSH2 0xCB4 JUMP JUMPDEST DUP3 MSTORE POP POP JUMP JUMPDEST PUSH1 0x0 PUSH1 0x20 DUP3 ADD SWAP1 POP PUSH2 0xCE2 PUSH1 0x0 DUP4 ADD DUP5 PUSH2 0xCBE JUMP JUMPDEST SWAP3 SWAP2 POP POP JUMP JUMPDEST PUSH1 0x0 DUP1 REVERT JUMPDEST PUSH2 0xCF6 DUP2 PUSH2 0xCB4 JUMP JUMPDEST DUP2 EQ PUSH2 0xD01 JUMPI PUSH1 0x0 DUP1 REVERT JUMPDEST POP JUMP JUMPDEST PUSH1 0x0 DUP2 CALLDATALOAD SWAP1 POP PUSH2 0xD13 DUP2 PUSH2 0xCED JUMP JUMPDEST SWAP3 SWAP2 POP POP JUMP JUMPDEST PUSH1 0x0 PUSH1 0x20 DUP3 DUP5 SUB SLT ISZERO PUSH2 0xD2F JUMPI PUSH2 0xD2E PUSH2 0xCE8 JUMP JUMPDEST JUMPDEST PUSH1 0x0 PUSH2 0xD3D DUP5 DUP3 DUP6 ADD PUSH2 0xD04 JUMP JUMPDEST SWAP2 POP POP SWAP3 SWAP2 POP POP JUMP JUMPDEST PUSH32 0x4E487B7100000000000000000000000000000000000000000000000000000000 PUSH1 0x0 MSTORE PUSH1 0x21 PUSH1 0x4 MSTORE PUSH1 0x24 PUSH1 0x0 REVERT JUMPDEST PUSH1 0x3 DUP2 LT PUSH2 0xD86 JUMPI PUSH2 0xD85 PUSH2 0xD46 JUMP JUMPDEST JUMPDEST POP JUMP JUMPDEST PUSH1 0x0 DUP2 SWAP1 POP PUSH2 0xD97 DUP3 PUSH2 0xD75 JUMP JUMPDEST SWAP2 SWAP1 POP JUMP JUMPDEST PUSH1 0x0 PUSH2 0xDA7 DUP3 PUSH2 0xD89 JUMP JUMPDEST SWAP1 POP SWAP2 SWAP1 POP JUMP JUMPDEST PUSH2 0xDB7 DUP2 PUSH2 0xD9C JUMP JUMPDEST DUP3 MSTORE POP POP JUMP JUMPDEST PUSH1 0x0 PUSH1 0x20 DUP3 ADD SWAP1 POP PUSH2 0xDD2 PUSH1 0x0 DUP4 ADD DUP5 PUSH2 0xDAE JUMP JUMPDEST SWAP3 SWAP2 POP POP JUMP JUMPDEST PUSH1 0x0 PUSH20 0xFFFFFFFFFFFFFFFFFFFFFFFFFFFFFFFFFFFFFFFF DUP3 AND SWAP1 POP SWAP2 SWAP1 POP JUMP JUMPDEST PUSH1 0x0 PUSH2 0xE03 DUP3 PUSH2 0xDD8 JUMP JUMPDEST SWAP1 POP SWAP2 SWAP1 POP JUMP JUMPDEST PUSH2 0xE13 DUP2 PUSH2 0xDF8 JUMP JUMPDEST DUP3 MSTORE POP POP JUMP JUMPDEST PUSH1 0x0 PUSH1 0x20 DUP3 ADD SWAP1 POP PUSH2 0xE2E PUSH1 0x0 DUP4 ADD DUP5 PUSH2 0xE0A JUMP JUMPDEST SWAP3 SWAP2 POP POP JUMP JUMPDEST PUSH1 0x0 DUP2 ISZERO ISZERO SWAP1 POP SWAP2 SWAP1 POP JUMP JUMPDEST PUSH2 0xE49 DUP2 PUSH2 0xE34 JUMP JUMPDEST DUP3 MSTORE POP POP JUMP JUMPDEST PUSH1 0x0 PUSH1 0x20 DUP3 ADD SWAP1 POP PUSH2 0xE64 PUSH1 0x0 DUP4 ADD DUP5 PUSH2 0xE40 JUMP JUMPDEST SWAP3 SWAP2 POP POP JUMP JUMPDEST PUSH1 0x0 DUP3 DUP3 MSTORE PUSH1 0x20 DUP3 ADD SWAP1 POP SWAP3 SWAP2 POP POP JUMP JUMPDEST PUSH32 0x4F6E6C7920626F72726F7765722063616E207265706179000000000000000000 PUSH1 0x0 DUP3 ADD MSTORE POP JUMP JUMPDEST PUSH1 0x0 PUSH2 0xEB1 PUSH1 0x17 DUP4 PUSH2 0xE6A JUMP JUMPDEST SWAP2 POP PUSH2 0xEBC DUP3 PUSH2 0xE7B JUMP JUMPDEST PUSH1 0x20 DUP3 ADD SWAP1 POP SWAP2 SWAP1 POP JUMP JUMPDEST PUSH1 0x0 PUSH1 0x20 DUP3 ADD SWAP1 POP DUP2 DUP2 SUB PUSH1 0x0 DUP4 ADD MSTORE PUSH2 0xEE0 DUP2 PUSH2 0xEA4 JUMP JUMPDEST SWAP1 POP SWAP2 SWAP1 POP JUMP JUMPDEST PUSH32 0x4E487B7100000000000000000000000000000000000000000000000000000000 PUSH1 0x0 MSTORE PUSH1 0x11 PUSH1 0x4 MSTORE PUSH1 0x24 PUSH1 0x0 REVERT JUMPDEST PUSH1 0x0 PUSH2 0xF21 DUP3 PUSH2 0xCB4 JUMP JUMPDEST SWAP2 POP PUSH2 0xF2C DUP4 PUSH2 0xCB4 JUMP JUMPDEST SWAP3 POP DUP3 DUP3 ADD SWAP1 POP DUP1 DUP3 GT ISZERO PUSH2 0xF44 JUMPI PUSH2 0xF43 PUSH2 0xEE7 JUMP JUMPDEST JUMPDEST SWAP3 SWAP2 POP POP JUMP JUMPDEST PUSH32 0x52657061796D656E74206578636565647320746F74616C206F77656400000000 PUSH1 0x0 DUP3 ADD MSTORE POP JUMP JUMPDEST PUSH1 0x0 PUSH2 0xF80 PUSH1 0x1C DUP4 PUSH2 0xE6A JUMP JUMPDEST SWAP2 POP PUSH2 0xF8B DUP3 PUSH2 0xF4A JUMP JUMPDEST PUSH1 0x20 DUP3 ADD SWAP1 POP SWAP2 SWAP1 POP JUMP JUMPDEST PUSH1 0x0 PUSH1 0x20 DUP3 ADD SWAP1 POP DUP2 DUP2 SUB PUSH1 0x0 DUP4 ADD MSTORE PUSH2 0xFAF DUP2 PUSH2 0xF73 JUMP JUMPDEST SWAP1 POP SWAP2 SWAP1 POP JUMP JUMPDEST PUSH1 0x0 PUSH1 0x60 DUP3 ADD SWAP1 POP PUSH2 0xFCB PUSH1 0x0 DUP4 ADD DUP7 PUSH2 0xE0A JUMP JUMPDEST PUSH2 0xFD8 PUSH1 0x20 DUP4 ADD DUP6 PUSH2 0xE0A JUMP JUMPDEST PUSH2 0xFE5 PUSH1 0x40 DUP4 ADD DUP5 PUSH2 0xCBE JUMP JUMPDEST SWAP5 SWAP4 POP POP POP POP JUMP JUMPDEST PUSH2 0xFF6 DUP2 PUSH2 0xE34 JUMP JUMPDEST DUP2 EQ PUSH2 0x1001 JUMPI PUSH1 0x0 DUP1 REVERT JUMPDEST POP JUMP JUMPDEST PUSH1 0x0 DUP2 MLOAD SWAP1 POP PUSH2 0x1013 DUP2 PUSH2 0xFED JUMP JUMPDEST SWAP3 SWAP2 POP POP JUMP JUMPDEST PUSH1 0x0 PUSH1 0x20 DUP3 DUP5 SUB SLT ISZERO PUSH2 0x102F JUMPI PUSH2 0x102E PUSH2 0xCE8 JUMP JUMPDEST JUMPDEST PUSH1 0x0 PUSH2 0x103D DUP5 DUP3 DUP6 ADD PUSH2 0x1004 JUMP JUMPDEST SWAP2 POP POP SWAP3 SWAP2 POP POP JUMP JUMPDEST PUSH32 0x546F6B656E207472616E73666572206661696C65640000000000000000000000 PUSH1 0x0 DUP3 ADD MSTORE POP JUMP JUMPDEST PUSH1 0x0 PUSH2 0x107C PUSH1 0x15 DUP4 PUSH2 0xE6A JUMP JUMPDEST SWAP2 POP PUSH2 0x1087 DUP3 PUSH2 0x1046 JUMP JUMPDEST PUSH1 0x20 DUP3 ADD SWAP1 POP SWAP2 SWAP1 POP JUMP JUMPDEST PUSH1 0x0 PUSH1 0x20 DUP3 ADD SWAP1 POP DUP2 DUP2 SUB PUSH1 0x0 DUP4 ADD MSTORE PUSH2 0x10AB DUP2 PUSH2 0x106F JUMP JUMPDEST SWAP1 POP SWAP2 SWAP1 POP JUMP JUMPDEST PUSH1 0x0 PUSH1 0x40 DUP3 ADD SWAP1 POP PUSH2 0x10C7 PUSH1 0x0 DUP4 ADD DUP6 PUSH2 0xCBE JUMP JUMPDEST PUSH2 0x10D4 PUSH1 0x20 DUP4 ADD DUP5 PUSH2 0xCBE JUMP JUMPDEST SWAP4 SWAP3 POP POP POP JUMP JUMPDEST PUSH32 0x4F6E6C79206C656E6465722063616E206D61726B2064656661756C7400000000 PUSH1 0x0 DUP3 ADD MSTORE POP JUMP JUMPDEST PUSH1 0x0 PUSH2 0x1111 PUSH1 0x1C DUP4 PUSH2 0xE6A JUMP JUMPDEST SWAP2 POP PUSH2 0x111C DUP3 PUSH2 0x10DB JUMP JUMPDEST PUSH1 0x20 DUP3 ADD SWAP1 POP SWAP2 SWAP1 POP JUMP JUMPDEST PUSH1 0x0 PUSH1 0x20 DUP3 ADD SWAP1 POP DUP2 DUP2 SUB PUSH1 0x0 DUP4 ADD MSTORE PUSH2 0x1140 DUP2 PUSH2 0x1104 JUMP JUMPDEST SWAP1 POP SWAP2 SWAP1 POP JUMP JUMPDEST PUSH32 0x4C6F616E206E6F7420616374697665206F7220616C72656164792068616E646C PUSH1 0x0 DUP3 ADD MSTORE PUSH32 0x6564000000000000000000000000000000000000000000000000000000000000 PUSH1 0x20 DUP3 ADD MSTORE POP JUMP JUMPDEST PUSH1 0x0 PUSH2 0x11A3 PUSH1 0x22 DUP4 PUSH2 0xE6A JUMP JUMPDEST SWAP2 POP PUSH2 0x11AE DUP3 PUSH2 0x1147 JUMP JUMPDEST PUSH1 0x40 DUP3 ADD SWAP1 POP SWAP2 SWAP1 POP JUMP JUMPDEST PUSH1 0x0 PUSH1 0x20 DUP3 ADD SWAP1 POP DUP2 DUP2 SUB PUSH1 0x0 DUP4 ADD MSTORE PUSH2 0x11D2 DUP2 PUSH2 0x1196 JUMP JUMPDEST SWAP1 POP SWAP2 SWAP1 POP JUMP JUMPDEST PUSH1 0x0 PUSH2 0x11E4 DUP3 PUSH2 0xCB4 JUMP JUMPDEST SWAP2 POP PUSH2 0x11EF DUP4 PUSH2 0xCB4 JUMP JUMPDEST SWAP3 POP DUP3 DUP3 MUL PUSH2 0x11FD DUP2 PUSH2 0xCB4 JUMP JUMPDEST SWAP2 POP DUP3 DUP3 DIV DUP5 EQ DUP4 ISZERO OR PUSH2 0x1214 JUMPI PUSH2 0x1213 PUSH2 0xEE7 JUMP JUMPDEST JUMPDEST POP SWAP3 SWAP2 POP POP JUMP JUMPDEST PUSH32 0x4C6F616E206973206E6F74206F76657264756520796574000000000000000000 PUSH1 0x0 DUP3 ADD MSTORE POP JUMP JUMPDEST PUSH1 0x0 PUSH2 0x1251 PUSH1 0x17 DUP4 PUSH2 0xE6A JUMP JUMPDEST SWAP2 POP PUSH2 0x125C DUP3 PUSH2 0x121B JUMP JUMPDEST PUSH1 0x20 DUP3 ADD SWAP1 POP SWAP2 SWAP1 POP JUMP JUMPDEST PUSH1 0x0 PUSH1 0x20 DUP3 ADD SWAP1 POP DUP2 DUP2 SUB PUSH1 0x0 DUP4 ADD MSTORE PUSH2 0x1280 DUP2 PUSH2 0x1244 JUMP JUMPDEST SWAP1 POP SWAP2 SWAP1 POP JUMP JUMPDEST PUSH32 0x4E487B7100000000000000000000000000000000000000000000000000000000 PUSH1 0x0 MSTORE PUSH1 0x12 PUSH1 0x4 MSTORE PUSH1 0x24 PUSH1 0x0 REVERT JUMPDEST PUSH1 0x0 PUSH2 0x12C1 DUP3 PUSH2 0xCB4 JUMP JUMPDEST SWAP2 POP PUSH2 0x12CC DUP4 PUSH2 0xCB4 JUMP JUMPDEST SWAP3 POP DUP3 PUSH2 0x12DC JUMPI PUSH2 0x12DB PUSH2 0x1287 JUMP JUMPDEST JUMPDEST DUP3 DUP3 DIV SWAP1 POP SWAP3 SWAP2 POP POP JUMP JUMPDEST PUSH1 0x0 PUSH2 0x12F2 DUP3 PUSH2 0xCB4 JUMP JUMPDEST SWAP2 POP PUSH2 0x12FD DUP4 PUSH2 0xCB4 JUMP JUMPDEST SWAP3 POP DUP3 DUP3 SUB SWAP1 POP DUP2 DUP2 GT ISZERO PUSH2 0x1315 JUMPI PUSH2 0x1314 PUSH2 0xEE7 JUMP JUMPDEST JUMPDEST SWAP3 SWAP2 POP POP JUMP JUMPDEST PUSH1 0x0 DUP2 SWAP1 POP SWAP2 SWAP1 POP JUMP JUMPDEST PUSH2 0x132E DUP2 PUSH2 0x131B JUMP JUMPDEST DUP3 MSTORE POP POP JUMP JUMPDEST PUSH1 0x0 PUSH1 0x40 DUP3 ADD SWAP1 POP PUSH2 0x1349 PUSH1 0x0 DUP4 ADD DUP6 PUSH2 0xE0A JUMP JUMPDEST PUSH2 0x1356 PUSH1 0x20 DUP4 ADD DUP5 PUSH2 0x1325 JUMP JUMPDEST SWAP4 SWAP3 POP POP POP JUMP JUMPDEST PUSH1 0x0 DUP2 MLOAD SWAP1 POP SWAP2 SWAP1 POP JUMP JUMPDEST PUSH1 0x0 DUP2 SWAP1 POP SWAP3 SWAP2 POP POP JUMP JUMPDEST PUSH1 0x0 JUMPDEST DUP4 DUP2 LT ISZERO PUSH2 0x1391 JUMPI DUP1 DUP3 ADD MLOAD DUP2 DUP5 ADD MSTORE PUSH1 0x20 DUP2 ADD SWAP1 POP PUSH2 0x1376 JUMP JUMPDEST PUSH1 0x0 DUP5 DUP5 ADD MSTORE POP POP POP POP JUMP JUMPDEST PUSH1 0x0 PUSH2 0x13A8 DUP3 PUSH2 0x135D JUMP JUMPDEST PUSH2 0x13B2 DUP2 DUP6 PUSH2 0x1368 JUMP JUMPDEST SWAP4 POP PUSH2 0x13C2 DUP2 DUP6 PUSH1 0x20 DUP7 ADD PUSH2 0x1373 JUMP JUMPDEST DUP1 DUP5 ADD SWAP2 POP POP SWAP3 SWAP2 POP POP JUMP JUMPDEST PUSH1 0x0 PUSH2 0x13DA DUP3 DUP5 PUSH2 0x139D JUMP JUMPDEST SWAP2 POP DUP2 SWAP1 POP SWAP3 SWAP2 POP POP JUMP JUMPDEST PUSH32 0x54727573742073636F726520757064617465206661696C656400000000000000 PUSH1 0x0 DUP3 ADD MSTORE POP JUMP JUMPDEST PUSH1 0x0 PUSH2 0x141B PUSH1 0x19 DUP4 PUSH2 0xE6A JUMP JUMPDEST SWAP2 POP PUSH2 0x1426 DUP3 PUSH2 0x13E5 JUMP JUMPDEST PUSH1 0x20 DUP3 ADD SWAP1 POP SWAP2 SWAP1 POP JUMP JUMPDEST PUSH1 0x0 PUSH1 0x20 DUP3 ADD SWAP1 POP DUP2 DUP2 SUB PUSH1 0x0 DUP4 ADD MSTORE PUSH2 0x144A DUP2 PUSH2 0x140E JUMP JUMPDEST SWAP1 POP SWAP2 SWAP1 POP JUMP INVALID LOG2 PUSH5 0x6970667358 0x22 SLT KECCAK256 0xD0 ADDMOD 0xE4 0xBD CHAINID 0xA6 PUSH23 0x9E5A09963C21D301BA4F93A4A227DEB4C148D64EFE9E9 CALLDATALOAD ISZERO PUSH5 0x736F6C6343 STOP ADDMOD EQ STOP CALLER LOG2 PUSH5 0x6970667358 0x22 SLT KECCAK256 0xE9 JUMPI 0xBA 0xE3 0xE2 0xC7 0xBC SWAP4 0xFC DELEGATECALL 0xAE GASLIMIT DUP7 0xED POP EXTCODEHASH 0xF8 0xE1 PUSH11 0x75FD02F9557864426A0169 DUP12 ADDMOD PUSH5 0x736F6C6343 STOP ADDMOD EQ STOP CALLER "},"methodIdentifiers":{"createLoan(address,uint256,address,uint256,uint256,uint256,uint256)":"a64e04cd","getBorrowerLoans(address)":"eee8b7ff","getBorrowerLoansByStatus(address,uint8)":"d9d39202","getBorrowerLoansCount(address)":"fe7f8c3a","getLenderLoans(address)":"eeeb0c17","getLenderLoansByStatus(address,uint8)":"e4444689","getLenderLoansCount(address)":"eb52927b","getLoans()":"aa4a8711","getLoansCount()":"0c97200a","getTrustScore(address)":"5e09eea1","isValidLoan(address)":"19965725","loans(uint256)":"e1ec3c68","loansByBorrower(address,uint256)":"4b7f1e5a","loansByLender(address,uint256)":"6becc9f3","trustScores(address)":"12df0fc4","updateTrustScore(address,int256)":"e766784d"}}}}}