{"contracts/LoanAgreement.sol":{"LoanAgreement":{"abi":[{"inputs":[{"internalType":"address","name":"_lender","type":"address"},{"internalType":"address","name":"_borrower","type":"address"},{"internalType":"uint256","name":"_amount","type":"uint256"},{"internalType":"address","name":"_token","type":"address"},{"internalType":"uint256","name":"_duration","type":"uint256"},{"internalType":"uint256","name":"_interestPercent","type":"uint256"},{"internalType":"uint256","name":"_lateFeePercent","type":"uint256"},{"internalType":"uint256","name":"_installments","type":"uint256"},{"internalType":"address","name":"_factory","type":"address"}],"stateMutability":"nonpayable","type":"constructor"},{"inputs":[{"internalType":"address","name":"token","type":"address"}],"name":"SafeERC20FailedOperation","type":"error"},{"anonymous":false,"inputs":[{"indexed":false,"internalType":"uint256","name":"allowance","type":"uint256"},{"indexed":false,"internalType":"uint256","name":"borrowerBalance","type":"uint256"},{"indexed":false,"internalType":"uint256","name":"totalOwed","type":"uint256"}],"name":"DebugRepayment","type":"event"},{"anonymous":false,"inputs":[{"indexed":true,"internalType":"address","name":"loan","type":"address"},{"indexed":true,"internalType":"address","name":"lender","type":"address"}],"name":"DefaultMarked","type":"event"},{"anonymous":false,"inputs":[{"indexed":true,"internalType":"address","name":"loan","type":"address"}],"name":"FullyRepaid","type":"event"},{"anonymous":false,"inputs":[{"indexed":true,"internalType":"address","name":"borrower","type":"address"},{"indexed":false,"internalType":"uint256","name":"installmentNumber","type":"uint256"},{"indexed":false,"internalType":"uint256","name":"lateFeeAmount","type":"uint256"},{"indexed":false,"internalType":"uint256","name":"totalAccumulatedFees","type":"uint256"}],"name":"LateFeeAccumulated","type":"event"},{"anonymous":false,"inputs":[{"indexed":true,"internalType":"address","name":"borrower","type":"address"},{"indexed":false,"internalType":"uint256","name":"installmentNumber","type":"uint256"},{"indexed":false,"internalType":"int256","name":"trustScoreChange","type":"int256"}],"name":"LatePaymentPenalty","type":"event"},{"anonymous":false,"inputs":[{"indexed":true,"internalType":"address","name":"borrower","type":"address"},{"indexed":false,"internalType":"uint256","name":"refundAmount","type":"uint256"}],"name":"RefundIssued","type":"event"},{"anonymous":false,"inputs":[{"indexed":true,"internalType":"address","name":"payer","type":"address"},{"indexed":false,"internalType":"uint256","name":"amount","type":"uint256"},{"indexed":false,"internalType":"uint256","name":"totalRepaid","type":"uint256"}],"name":"Repaid","type":"event"},{"inputs":[],"name":"accumulatedLateFees","outputs":[{"internalType":"uint256","name":"","type":"uint256"}],"stateMutability":"view","type":"function"},{"inputs":[],"name":"borrower","outputs":[{"internalType":"address","name":"","type":"address"}],"stateMutability":"view","type":"function"},{"inputs":[],"name":"checkAndPenalizeLatePayments","outputs":[],"stateMutability":"nonpayable","type":"function"},{"inputs":[],"name":"countMissedInstallments","outputs":[{"internalType":"uint256","name":"missed","type":"uint256"}],"stateMutability":"view","type":"function"},{"inputs":[],"name":"dueTimestamp","outputs":[{"internalType":"uint256","name":"","type":"uint256"}],"stateMutability":"view","type":"function"},{"inputs":[],"name":"factory","outputs":[{"internalType":"address","name":"","type":"address"}],"stateMutability":"view","type":"function"},{"inputs":[],"name":"getDueTimestamp","outputs":[{"internalType":"uint256","name":"","type":"uint256"}],"stateMutability":"view","type":"function"},{"inputs":[],"name":"getRepaidAmount","outputs":[{"internalType":"uint256","name":"","type":"uint256"}],"stateMutability":"view","type":"function"},{"inputs":[],"name":"getStatus","outputs":[{"internalType":"enum LoanAgreement.LoanStatus","name":"","type":"uint8"}],"stateMutability":"view","type":"function"},{"inputs":[],"name":"getTotalOwed","outputs":[{"internalType":"uint256","name":"totalOwed","type":"uint256"}],"stateMutability":"view","type":"function"},{"inputs":[],"name":"getUnpenalizedLatePayments","outputs":[{"internalType":"uint256[]","name":"lateInstallments","type":"uint256[]"},{"internalType":"uint256","name":"potentialPenalties","type":"uint256"}],"stateMutability":"view","type":"function"},{"inputs":[],"name":"installmentInterval","outputs":[{"internalType":"uint256","name":"","type":"uint256"}],"stateMutability":"view","type":"function"},{"inputs":[],"name":"interestPercent","outputs":[{"internalType":"uint256","name":"","type":"uint256"}],"stateMutability":"view","type":"function"},{"inputs":[],"name":"lateFeePercent","outputs":[{"internalType":"uint256","name":"","type":"uint256"}],"stateMutability":"view","type":"function"},{"inputs":[{"internalType":"uint256","name":"","type":"uint256"}],"name":"latePenaltyApplied","outputs":[{"internalType":"bool","name":"","type":"bool"}],"stateMutability":"view","type":"function"},{"inputs":[],"name":"lender","outputs":[{"internalType":"address","name":"","type":"address"}],"stateMutability":"view","type":"function"},{"inputs":[],"name":"markDefault","outputs":[],"stateMutability":"nonpayable","type":"function"},{"inputs":[],"name":"markedDefault","outputs":[{"internalType":"bool","name":"","type":"bool"}],"stateMutability":"view","type":"function"},{"inputs":[],"name":"principal","outputs":[{"internalType":"uint256","name":"","type":"uint256"}],"stateMutability":"view","type":"function"},{"inputs":[],"name":"repaidAmount","outputs":[{"internalType":"uint256","name":"","type":"uint256"}],"stateMutability":"view","type":"function"},{"inputs":[{"internalType":"uint256","name":"amount","type":"uint256"}],"name":"repay","outputs":[],"stateMutability":"nonpayable","type":"function"},{"inputs":[],"name":"startTimestamp","outputs":[{"internalType":"uint256","name":"","type":"uint256"}],"stateMutability":"view","type":"function"},{"inputs":[],"name":"tokenAddress","outputs":[{"internalType":"address","name":"","type":"address"}],"stateMutability":"view","type":"function"},{"inputs":[],"name":"totalInstallments","outputs":[{"internalType":"uint256","name":"","type":"uint256"}],"stateMutability":"view","type":"function"}],"evm":{"bytecode":{"linkReferences":{},"object":"60806040523480156200001157600080fd5b50604051620022363803806200223683398181016040528101906200003791906200023b565b886000806101000a81548173ffffffffffffffffffffffffffffffffffffffff021916908373ffffffffffffffffffffffffffffffffffffffff16021790555087600160006101000a81548173ffffffffffffffffffffffffffffffffffffffff021916908373ffffffffffffffffffffffffffffffffffffffff1602179055508660028190555085600660006101000a81548173ffffffffffffffffffffffffffffffffffffffff021916908373ffffffffffffffffffffffffffffffffffffffff160217905550836003819055508260058190555081600881905550818562000123919062000378565b60098190555080600760006101000a81548173ffffffffffffffffffffffffffffffffffffffff021916908373ffffffffffffffffffffffffffffffffffffffff16021790555042600a8190555084600a54620001819190620003b0565b600481905550505050505050505050620003eb565b600080fd5b600073ffffffffffffffffffffffffffffffffffffffff82169050919050565b6000620001c8826200019b565b9050919050565b620001da81620001bb565b8114620001e657600080fd5b50565b600081519050620001fa81620001cf565b92915050565b6000819050919050565b620002158162000200565b81146200022157600080fd5b50565b60008151905062000235816200020a565b92915050565b60008060008060008060008060006101208a8c03121562000261576200026062000196565b5b6000620002718c828d01620001e9565b9950506020620002848c828d01620001e9565b9850506040620002978c828d0162000224565b9750506060620002aa8c828d01620001e9565b9650506080620002bd8c828d0162000224565b95505060a0620002d08c828d0162000224565b94505060c0620002e38c828d0162000224565b93505060e0620002f68c828d0162000224565b9250506101006200030a8c828d01620001e9565b9150509295985092959850929598565b7f4e487b7100000000000000000000000000000000000000000000000000000000600052601260045260246000fd5b7f4e487b7100000000000000000000000000000000000000000000000000000000600052601160045260246000fd5b6000620003858262000200565b9150620003928362000200565b925082620003a557620003a46200031a565b5b828204905092915050565b6000620003bd8262000200565b9150620003ca8362000200565b9250828201905080821115620003e557620003e462000349565b5b92915050565b611e3b80620003fb6000396000f3fe608060405234801561001057600080fd5b50600436106101585760003560e01c8063a35a4ab3116100c3578063d8bac5ed1161007c578063d8bac5ed14610350578063dd3b31101461036e578063de851b0a1461038c578063e3a09045146103aa578063e6fd48bc146103da578063f98b8028146103f857610158565b8063a35a4ab31461029c578063ba5d3078146102ba578063bcead63e146102d8578063c45a0155146102f6578063c8a34c0c14610314578063ccb6a0481461033257610158565b80635a94c9fa116101155780635a94c9fa146102105780637df1f1b91461021a5780638cff3e4b1461023857806395c8cbc9146102425780639675a4bd146102605780639d76ea581461027e57610158565b80630675d4321461015d5780630838dce51461017b578063371fd8e61461019a5780634e69d560146101b657806353069df6146101d45780635451073d146101f2575b600080fd5b610165610416565b604051610172919061150e565b60405180910390f35b61018361041c565b6040516101919291906115e7565b60405180910390f35b6101b460048036038101906101af9190611648565b61067f565b005b6101be610b1b565b6040516101cb91906116ec565b60405180910390f35b6101dc610b5c565b6040516101e9919061150e565b60405180910390f35b6101fa610b66565b604051610207919061150e565b60405180910390f35b610218610b6c565b005b610222610e18565b60405161022f9190611748565b60405180910390f35b610240610e3e565b005b61024a611060565b604051610257919061150e565b60405180910390f35b6102686110a0565b604051610275919061150e565b60405180910390f35b610286611176565b6040516102939190611748565b60405180910390f35b6102a461119c565b6040516102b1919061150e565b60405180910390f35b6102c26111a6565b6040516102cf919061150e565b60405180910390f35b6102e06111ac565b6040516102ed9190611748565b60405180910390f35b6102fe6111d0565b60405161030b9190611748565b60405180910390f35b61031c6111f6565b604051610329919061150e565b60405180910390f35b61033a6111fc565b604051610347919061150e565b60405180910390f35b610358611202565b604051610365919061177e565b60405180910390f35b610376611215565b604051610383919061150e565b60405180910390f35b61039461121b565b6040516103a1919061150e565b60405180910390f35b6103c460048036038101906103bf9190611648565b611221565b6040516103d1919061177e565b60405180910390f35b6103e2611241565b6040516103ef919061150e565b60405180910390f35b610400611247565b60405161040d919061150e565b60405180910390f35b60055481565b60606000804290506000600954600a548361043791906117c8565b610441919061182b565b90506008548111156104535760085490505b600080600190505b82811161052d57600060095482610472919061185c565b600a5461047f919061189e565b905080851180156104ae5750600e600083815260200190815260200160002060009054906101000a900460ff16155b1561051957600060646003546002546104c7919061185c565b6104d1919061182b565b6002546104de919061189e565b9050600060085484836104f1919061185c565b6104fb919061182b565b905080600b541015610516578480610512906118d2565b9550505b50505b508080610525906118d2565b91505061045b565b508067ffffffffffffffff8111156105485761054761191a565b5b6040519080825280602002602001820160405280156105765781602001602082028036833780820191505090505b509450600080600190505b83811161067357600060095482610598919061185c565b600a546105a5919061189e565b905080861180156105d45750600e600083815260200190815260200160002060009054906101000a900460ff16155b1561065f57600060646003546002546105ed919061185c565b6105f7919061182b565b600254610604919061189e565b905060006008548483610617919061185c565b610621919061182b565b905080600b54101561065c57838a868151811061064157610640611949565b5b6020026020010181815250508480610658906118d2565b9550505b50505b50808061066b906118d2565b915050610581565b50819450505050509091565b600160009054906101000a900473ffffffffffffffffffffffffffffffffffffffff1673ffffffffffffffffffffffffffffffffffffffff163373ffffffffffffffffffffffffffffffffffffffff161461070f576040517f08c379a0000000000000000000000000000000000000000000000000000000008152600401610706906119d5565b60405180910390fd5b610717610b6c565b6000610721611060565b90506000600b548261073391906117c8565b90506000600660009054906101000a900473ffffffffffffffffffffffffffffffffffffffff1690507fb660cb1c866503d0663185064f29f91c40c52213a6f3d80bda170bb0012016bf8173ffffffffffffffffffffffffffffffffffffffff1663dd62ed3e33306040518363ffffffff1660e01b81526004016107b89291906119f5565b602060405180830381865afa1580156107d5573d6000803e3d6000fd5b505050506040513d601f19601f820116820180604052508101906107f99190611a33565b8273ffffffffffffffffffffffffffffffffffffffff166370a08231336040518263ffffffff1660e01b81526004016108329190611748565b602060405180830381865afa15801561084f573d6000803e3d6000fd5b505050506040513d601f19601f820116820180604052508101906108739190611a33565b8560405161088393929190611a60565b60405180910390a160008490506000838611156108ac5783915083866108a991906117c8565b90505b600082111561096e576109023360008054906101000a900473ffffffffffffffffffffffffffffffffffffffff16848673ffffffffffffffffffffffffffffffffffffffff1661124d909392919063ffffffff16565b81600b6000828254610914919061189e565b925050819055503373ffffffffffffffffffffffffffffffffffffffff167f1b8cd61ed43bec7c6bdad3a18ffee613f99c853d16c50678d248d879e1b4343883600b54604051610965929190611a97565b60405180910390a25b6000811115610a37576109c633600160009054906101000a900473ffffffffffffffffffffffffffffffffffffffff16838673ffffffffffffffffffffffffffffffffffffffff1661124d909392919063ffffffff16565b600160009054906101000a900473ffffffffffffffffffffffffffffffffffffffff1673ffffffffffffffffffffffffffffffffffffffff167fa171b6942063c6f2800ce40a780edce37baa2b618571b11eedd1e69e626e7d7682604051610a2e919061150e565b60405180910390a25b60016002811115610a4b57610a4a611675565b5b610a53610b1b565b6002811115610a6557610a64611675565b5b03610b13573073ffffffffffffffffffffffffffffffffffffffff167f927542d877f6ef1fb1779cb252a65aaa543f48e6d9abc25433c57e19ceccf61d60405160405180910390a2600080600190505b6008548111610b0057600e600082815260200190815260200160002060009054906101000a900460ff1615610aed5760019150610b00565b8080610af8906118d2565b915050610ab5565b5080610b1157610b1060016112cf565b5b505b505050505050565b6000600d60009054906101000a900460ff1615610b3b5760029050610b59565b610b43611060565b600b5410610b545760019050610b59565b600090505b90565b6000600b54905090565b60045481565b60004290506000600954600a5483610b8491906117c8565b610b8e919061182b565b9050600854811115610ba05760085490505b6000600190505b818111610e1357600060095482610bbe919061185c565b600a54610bcb919061189e565b90508084118015610bfa5750600e600083815260200190815260200160002060009054906101000a900460ff16155b15610dff5760006064600354600254610c13919061185c565b610c1d919061182b565b600254610c2a919061189e565b905060006008548483610c3d919061185c565b610c47919061182b565b905080600b541015610dfc57600060085483610c63919061182b565b90506000606460055483610c77919061185c565b610c81919061182b565b905080600c6000828254610c95919061189e565b925050819055506001600e600088815260200190815260200160002060006101000a81548160ff021916908315150217905550610cf17fffffffffffffffffffffffffffffffffffffffffffffffffffffffffffffffff6112cf565b600160009054906101000a900473ffffffffffffffffffffffffffffffffffffffff1673ffffffffffffffffffffffffffffffffffffffff167fa7bd5babec89be19bd24d4899772d4a15bca76bf6ef0e38f879570888f2ea580877fffffffffffffffffffffffffffffffffffffffffffffffffffffffffffffffff604051610d7b929190611b0f565b60405180910390a2600160009054906101000a900473ffffffffffffffffffffffffffffffffffffffff1673ffffffffffffffffffffffffffffffffffffffff167f5404a4578129817a8c738f6c714573aa3c1a10e2107e949fcd86a29b7f1b66d68783600c54604051610df193929190611a60565b60405180910390a250505b50505b508080610e0b906118d2565b915050610ba7565b505050565b600160009054906101000a900473ffffffffffffffffffffffffffffffffffffffff1681565b60008054906101000a900473ffffffffffffffffffffffffffffffffffffffff1673ffffffffffffffffffffffffffffffffffffffff163373ffffffffffffffffffffffffffffffffffffffff1614610ecc576040517f08c379a0000000000000000000000000000000000000000000000000000000008152600401610ec390611b84565b60405180910390fd5b60006002811115610ee057610edf611675565b5b610ee8610b1b565b6002811115610efa57610ef9611675565b5b14610f3a576040517f08c379a0000000000000000000000000000000000000000000000000000000008152600401610f3190611c16565b60405180910390fd5b600954600854610f4a919061185c565b600a54610f57919061189e565b4211610f98576040517f08c379a0000000000000000000000000000000000000000000000000000000008152600401610f8f90611c82565b60405180910390fd5b610fa0610b6c565b6001600d60006101000a81548160ff02191690831515021790555060008054906101000a900473ffffffffffffffffffffffffffffffffffffffff1673ffffffffffffffffffffffffffffffffffffffff163073ffffffffffffffffffffffffffffffffffffffff167fa6e9acf469d627e8f02eec880995bb6f37ecadea71c528f0e35081bd77e9189760405160405180910390a361105e7ffffffffffffffffffffffffffffffffffffffffffffffffffffffffffffffffe6112cf565b565b60006064600354600254611074919061185c565b61107e919061182b565b60025461108b919061189e565b9050600c548161109b919061189e565b905090565b600080600954600a54426110b491906117c8565b6110be919061182b565b90506008548111156110d05760085490505b600060646003546002546110e4919061185c565b6110ee919061182b565b6002546110fb919061189e565b90506000600854838361110e919061185c565b611118919061182b565b9050600b54811115611170576000600b548261113491906117c8565b9050600060085484611146919061182b565b90508060018284611157919061189e565b61116191906117c8565b61116b919061182b565b955050505b50505090565b600660009054906101000a900473ffffffffffffffffffffffffffffffffffffffff1681565b6000600454905090565b60025481565b60008054906101000a900473ffffffffffffffffffffffffffffffffffffffff1681565b600760009054906101000a900473ffffffffffffffffffffffffffffffffffffffff1681565b600c5481565b60085481565b600d60009054906101000a900460ff1681565b60035481565b60095481565b600e6020528060005260406000206000915054906101000a900460ff1681565b600a5481565b600b5481565b6112c9848573ffffffffffffffffffffffffffffffffffffffff166323b872dd86868660405160240161128293929190611ca2565b604051602081830303815290604052915060e01b6020820180517bffffffffffffffffffffffffffffffffffffffffffffffffffffffff8381831617835250505050611453565b50505050565b6000600760009054906101000a900473ffffffffffffffffffffffffffffffffffffffff1673ffffffffffffffffffffffffffffffffffffffff16600160009054906101000a900473ffffffffffffffffffffffffffffffffffffffff168360405160240161133f929190611ce8565b6040516020818303038152906040527fe766784d000000000000000000000000000000000000000000000000000000007bffffffffffffffffffffffffffffffffffffffffffffffffffffffff19166020820180517bffffffffffffffffffffffffffffffffffffffffffffffffffffffff83818316178352505050506040516113c99190611d82565b6000604051808303816000865af19150503d8060008114611406576040519150601f19603f3d011682016040523d82523d6000602084013e61140b565b606091505b505090508061144f576040517f08c379a000000000000000000000000000000000000000000000000000000000815260040161144690611de5565b60405180910390fd5b5050565b600080602060008451602086016000885af180611476576040513d6000823e3d81fd5b3d9250600051915050600082146114915760018114156114ad565b60008473ffffffffffffffffffffffffffffffffffffffff163b145b156114ef57836040517f5274afe70000000000000000000000000000000000000000000000000000000081526004016114e69190611748565b60405180910390fd5b50505050565b6000819050919050565b611508816114f5565b82525050565b600060208201905061152360008301846114ff565b92915050565b600081519050919050565b600082825260208201905092915050565b6000819050602082019050919050565b61155e816114f5565b82525050565b60006115708383611555565b60208301905092915050565b6000602082019050919050565b600061159482611529565b61159e8185611534565b93506115a983611545565b8060005b838110156115da5781516115c18882611564565b97506115cc8361157c565b9250506001810190506115ad565b5085935050505092915050565b600060408201905081810360008301526116018185611589565b905061161060208301846114ff565b9392505050565b600080fd5b611625816114f5565b811461163057600080fd5b50565b6000813590506116428161161c565b92915050565b60006020828403121561165e5761165d611617565b5b600061166c84828501611633565b91505092915050565b7f4e487b7100000000000000000000000000000000000000000000000000000000600052602160045260246000fd5b600381106116b5576116b4611675565b5b50565b60008190506116c6826116a4565b919050565b60006116d6826116b8565b9050919050565b6116e6816116cb565b82525050565b600060208201905061170160008301846116dd565b92915050565b600073ffffffffffffffffffffffffffffffffffffffff82169050919050565b600061173282611707565b9050919050565b61174281611727565b82525050565b600060208201905061175d6000830184611739565b92915050565b60008115159050919050565b61177881611763565b82525050565b6000602082019050611793600083018461176f565b92915050565b7f4e487b7100000000000000000000000000000000000000000000000000000000600052601160045260246000fd5b60006117d3826114f5565b91506117de836114f5565b92508282039050818111156117f6576117f5611799565b5b92915050565b7f4e487b7100000000000000000000000000000000000000000000000000000000600052601260045260246000fd5b6000611836826114f5565b9150611841836114f5565b925082611851576118506117fc565b5b828204905092915050565b6000611867826114f5565b9150611872836114f5565b9250828202611880816114f5565b9150828204841483151761189757611896611799565b5b5092915050565b60006118a9826114f5565b91506118b4836114f5565b92508282019050808211156118cc576118cb611799565b5b92915050565b60006118dd826114f5565b91507fffffffffffffffffffffffffffffffffffffffffffffffffffffffffffffffff820361190f5761190e611799565b5b600182019050919050565b7f4e487b7100000000000000000000000000000000000000000000000000000000600052604160045260246000fd5b7f4e487b7100000000000000000000000000000000000000000000000000000000600052603260045260246000fd5b600082825260208201905092915050565b7f4f6e6c7920626f72726f7765722063616e207265706179000000000000000000600082015250565b60006119bf601783611978565b91506119ca82611989565b602082019050919050565b600060208201905081810360008301526119ee816119b2565b9050919050565b6000604082019050611a0a6000830185611739565b611a176020830184611739565b9392505050565b600081519050611a2d8161161c565b92915050565b600060208284031215611a4957611a48611617565b5b6000611a5784828501611a1e565b91505092915050565b6000606082019050611a7560008301866114ff565b611a8260208301856114ff565b611a8f60408301846114ff565b949350505050565b6000604082019050611aac60008301856114ff565b611ab960208301846114ff565b9392505050565b6000819050919050565b6000819050919050565b6000819050919050565b6000611af9611af4611aef84611ac0565b611ad4565b611aca565b9050919050565b611b0981611ade565b82525050565b6000604082019050611b2460008301856114ff565b611b316020830184611b00565b9392505050565b7f4f6e6c79206c656e6465722063616e206d61726b2064656661756c7400000000600082015250565b6000611b6e601c83611978565b9150611b7982611b38565b602082019050919050565b60006020820190508181036000830152611b9d81611b61565b9050919050565b7f4c6f616e206e6f7420616374697665206f7220616c72656164792068616e646c60008201527f6564000000000000000000000000000000000000000000000000000000000000602082015250565b6000611c00602283611978565b9150611c0b82611ba4565b604082019050919050565b60006020820190508181036000830152611c2f81611bf3565b9050919050565b7f4c6f616e206973206e6f74206f76657264756520796574000000000000000000600082015250565b6000611c6c601783611978565b9150611c7782611c36565b602082019050919050565b60006020820190508181036000830152611c9b81611c5f565b9050919050565b6000606082019050611cb76000830186611739565b611cc46020830185611739565b611cd160408301846114ff565b949350505050565b611ce281611aca565b82525050565b6000604082019050611cfd6000830185611739565b611d0a6020830184611cd9565b9392505050565b600081519050919050565b600081905092915050565b60005b83811015611d45578082015181840152602081019050611d2a565b60008484015250505050565b6000611d5c82611d11565b611d668185611d1c565b9350611d76818560208601611d27565b80840191505092915050565b6000611d8e8284611d51565b915081905092915050565b7f54727573742073636f726520757064617465206661696c656400000000000000600082015250565b6000611dcf601983611978565b9150611dda82611d99565b602082019050919050565b60006020820190508181036000830152611dfe81611dc2565b905091905056fea2646970667358221220e5b4b0ba0479cd8d923dbeca2568acc19c52a3a6d026271a505a224cfe540cb064736f6c63430008140033","opcodes":"PUSH1 0x80 PUSH1 0x40 MSTORE CALLVALUE DUP1 ISZERO PUSH3 0x11 JUMPI PUSH1 0x0 DUP1 REVERT JUMPDEST POP PUSH1 0x40 MLOAD PUSH3 0x2236 CODESIZE SUB DUP1 PUSH3 0x2236 DUP4 CODECOPY DUP2 DUP2 ADD PUSH1 0x40 MSTORE DUP2 ADD SWAP1 PUSH3 0x37 SWAP2 SWAP1 PUSH3 0x23B JUMP JUMPDEST DUP9 PUSH1 0x0 DUP1 PUSH2 0x100 EXP DUP2 SLOAD DUP2 PUSH20 0xFFFFFFFFFFFFFFFFFFFFFFFFFFFFFFFFFFFFFFFF MUL NOT AND SWAP1 DUP4 PUSH20 0xFFFFFFFFFFFFFFFFFFFFFFFFFFFFFFFFFFFFFFFF AND MUL OR SWAP1 SSTORE POP DUP8 PUSH1 0x1 PUSH1 0x0 PUSH2 0x100 EXP DUP2 SLOAD DUP2 PUSH20 0xFFFFFFFFFFFFFFFFFFFFFFFFFFFFFFFFFFFFFFFF MUL NOT AND SWAP1 DUP4 PUSH20 0xFFFFFFFFFFFFFFFFFFFFFFFFFFFFFFFFFFFFFFFF AND MUL OR SWAP1 SSTORE POP DUP7 PUSH1 0x2 DUP2 SWAP1 SSTORE POP DUP6 PUSH1 0x6 PUSH1 0x0 PUSH2 0x100 EXP DUP2 SLOAD DUP2 PUSH20 0xFFFFFFFFFFFFFFFFFFFFFFFFFFFFFFFFFFFFFFFF MUL NOT AND SWAP1 DUP4 PUSH20 0xFFFFFFFFFFFFFFFFFFFFFFFFFFFFFFFFFFFFFFFF AND MUL OR SWAP1 SSTORE POP DUP4 PUSH1 0x3 DUP2 SWAP1 SSTORE POP DUP3 PUSH1 0x5 DUP2 SWAP1 SSTORE POP DUP2 PUSH1 0x8 DUP2 SWAP1 SSTORE POP DUP2 DUP6 PUSH3 0x123 SWAP2 SWAP1 PUSH3 0x378 JUMP JUMPDEST PUSH1 0x9 DUP2 SWAP1 SSTORE POP DUP1 PUSH1 0x7 PUSH1 0x0 PUSH2 0x100 EXP DUP2 SLOAD DUP2 PUSH20 0xFFFFFFFFFFFFFFFFFFFFFFFFFFFFFFFFFFFFFFFF MUL NOT AND SWAP1 DUP4 PUSH20 0xFFFFFFFFFFFFFFFFFFFFFFFFFFFFFFFFFFFFFFFF AND MUL OR SWAP1 SSTORE POP TIMESTAMP PUSH1 0xA DUP2 SWAP1 SSTORE POP DUP5 PUSH1 0xA SLOAD PUSH3 0x181 SWAP2 SWAP1 PUSH3 0x3B0 JUMP JUMPDEST PUSH1 0x4 DUP2 SWAP1 SSTORE POP POP POP POP POP POP POP POP POP POP PUSH3 0x3EB JUMP JUMPDEST PUSH1 0x0 DUP1 REVERT JUMPDEST PUSH1 0x0 PUSH20 0xFFFFFFFFFFFFFFFFFFFFFFFFFFFFFFFFFFFFFFFF DUP3 AND SWAP1 POP SWAP2 SWAP1 POP JUMP JUMPDEST PUSH1 0x0 PUSH3 0x1C8 DUP3 PUSH3 0x19B JUMP JUMPDEST SWAP1 POP SWAP2 SWAP1 POP JUMP JUMPDEST PUSH3 0x1DA DUP2 PUSH3 0x1BB JUMP JUMPDEST DUP2 EQ PUSH3 0x1E6 JUMPI PUSH1 0x0 DUP1 REVERT JUMPDEST POP JUMP JUMPDEST PUSH1 0x0 DUP2 MLOAD SWAP1 POP PUSH3 0x1FA DUP2 PUSH3 0x1CF JUMP JUMPDEST SWAP3 SWAP2 POP POP JUMP JUMPDEST PUSH1 0x0 DUP2 SWAP1 POP SWAP2 SWAP1 POP JUMP JUMPDEST PUSH3 0x215 DUP2 PUSH3 0x200 JUMP JUMPDEST DUP2 EQ PUSH3 0x221 JUMPI PUSH1 0x0 DUP1 REVERT JUMPDEST POP JUMP JUMPDEST PUSH1 0x0 DUP2 MLOAD SWAP1 POP PUSH3 0x235 DUP2 PUSH3 0x20A JUMP JUMPDEST SWAP3 SWAP2 POP POP JUMP JUMPDEST PUSH1 0x0 DUP1 PUSH1 0x0 DUP1 PUSH1 0x0 DUP1 PUSH1 0x0 DUP1 PUSH1 0x0 PUSH2 0x120 DUP11 DUP13 SUB SLT ISZERO PUSH3 0x261 JUMPI PUSH3 0x260 PUSH3 0x196 JUMP JUMPDEST JUMPDEST PUSH1 0x0 PUSH3 0x271 DUP13 DUP3 DUP14 ADD PUSH3 0x1E9 JUMP JUMPDEST SWAP10 POP POP PUSH1 0x20 PUSH3 0x284 DUP13 DUP3 DUP14 ADD PUSH3 0x1E9 JUMP JUMPDEST SWAP9 POP POP PUSH1 0x40 PUSH3 0x297 DUP13 DUP3 DUP14 ADD PUSH3 0x224 JUMP JUMPDEST SWAP8 POP POP PUSH1 0x60 PUSH3 0x2AA DUP13 DUP3 DUP14 ADD PUSH3 0x1E9 JUMP JUMPDEST SWAP7 POP POP PUSH1 0x80 PUSH3 0x2BD DUP13 DUP3 DUP14 ADD PUSH3 0x224 JUMP JUMPDEST SWAP6 POP POP PUSH1 0xA0 PUSH3 0x2D0 DUP13 DUP3 DUP14 ADD PUSH3 0x224 JUMP JUMPDEST SWAP5 POP POP PUSH1 0xC0 PUSH3 0x2E3 DUP13 DUP3 DUP14 ADD PUSH3 0x224 JUMP JUMPDEST SWAP4 POP POP PUSH1 0xE0 PUSH3 0x2F6 DUP13 DUP3 DUP14 ADD PUSH3 0x224 JUMP JUMPDEST SWAP3 POP POP PUSH2 0x100 PUSH3 0x30A DUP13 DUP3 DUP14 ADD PUSH3 0x1E9 JUMP JUMPDEST SWAP2 POP POP SWAP3 SWAP6 SWAP9 POP SWAP3 SWAP6 SWAP9 POP SWAP3 SWAP6 SWAP9 JUMP JUMPDEST PUSH32 0x4E487B7100000000000000000000000000000000000000000000000000000000 PUSH1 0x0 MSTORE PUSH1 0x12 PUSH1 0x4 MSTORE PUSH1 0x24 PUSH1 0x0 REVERT JUMPDEST PUSH32 0x4E487B7100000000000000000000000000000000000000000000000000000000 PUSH1 0x0 MSTORE PUSH1 0x11 PUSH1 0x4 MSTORE PUSH1 0x24 PUSH1 0x0 REVERT JUMPDEST PUSH1 0x0 PUSH3 0x385 DUP3 PUSH3 0x200 JUMP JUMPDEST SWAP2 POP PUSH3 0x392 DUP4 PUSH3 0x200 JUMP JUMPDEST SWAP3 POP DUP3 PUSH3 0x3A5 JUMPI PUSH3 0x3A4 PUSH3 0x31A JUMP JUMPDEST JUMPDEST DUP3 DUP3 DIV SWAP1 POP SWAP3 SWAP2 POP POP JUMP JUMPDEST PUSH1 0x0 PUSH3 0x3BD DUP3 PUSH3 0x200 JUMP JUMPDEST SWAP2 POP PUSH3 0x3CA DUP4 PUSH3 0x200 JUMP JUMPDEST SWAP3 POP DUP3 DUP3 ADD SWAP1 POP DUP1 DUP3 GT ISZERO PUSH3 0x3E5 JUMPI PUSH3 0x3E4 PUSH3 0x349 JUMP JUMPDEST JUMPDEST SWAP3 SWAP2 POP POP JUMP JUMPDEST PUSH2 0x1E3B DUP1 PUSH3 0x3FB PUSH1 0x0 CODECOPY PUSH1 0x0 RETURN INVALID PUSH1 0x80 PUSH1 0x40 MSTORE CALLVALUE DUP1 ISZERO PUSH2 0x10 JUMPI PUSH1 0x0 DUP1 REVERT JUMPDEST POP PUSH1 0x4 CALLDATASIZE LT PUSH2 0x158 JUMPI PUSH1 0x0 CALLDATALOAD PUSH1 0xE0 SHR DUP1 PUSH4 0xA35A4AB3 GT PUSH2 0xC3 JUMPI DUP1 PUSH4 0xD8BAC5ED GT PUSH2 0x7C JUMPI DUP1 PUSH4 0xD8BAC5ED EQ PUSH2 0x350 JUMPI DUP1 PUSH4 0xDD3B3110 EQ PUSH2 0x36E JUMPI DUP1 PUSH4 0xDE851B0A EQ PUSH2 0x38C JUMPI DUP1 PUSH4 0xE3A09045 EQ PUSH2 0x3AA JUMPI DUP1 PUSH4 0xE6FD48BC EQ PUSH2 0x3DA JUMPI DUP1 PUSH4 0xF98B8028 EQ PUSH2 0x3F8 JUMPI PUSH2 0x158 JUMP JUMPDEST DUP1 PUSH4 0xA35A4AB3 EQ PUSH2 0x29C JUMPI DUP1 PUSH4 0xBA5D3078 EQ PUSH2 0x2BA JUMPI DUP1 PUSH4 0xBCEAD63E EQ PUSH2 0x2D8 JUMPI DUP1 PUSH4 0xC45A0155 EQ PUSH2 0x2F6 JUMPI DUP1 PUSH4 0xC8A34C0C EQ PUSH2 0x314 JUMPI DUP1 PUSH4 0xCCB6A048 EQ PUSH2 0x332 JUMPI PUSH2 0x158 JUMP JUMPDEST DUP1 PUSH4 0x5A94C9FA GT PUSH2 0x115 JUMPI DUP1 PUSH4 0x5A94C9FA EQ PUSH2 0x210 JUMPI DUP1 PUSH4 0x7DF1F1B9 EQ PUSH2 0x21A JUMPI DUP1 PUSH4 0x8CFF3E4B EQ PUSH2 0x238 JUMPI DUP1 PUSH4 0x95C8CBC9 EQ PUSH2 0x242 JUMPI DUP1 PUSH4 0x9675A4BD EQ PUSH2 0x260 JUMPI DUP1 PUSH4 0x9D76EA58 EQ PUSH2 0x27E JUMPI PUSH2 0x158 JUMP JUMPDEST DUP1 PUSH4 0x675D432 EQ PUSH2 0x15D JUMPI DUP1 PUSH4 0x838DCE5 EQ PUSH2 0x17B JUMPI DUP1 PUSH4 0x371FD8E6 EQ PUSH2 0x19A JUMPI DUP1 PUSH4 0x4E69D560 EQ PUSH2 0x1B6 JUMPI DUP1 PUSH4 0x53069DF6 EQ PUSH2 0x1D4 JUMPI DUP1 PUSH4 0x5451073D EQ PUSH2 0x1F2 JUMPI JUMPDEST PUSH1 0x0 DUP1 REVERT JUMPDEST PUSH2 0x165 PUSH2 0x416 JUMP JUMPDEST PUSH1 0x40 MLOAD PUSH2 0x172 SWAP2 SWAP1 PUSH2 0x150E JUMP JUMPDEST PUSH1 0x40 MLOAD DUP1 SWAP2 SUB SWAP1 RETURN JUMPDEST PUSH2 0x183 PUSH2 0x41C JUMP JUMPDEST PUSH1 0x40 MLOAD PUSH2 0x191 SWAP3 SWAP2 SWAP1 PUSH2 0x15E7 JUMP JUMPDEST PUSH1 0x40 MLOAD DUP1 SWAP2 SUB SWAP1 RETURN JUMPDEST PUSH2 0x1B4 PUSH1 0x4 DUP1 CALLDATASIZE SUB DUP2 ADD SWAP1 PUSH2 0x1AF SWAP2 SWAP1 PUSH2 0x1648 JUMP JUMPDEST PUSH2 0x67F JUMP JUMPDEST STOP JUMPDEST PUSH2 0x1BE PUSH2 0xB1B JUMP JUMPDEST PUSH1 0x40 MLOAD PUSH2 0x1CB SWAP2 SWAP1 PUSH2 0x16EC JUMP JUMPDEST PUSH1 0x40 MLOAD DUP1 SWAP2 SUB SWAP1 RETURN JUMPDEST PUSH2 0x1DC PUSH2 0xB5C JUMP JUMPDEST PUSH1 0x40 MLOAD PUSH2 0x1E9 SWAP2 SWAP1 PUSH2 0x150E JUMP JUMPDEST PUSH1 0x40 MLOAD DUP1 SWAP2 SUB SWAP1 RETURN JUMPDEST PUSH2 0x1FA PUSH2 0xB66 JUMP JUMPDEST PUSH1 0x40 MLOAD PUSH2 0x207 SWAP2 SWAP1 PUSH2 0x150E JUMP JUMPDEST PUSH1 0x40 MLOAD DUP1 SWAP2 SUB SWAP1 RETURN JUMPDEST PUSH2 0x218 PUSH2 0xB6C JUMP JUMPDEST STOP JUMPDEST PUSH2 0x222 PUSH2 0xE18 JUMP JUMPDEST PUSH1 0x40 MLOAD PUSH2 0x22F SWAP2 SWAP1 PUSH2 0x1748 JUMP JUMPDEST PUSH1 0x40 MLOAD DUP1 SWAP2 SUB SWAP1 RETURN JUMPDEST PUSH2 0x240 PUSH2 0xE3E JUMP JUMPDEST STOP JUMPDEST PUSH2 0x24A PUSH2 0x1060 JUMP JUMPDEST PUSH1 0x40 MLOAD PUSH2 0x257 SWAP2 SWAP1 PUSH2 0x150E JUMP JUMPDEST PUSH1 0x40 MLOAD DUP1 SWAP2 SUB SWAP1 RETURN JUMPDEST PUSH2 0x268 PUSH2 0x10A0 JUMP JUMPDEST PUSH1 0x40 MLOAD PUSH2 0x275 SWAP2 SWAP1 PUSH2 0x150E JUMP JUMPDEST PUSH1 0x40 MLOAD DUP1 SWAP2 SUB SWAP1 RETURN JUMPDEST PUSH2 0x286 PUSH2 0x1176 JUMP JUMPDEST PUSH1 0x40 MLOAD PUSH2 0x293 SWAP2 SWAP1 PUSH2 0x1748 JUMP JUMPDEST PUSH1 0x40 MLOAD DUP1 SWAP2 SUB SWAP1 RETURN JUMPDEST PUSH2 0x2A4 PUSH2 0x119C JUMP JUMPDEST PUSH1 0x40 MLOAD PUSH2 0x2B1 SWAP2 SWAP1 PUSH2 0x150E JUMP JUMPDEST PUSH1 0x40 MLOAD DUP1 SWAP2 SUB SWAP1 RETURN JUMPDEST PUSH2 0x2C2 PUSH2 0x11A6 JUMP JUMPDEST PUSH1 0x40 MLOAD PUSH2 0x2CF SWAP2 SWAP1 PUSH2 0x150E JUMP JUMPDEST PUSH1 0x40 MLOAD DUP1 SWAP2 SUB SWAP1 RETURN JUMPDEST PUSH2 0x2E0 PUSH2 0x11AC JUMP JUMPDEST PUSH1 0x40 MLOAD PUSH2 0x2ED SWAP2 SWAP1 PUSH2 0x1748 JUMP JUMPDEST PUSH1 0x40 MLOAD DUP1 SWAP2 SUB SWAP1 RETURN JUMPDEST PUSH2 0x2FE PUSH2 0x11D0 JUMP JUMPDEST PUSH1 0x40 MLOAD PUSH2 0x30B SWAP2 SWAP1 PUSH2 0x1748 JUMP JUMPDEST PUSH1 0x40 MLOAD DUP1 SWAP2 SUB SWAP1 RETURN JUMPDEST PUSH2 0x31C PUSH2 0x11F6 JUMP JUMPDEST PUSH1 0x40 MLOAD PUSH2 0x329 SWAP2 SWAP1 PUSH2 0x150E JUMP JUMPDEST PUSH1 0x40 MLOAD DUP1 SWAP2 SUB SWAP1 RETURN JUMPDEST PUSH2 0x33A PUSH2 0x11FC JUMP JUMPDEST PUSH1 0x40 MLOAD PUSH2 0x347 SWAP2 SWAP1 PUSH2 0x150E JUMP JUMPDEST PUSH1 0x40 MLOAD DUP1 SWAP2 SUB SWAP1 RETURN JUMPDEST PUSH2 0x358 PUSH2 0x1202 JUMP JUMPDEST PUSH1 0x40 MLOAD PUSH2 0x365 SWAP2 SWAP1 PUSH2 0x177E JUMP JUMPDEST PUSH1 0x40 MLOAD DUP1 SWAP2 SUB SWAP1 RETURN JUMPDEST PUSH2 0x376 PUSH2 0x1215 JUMP JUMPDEST PUSH1 0x40 MLOAD PUSH2 0x383 SWAP2 SWAP1 PUSH2 0x150E JUMP JUMPDEST PUSH1 0x40 MLOAD DUP1 SWAP2 SUB SWAP1 RETURN JUMPDEST PUSH2 0x394 PUSH2 0x121B JUMP JUMPDEST PUSH1 0x40 MLOAD PUSH2 0x3A1 SWAP2 SWAP1 PUSH2 0x150E JUMP JUMPDEST PUSH1 0x40 MLOAD DUP1 SWAP2 SUB SWAP1 RETURN JUMPDEST PUSH2 0x3C4 PUSH1 0x4 DUP1 CALLDATASIZE SUB DUP2 ADD SWAP1 PUSH2 0x3BF SWAP2 SWAP1 PUSH2 0x1648 JUMP JUMPDEST PUSH2 0x1221 JUMP JUMPDEST PUSH1 0x40 MLOAD PUSH2 0x3D1 SWAP2 SWAP1 PUSH2 0x177E JUMP JUMPDEST PUSH1 0x40 MLOAD DUP1 SWAP2 SUB SWAP1 RETURN JUMPDEST PUSH2 0x3E2 PUSH2 0x1241 JUMP JUMPDEST PUSH1 0x40 MLOAD PUSH2 0x3EF SWAP2 SWAP1 PUSH2 0x150E JUMP JUMPDEST PUSH1 0x40 MLOAD DUP1 SWAP2 SUB SWAP1 RETURN JUMPDEST PUSH2 0x400 PUSH2 0x1247 JUMP JUMPDEST PUSH1 0x40 MLOAD PUSH2 0x40D SWAP2 SWAP1 PUSH2 0x150E JUMP JUMPDEST PUSH1 0x40 MLOAD DUP1 SWAP2 SUB SWAP1 RETURN JUMPDEST PUSH1 0x5 SLOAD DUP2 JUMP JUMPDEST PUSH1 0x60 PUSH1 0x0 DUP1 TIMESTAMP SWAP1 POP PUSH1 0x0 PUSH1 0x9 SLOAD PUSH1 0xA SLOAD DUP4 PUSH2 0x437 SWAP2 SWAP1 PUSH2 0x17C8 JUMP JUMPDEST PUSH2 0x441 SWAP2 SWAP1 PUSH2 0x182B JUMP JUMPDEST SWAP1 POP PUSH1 0x8 SLOAD DUP2 GT ISZERO PUSH2 0x453 JUMPI PUSH1 0x8 SLOAD SWAP1 POP JUMPDEST PUSH1 0x0 DUP1 PUSH1 0x1 SWAP1 POP JUMPDEST DUP3 DUP2 GT PUSH2 0x52D JUMPI PUSH1 0x0 PUSH1 0x9 SLOAD DUP3 PUSH2 0x472 SWAP2 SWAP1 PUSH2 0x185C JUMP JUMPDEST PUSH1 0xA SLOAD PUSH2 0x47F SWAP2 SWAP1 PUSH2 0x189E JUMP JUMPDEST SWAP1 POP DUP1 DUP6 GT DUP1 ISZERO PUSH2 0x4AE JUMPI POP PUSH1 0xE PUSH1 0x0 DUP4 DUP2 MSTORE PUSH1 0x20 ADD SWAP1 DUP2 MSTORE PUSH1 0x20 ADD PUSH1 0x0 KECCAK256 PUSH1 0x0 SWAP1 SLOAD SWAP1 PUSH2 0x100 EXP SWAP1 DIV PUSH1 0xFF AND ISZERO JUMPDEST ISZERO PUSH2 0x519 JUMPI PUSH1 0x0 PUSH1 0x64 PUSH1 0x3 SLOAD PUSH1 0x2 SLOAD PUSH2 0x4C7 SWAP2 SWAP1 PUSH2 0x185C JUMP JUMPDEST PUSH2 0x4D1 SWAP2 SWAP1 PUSH2 0x182B JUMP JUMPDEST PUSH1 0x2 SLOAD PUSH2 0x4DE SWAP2 SWAP1 PUSH2 0x189E JUMP JUMPDEST SWAP1 POP PUSH1 0x0 PUSH1 0x8 SLOAD DUP5 DUP4 PUSH2 0x4F1 SWAP2 SWAP1 PUSH2 0x185C JUMP JUMPDEST PUSH2 0x4FB SWAP2 SWAP1 PUSH2 0x182B JUMP JUMPDEST SWAP1 POP DUP1 PUSH1 0xB SLOAD LT ISZERO PUSH2 0x516 JUMPI DUP5 DUP1 PUSH2 0x512 SWAP1 PUSH2 0x18D2 JUMP JUMPDEST SWAP6 POP POP JUMPDEST POP POP JUMPDEST POP DUP1 DUP1 PUSH2 0x525 SWAP1 PUSH2 0x18D2 JUMP JUMPDEST SWAP2 POP POP PUSH2 0x45B JUMP JUMPDEST POP DUP1 PUSH8 0xFFFFFFFFFFFFFFFF DUP2 GT ISZERO PUSH2 0x548 JUMPI PUSH2 0x547 PUSH2 0x191A JUMP JUMPDEST JUMPDEST PUSH1 0x40 MLOAD SWAP1 DUP1 DUP3 MSTORE DUP1 PUSH1 0x20 MUL PUSH1 0x20 ADD DUP3 ADD PUSH1 0x40 MSTORE DUP1 ISZERO PUSH2 0x576 JUMPI DUP2 PUSH1 0x20 ADD PUSH1 0x20 DUP3 MUL DUP1 CALLDATASIZE DUP4 CALLDATACOPY DUP1 DUP3 ADD SWAP2 POP POP SWAP1 POP JUMPDEST POP SWAP5 POP PUSH1 0x0 DUP1 PUSH1 0x1 SWAP1 POP JUMPDEST DUP4 DUP2 GT PUSH2 0x673 JUMPI PUSH1 0x0 PUSH1 0x9 SLOAD DUP3 PUSH2 0x598 SWAP2 SWAP1 PUSH2 0x185C JUMP JUMPDEST PUSH1 0xA SLOAD PUSH2 0x5A5 SWAP2 SWAP1 PUSH2 0x189E JUMP JUMPDEST SWAP1 POP DUP1 DUP7 GT DUP1 ISZERO PUSH2 0x5D4 JUMPI POP PUSH1 0xE PUSH1 0x0 DUP4 DUP2 MSTORE PUSH1 0x20 ADD SWAP1 DUP2 MSTORE PUSH1 0x20 ADD PUSH1 0x0 KECCAK256 PUSH1 0x0 SWAP1 SLOAD SWAP1 PUSH2 0x100 EXP SWAP1 DIV PUSH1 0xFF AND ISZERO JUMPDEST ISZERO PUSH2 0x65F JUMPI PUSH1 0x0 PUSH1 0x64 PUSH1 0x3 SLOAD PUSH1 0x2 SLOAD PUSH2 0x5ED SWAP2 SWAP1 PUSH2 0x185C JUMP JUMPDEST PUSH2 0x5F7 SWAP2 SWAP1 PUSH2 0x182B JUMP JUMPDEST PUSH1 0x2 SLOAD PUSH2 0x604 SWAP2 SWAP1 PUSH2 0x189E JUMP JUMPDEST SWAP1 POP PUSH1 0x0 PUSH1 0x8 SLOAD DUP5 DUP4 PUSH2 0x617 SWAP2 SWAP1 PUSH2 0x185C JUMP JUMPDEST PUSH2 0x621 SWAP2 SWAP1 PUSH2 0x182B JUMP JUMPDEST SWAP1 POP DUP1 PUSH1 0xB SLOAD LT ISZERO PUSH2 0x65C JUMPI DUP4 DUP11 DUP7 DUP2 MLOAD DUP2 LT PUSH2 0x641 JUMPI PUSH2 0x640 PUSH2 0x1949 JUMP JUMPDEST JUMPDEST PUSH1 0x20 MUL PUSH1 0x20 ADD ADD DUP2 DUP2 MSTORE POP POP DUP5 DUP1 PUSH2 0x658 SWAP1 PUSH2 0x18D2 JUMP JUMPDEST SWAP6 POP POP JUMPDEST POP POP JUMPDEST POP DUP1 DUP1 PUSH2 0x66B SWAP1 PUSH2 0x18D2 JUMP JUMPDEST SWAP2 POP POP PUSH2 0x581 JUMP JUMPDEST POP DUP2 SWAP5 POP POP POP POP POP SWAP1 SWAP2 JUMP JUMPDEST PUSH1 0x1 PUSH1 0x0 SWAP1 SLOAD SWAP1 PUSH2 0x100 EXP SWAP1 DIV PUSH20 0xFFFFFFFFFFFFFFFFFFFFFFFFFFFFFFFFFFFFFFFF AND PUSH20 0xFFFFFFFFFFFFFFFFFFFFFFFFFFFFFFFFFFFFFFFF AND CALLER PUSH20 0xFFFFFFFFFFFFFFFFFFFFFFFFFFFFFFFFFFFFFFFF AND EQ PUSH2 0x70F JUMPI PUSH1 0x40 MLOAD PUSH32 0x8C379A000000000000000000000000000000000000000000000000000000000 DUP2 MSTORE PUSH1 0x4 ADD PUSH2 0x706 SWAP1 PUSH2 0x19D5 JUMP JUMPDEST PUSH1 0x40 MLOAD DUP1 SWAP2 SUB SWAP1 REVERT JUMPDEST PUSH2 0x717 PUSH2 0xB6C JUMP JUMPDEST PUSH1 0x0 PUSH2 0x721 PUSH2 0x1060 JUMP JUMPDEST SWAP1 POP PUSH1 0x0 PUSH1 0xB SLOAD DUP3 PUSH2 0x733 SWAP2 SWAP1 PUSH2 0x17C8 JUMP JUMPDEST SWAP1 POP PUSH1 0x0 PUSH1 0x6 PUSH1 0x0 SWAP1 SLOAD SWAP1 PUSH2 0x100 EXP SWAP1 DIV PUSH20 0xFFFFFFFFFFFFFFFFFFFFFFFFFFFFFFFFFFFFFFFF AND SWAP1 POP PUSH32 0xB660CB1C866503D0663185064F29F91C40C52213A6F3D80BDA170BB0012016BF DUP2 PUSH20 0xFFFFFFFFFFFFFFFFFFFFFFFFFFFFFFFFFFFFFFFF AND PUSH4 0xDD62ED3E CALLER ADDRESS PUSH1 0x40 MLOAD DUP4 PUSH4 0xFFFFFFFF AND PUSH1 0xE0 SHL DUP2 MSTORE PUSH1 0x4 ADD PUSH2 0x7B8 SWAP3 SWAP2 SWAP1 PUSH2 0x19F5 JUMP JUMPDEST PUSH1 0x20 PUSH1 0x40 MLOAD DUP1 DUP4 SUB DUP2 DUP7 GAS STATICCALL ISZERO DUP1 ISZERO PUSH2 0x7D5 JUMPI RETURNDATASIZE PUSH1 0x0 DUP1 RETURNDATACOPY RETURNDATASIZE PUSH1 0x0 REVERT JUMPDEST POP POP POP POP PUSH1 0x40 MLOAD RETURNDATASIZE PUSH1 0x1F NOT PUSH1 0x1F DUP3 ADD AND DUP3 ADD DUP1 PUSH1 0x40 MSTORE POP DUP2 ADD SWAP1 PUSH2 0x7F9 SWAP2 SWAP1 PUSH2 0x1A33 JUMP JUMPDEST DUP3 PUSH20 0xFFFFFFFFFFFFFFFFFFFFFFFFFFFFFFFFFFFFFFFF AND PUSH4 0x70A08231 CALLER PUSH1 0x40 MLOAD DUP3 PUSH4 0xFFFFFFFF AND PUSH1 0xE0 SHL DUP2 MSTORE PUSH1 0x4 ADD PUSH2 0x832 SWAP2 SWAP1 PUSH2 0x1748 JUMP JUMPDEST PUSH1 0x20 PUSH1 0x40 MLOAD DUP1 DUP4 SUB DUP2 DUP7 GAS STATICCALL ISZERO DUP1 ISZERO PUSH2 0x84F JUMPI RETURNDATASIZE PUSH1 0x0 DUP1 RETURNDATACOPY RETURNDATASIZE PUSH1 0x0 REVERT JUMPDEST POP POP POP POP PUSH1 0x40 MLOAD RETURNDATASIZE PUSH1 0x1F NOT PUSH1 0x1F DUP3 ADD AND DUP3 ADD DUP1 PUSH1 0x40 MSTORE POP DUP2 ADD SWAP1 PUSH2 0x873 SWAP2 SWAP1 PUSH2 0x1A33 JUMP JUMPDEST DUP6 PUSH1 0x40 MLOAD PUSH2 0x883 SWAP4 SWAP3 SWAP2 SWAP1 PUSH2 0x1A60 JUMP JUMPDEST PUSH1 0x40 MLOAD DUP1 SWAP2 SUB SWAP1 LOG1 PUSH1 0x0 DUP5 SWAP1 POP PUSH1 0x0 DUP4 DUP7 GT ISZERO PUSH2 0x8AC JUMPI DUP4 SWAP2 POP DUP4 DUP7 PUSH2 0x8A9 SWAP2 SWAP1 PUSH2 0x17C8 JUMP JUMPDEST SWAP1 POP JUMPDEST PUSH1 0x0 DUP3 GT ISZERO PUSH2 0x96E JUMPI PUSH2 0x902 CALLER PUSH1 0x0 DUP1 SLOAD SWAP1 PUSH2 0x100 EXP SWAP1 DIV PUSH20 0xFFFFFFFFFFFFFFFFFFFFFFFFFFFFFFFFFFFFFFFF AND DUP5 DUP7 PUSH20 0xFFFFFFFFFFFFFFFFFFFFFFFFFFFFFFFFFFFFFFFF AND PUSH2 0x124D SWAP1 SWAP4 SWAP3 SWAP2 SWAP1 PUSH4 0xFFFFFFFF AND JUMP JUMPDEST DUP2 PUSH1 0xB PUSH1 0x0 DUP3 DUP3 SLOAD PUSH2 0x914 SWAP2 SWAP1 PUSH2 0x189E JUMP JUMPDEST SWAP3 POP POP DUP2 SWAP1 SSTORE POP CALLER PUSH20 0xFFFFFFFFFFFFFFFFFFFFFFFFFFFFFFFFFFFFFFFF AND PUSH32 0x1B8CD61ED43BEC7C6BDAD3A18FFEE613F99C853D16C50678D248D879E1B43438 DUP4 PUSH1 0xB SLOAD PUSH1 0x40 MLOAD PUSH2 0x965 SWAP3 SWAP2 SWAP1 PUSH2 0x1A97 JUMP JUMPDEST PUSH1 0x40 MLOAD DUP1 SWAP2 SUB SWAP1 LOG2 JUMPDEST PUSH1 0x0 DUP2 GT ISZERO PUSH2 0xA37 JUMPI PUSH2 0x9C6 CALLER PUSH1 0x1 PUSH1 0x0 SWAP1 SLOAD SWAP1 PUSH2 0x100 EXP SWAP1 DIV PUSH20 0xFFFFFFFFFFFFFFFFFFFFFFFFFFFFFFFFFFFFFFFF AND DUP4 DUP7 PUSH20 0xFFFFFFFFFFFFFFFFFFFFFFFFFFFFFFFFFFFFFFFF AND PUSH2 0x124D SWAP1 SWAP4 SWAP3 SWAP2 SWAP1 PUSH4 0xFFFFFFFF AND JUMP JUMPDEST PUSH1 0x1 PUSH1 0x0 SWAP1 SLOAD SWAP1 PUSH2 0x100 EXP SWAP1 DIV PUSH20 0xFFFFFFFFFFFFFFFFFFFFFFFFFFFFFFFFFFFFFFFF AND PUSH20 0xFFFFFFFFFFFFFFFFFFFFFFFFFFFFFFFFFFFFFFFF AND PUSH32 0xA171B6942063C6F2800CE40A780EDCE37BAA2B618571B11EEDD1E69E626E7D76 DUP3 PUSH1 0x40 MLOAD PUSH2 0xA2E SWAP2 SWAP1 PUSH2 0x150E JUMP JUMPDEST PUSH1 0x40 MLOAD DUP1 SWAP2 SUB SWAP1 LOG2 JUMPDEST PUSH1 0x1 PUSH1 0x2 DUP2 GT ISZERO PUSH2 0xA4B JUMPI PUSH2 0xA4A PUSH2 0x1675 JUMP JUMPDEST JUMPDEST PUSH2 0xA53 PUSH2 0xB1B JUMP JUMPDEST PUSH1 0x2 DUP2 GT ISZERO PUSH2 0xA65 JUMPI PUSH2 0xA64 PUSH2 0x1675 JUMP JUMPDEST JUMPDEST SUB PUSH2 0xB13 JUMPI ADDRESS PUSH20 0xFFFFFFFFFFFFFFFFFFFFFFFFFFFFFFFFFFFFFFFF AND PUSH32 0x927542D877F6EF1FB1779CB252A65AAA543F48E6D9ABC25433C57E19CECCF61D PUSH1 0x40 MLOAD PUSH1 0x40 MLOAD DUP1 SWAP2 SUB SWAP1 LOG2 PUSH1 0x0 DUP1 PUSH1 0x1 SWAP1 POP JUMPDEST PUSH1 0x8 SLOAD DUP2 GT PUSH2 0xB00 JUMPI PUSH1 0xE PUSH1 0x0 DUP3 DUP2 MSTORE PUSH1 0x20 ADD SWAP1 DUP2 MSTORE PUSH1 0x20 ADD PUSH1 0x0 KECCAK256 PUSH1 0x0 SWAP1 SLOAD SWAP1 PUSH2 0x100 EXP SWAP1 DIV PUSH1 0xFF AND ISZERO PUSH2 0xAED JUMPI PUSH1 0x1 SWAP2 POP PUSH2 0xB00 JUMP JUMPDEST DUP1 DUP1 PUSH2 0xAF8 SWAP1 PUSH2 0x18D2 JUMP JUMPDEST SWAP2 POP POP PUSH2 0xAB5 JUMP JUMPDEST POP DUP1 PUSH2 0xB11 JUMPI PUSH2 0xB10 PUSH1 0x1 PUSH2 0x12CF JUMP JUMPDEST JUMPDEST POP JUMPDEST POP POP POP POP POP POP JUMP JUMPDEST PUSH1 0x0 PUSH1 0xD PUSH1 0x0 SWAP1 SLOAD SWAP1 PUSH2 0x100 EXP SWAP1 DIV PUSH1 0xFF AND ISZERO PUSH2 0xB3B JUMPI PUSH1 0x2 SWAP1 POP PUSH2 0xB59 JUMP JUMPDEST PUSH2 0xB43 PUSH2 0x1060 JUMP JUMPDEST PUSH1 0xB SLOAD LT PUSH2 0xB54 JUMPI PUSH1 0x1 SWAP1 POP PUSH2 0xB59 JUMP JUMPDEST PUSH1 0x0 SWAP1 POP JUMPDEST SWAP1 JUMP JUMPDEST PUSH1 0x0 PUSH1 0xB SLOAD SWAP1 POP SWAP1 JUMP JUMPDEST PUSH1 0x4 SLOAD DUP2 JUMP JUMPDEST PUSH1 0x0 TIMESTAMP SWAP1 POP PUSH1 0x0 PUSH1 0x9 SLOAD PUSH1 0xA SLOAD DUP4 PUSH2 0xB84 SWAP2 SWAP1 PUSH2 0x17C8 JUMP JUMPDEST PUSH2 0xB8E SWAP2 SWAP1 PUSH2 0x182B JUMP JUMPDEST SWAP1 POP PUSH1 0x8 SLOAD DUP2 GT ISZERO PUSH2 0xBA0 JUMPI PUSH1 0x8 SLOAD SWAP1 POP JUMPDEST PUSH1 0x0 PUSH1 0x1 SWAP1 POP JUMPDEST DUP2 DUP2 GT PUSH2 0xE13 JUMPI PUSH1 0x0 PUSH1 0x9 SLOAD DUP3 PUSH2 0xBBE SWAP2 SWAP1 PUSH2 0x185C JUMP JUMPDEST PUSH1 0xA SLOAD PUSH2 0xBCB SWAP2 SWAP1 PUSH2 0x189E JUMP JUMPDEST SWAP1 POP DUP1 DUP5 GT DUP1 ISZERO PUSH2 0xBFA JUMPI POP PUSH1 0xE PUSH1 0x0 DUP4 DUP2 MSTORE PUSH1 0x20 ADD SWAP1 DUP2 MSTORE PUSH1 0x20 ADD PUSH1 0x0 KECCAK256 PUSH1 0x0 SWAP1 SLOAD SWAP1 PUSH2 0x100 EXP SWAP1 DIV PUSH1 0xFF AND ISZERO JUMPDEST ISZERO PUSH2 0xDFF JUMPI PUSH1 0x0 PUSH1 0x64 PUSH1 0x3 SLOAD PUSH1 0x2 SLOAD PUSH2 0xC13 SWAP2 SWAP1 PUSH2 0x185C JUMP JUMPDEST PUSH2 0xC1D SWAP2 SWAP1 PUSH2 0x182B JUMP JUMPDEST PUSH1 0x2 SLOAD PUSH2 0xC2A SWAP2 SWAP1 PUSH2 0x189E JUMP JUMPDEST SWAP1 POP PUSH1 0x0 PUSH1 0x8 SLOAD DUP5 DUP4 PUSH2 0xC3D SWAP2 SWAP1 PUSH2 0x185C JUMP JUMPDEST PUSH2 0xC47 SWAP2 SWAP1 PUSH2 0x182B JUMP JUMPDEST SWAP1 POP DUP1 PUSH1 0xB SLOAD LT ISZERO PUSH2 0xDFC JUMPI PUSH1 0x0 PUSH1 0x8 SLOAD DUP4 PUSH2 0xC63 SWAP2 SWAP1 PUSH2 0x182B JUMP JUMPDEST SWAP1 POP PUSH1 0x0 PUSH1 0x64 PUSH1 0x5 SLOAD DUP4 PUSH2 0xC77 SWAP2 SWAP1 PUSH2 0x185C JUMP JUMPDEST PUSH2 0xC81 SWAP2 SWAP1 PUSH2 0x182B JUMP JUMPDEST SWAP1 POP DUP1 PUSH1 0xC PUSH1 0x0 DUP3 DUP3 SLOAD PUSH2 0xC95 SWAP2 SWAP1 PUSH2 0x189E JUMP JUMPDEST SWAP3 POP POP DUP2 SWAP1 SSTORE POP PUSH1 0x1 PUSH1 0xE PUSH1 0x0 DUP9 DUP2 MSTORE PUSH1 0x20 ADD SWAP1 DUP2 MSTORE PUSH1 0x20 ADD PUSH1 0x0 KECCAK256 PUSH1 0x0 PUSH2 0x100 EXP DUP2 SLOAD DUP2 PUSH1 0xFF MUL NOT AND SWAP1 DUP4 ISZERO ISZERO MUL OR SWAP1 SSTORE POP PUSH2 0xCF1 PUSH32 0xFFFFFFFFFFFFFFFFFFFFFFFFFFFFFFFFFFFFFFFFFFFFFFFFFFFFFFFFFFFFFFFF PUSH2 0x12CF JUMP JUMPDEST PUSH1 0x1 PUSH1 0x0 SWAP1 SLOAD SWAP1 PUSH2 0x100 EXP SWAP1 DIV PUSH20 0xFFFFFFFFFFFFFFFFFFFFFFFFFFFFFFFFFFFFFFFF AND PUSH20 0xFFFFFFFFFFFFFFFFFFFFFFFFFFFFFFFFFFFFFFFF AND PUSH32 0xA7BD5BABEC89BE19BD24D4899772D4A15BCA76BF6EF0E38F879570888F2EA580 DUP8 PUSH32 0xFFFFFFFFFFFFFFFFFFFFFFFFFFFFFFFFFFFFFFFFFFFFFFFFFFFFFFFFFFFFFFFF PUSH1 0x40 MLOAD PUSH2 0xD7B SWAP3 SWAP2 SWAP1 PUSH2 0x1B0F JUMP JUMPDEST PUSH1 0x40 MLOAD DUP1 SWAP2 SUB SWAP1 LOG2 PUSH1 0x1 PUSH1 0x0 SWAP1 SLOAD SWAP1 PUSH2 0x100 EXP SWAP1 DIV PUSH20 0xFFFFFFFFFFFFFFFFFFFFFFFFFFFFFFFFFFFFFFFF AND PUSH20 0xFFFFFFFFFFFFFFFFFFFFFFFFFFFFFFFFFFFFFFFF AND PUSH32 0x5404A4578129817A8C738F6C714573AA3C1A10E2107E949FCD86A29B7F1B66D6 DUP8 DUP4 PUSH1 0xC SLOAD PUSH1 0x40 MLOAD PUSH2 0xDF1 SWAP4 SWAP3 SWAP2 SWAP1 PUSH2 0x1A60 JUMP JUMPDEST PUSH1 0x40 MLOAD DUP1 SWAP2 SUB SWAP1 LOG2 POP POP JUMPDEST POP POP JUMPDEST POP DUP1 DUP1 PUSH2 0xE0B SWAP1 PUSH2 0x18D2 JUMP JUMPDEST SWAP2 POP POP PUSH2 0xBA7 JUMP JUMPDEST POP POP POP JUMP JUMPDEST PUSH1 0x1 PUSH1 0x0 SWAP1 SLOAD SWAP1 PUSH2 0x100 EXP SWAP1 DIV PUSH20 0xFFFFFFFFFFFFFFFFFFFFFFFFFFFFFFFFFFFFFFFF AND DUP2 JUMP JUMPDEST PUSH1 0x0 DUP1 SLOAD SWAP1 PUSH2 0x100 EXP SWAP1 DIV PUSH20 0xFFFFFFFFFFFFFFFFFFFFFFFFFFFFFFFFFFFFFFFF AND PUSH20 0xFFFFFFFFFFFFFFFFFFFFFFFFFFFFFFFFFFFFFFFF AND CALLER PUSH20 0xFFFFFFFFFFFFFFFFFFFFFFFFFFFFFFFFFFFFFFFF AND EQ PUSH2 0xECC JUMPI PUSH1 0x40 MLOAD PUSH32 0x8C379A000000000000000000000000000000000000000000000000000000000 DUP2 MSTORE PUSH1 0x4 ADD PUSH2 0xEC3 SWAP1 PUSH2 0x1B84 JUMP JUMPDEST PUSH1 0x40 MLOAD DUP1 SWAP2 SUB SWAP1 REVERT JUMPDEST PUSH1 0x0 PUSH1 0x2 DUP2 GT ISZERO PUSH2 0xEE0 JUMPI PUSH2 0xEDF PUSH2 0x1675 JUMP JUMPDEST JUMPDEST PUSH2 0xEE8 PUSH2 0xB1B JUMP JUMPDEST PUSH1 0x2 DUP2 GT ISZERO PUSH2 0xEFA JUMPI PUSH2 0xEF9 PUSH2 0x1675 JUMP JUMPDEST JUMPDEST EQ PUSH2 0xF3A JUMPI PUSH1 0x40 MLOAD PUSH32 0x8C379A000000000000000000000000000000000000000000000000000000000 DUP2 MSTORE PUSH1 0x4 ADD PUSH2 0xF31 SWAP1 PUSH2 0x1C16 JUMP JUMPDEST PUSH1 0x40 MLOAD DUP1 SWAP2 SUB SWAP1 REVERT JUMPDEST PUSH1 0x9 SLOAD PUSH1 0x8 SLOAD PUSH2 0xF4A SWAP2 SWAP1 PUSH2 0x185C JUMP JUMPDEST PUSH1 0xA SLOAD PUSH2 0xF57 SWAP2 SWAP1 PUSH2 0x189E JUMP JUMPDEST TIMESTAMP GT PUSH2 0xF98 JUMPI PUSH1 0x40 MLOAD PUSH32 0x8C379A000000000000000000000000000000000000000000000000000000000 DUP2 MSTORE PUSH1 0x4 ADD PUSH2 0xF8F SWAP1 PUSH2 0x1C82 JUMP JUMPDEST PUSH1 0x40 MLOAD DUP1 SWAP2 SUB SWAP1 REVERT JUMPDEST PUSH2 0xFA0 PUSH2 0xB6C JUMP JUMPDEST PUSH1 0x1 PUSH1 0xD PUSH1 0x0 PUSH2 0x100 EXP DUP2 SLOAD DUP2 PUSH1 0xFF MUL NOT AND SWAP1 DUP4 ISZERO ISZERO MUL OR SWAP1 SSTORE POP PUSH1 0x0 DUP1 SLOAD SWAP1 PUSH2 0x100 EXP SWAP1 DIV PUSH20 0xFFFFFFFFFFFFFFFFFFFFFFFFFFFFFFFFFFFFFFFF AND PUSH20 0xFFFFFFFFFFFFFFFFFFFFFFFFFFFFFFFFFFFFFFFF AND ADDRESS PUSH20 0xFFFFFFFFFFFFFFFFFFFFFFFFFFFFFFFFFFFFFFFF AND PUSH32 0xA6E9ACF469D627E8F02EEC880995BB6F37ECADEA71C528F0E35081BD77E91897 PUSH1 0x40 MLOAD PUSH1 0x40 MLOAD DUP1 SWAP2 SUB SWAP1 LOG3 PUSH2 0x105E PUSH32 0xFFFFFFFFFFFFFFFFFFFFFFFFFFFFFFFFFFFFFFFFFFFFFFFFFFFFFFFFFFFFFFFE PUSH2 0x12CF JUMP JUMPDEST JUMP JUMPDEST PUSH1 0x0 PUSH1 0x64 PUSH1 0x3 SLOAD PUSH1 0x2 SLOAD PUSH2 0x1074 SWAP2 SWAP1 PUSH2 0x185C JUMP JUMPDEST PUSH2 0x107E SWAP2 SWAP1 PUSH2 0x182B JUMP JUMPDEST PUSH1 0x2 SLOAD PUSH2 0x108B SWAP2 SWAP1 PUSH2 0x189E JUMP JUMPDEST SWAP1 POP PUSH1 0xC SLOAD DUP2 PUSH2 0x109B SWAP2 SWAP1 PUSH2 0x189E JUMP JUMPDEST SWAP1 POP SWAP1 JUMP JUMPDEST PUSH1 0x0 DUP1 PUSH1 0x9 SLOAD PUSH1 0xA SLOAD TIMESTAMP PUSH2 0x10B4 SWAP2 SWAP1 PUSH2 0x17C8 JUMP JUMPDEST PUSH2 0x10BE SWAP2 SWAP1 PUSH2 0x182B JUMP JUMPDEST SWAP1 POP PUSH1 0x8 SLOAD DUP2 GT ISZERO PUSH2 0x10D0 JUMPI PUSH1 0x8 SLOAD SWAP1 POP JUMPDEST PUSH1 0x0 PUSH1 0x64 PUSH1 0x3 SLOAD PUSH1 0x2 SLOAD PUSH2 0x10E4 SWAP2 SWAP1 PUSH2 0x185C JUMP JUMPDEST PUSH2 0x10EE SWAP2 SWAP1 PUSH2 0x182B JUMP JUMPDEST PUSH1 0x2 SLOAD PUSH2 0x10FB SWAP2 SWAP1 PUSH2 0x189E JUMP JUMPDEST SWAP1 POP PUSH1 0x0 PUSH1 0x8 SLOAD DUP4 DUP4 PUSH2 0x110E SWAP2 SWAP1 PUSH2 0x185C JUMP JUMPDEST PUSH2 0x1118 SWAP2 SWAP1 PUSH2 0x182B JUMP JUMPDEST SWAP1 POP PUSH1 0xB SLOAD DUP2 GT ISZERO PUSH2 0x1170 JUMPI PUSH1 0x0 PUSH1 0xB SLOAD DUP3 PUSH2 0x1134 SWAP2 SWAP1 PUSH2 0x17C8 JUMP JUMPDEST SWAP1 POP PUSH1 0x0 PUSH1 0x8 SLOAD DUP5 PUSH2 0x1146 SWAP2 SWAP1 PUSH2 0x182B JUMP JUMPDEST SWAP1 POP DUP1 PUSH1 0x1 DUP3 DUP5 PUSH2 0x1157 SWAP2 SWAP1 PUSH2 0x189E JUMP JUMPDEST PUSH2 0x1161 SWAP2 SWAP1 PUSH2 0x17C8 JUMP JUMPDEST PUSH2 0x116B SWAP2 SWAP1 PUSH2 0x182B JUMP JUMPDEST SWAP6 POP POP POP JUMPDEST POP POP POP SWAP1 JUMP JUMPDEST PUSH1 0x6 PUSH1 0x0 SWAP1 SLOAD SWAP1 PUSH2 0x100 EXP SWAP1 DIV PUSH20 0xFFFFFFFFFFFFFFFFFFFFFFFFFFFFFFFFFFFFFFFF AND DUP2 JUMP JUMPDEST PUSH1 0x0 PUSH1 0x4 SLOAD SWAP1 POP SWAP1 JUMP JUMPDEST PUSH1 0x2 SLOAD DUP2 JUMP JUMPDEST PUSH1 0x0 DUP1 SLOAD SWAP1 PUSH2 0x100 EXP SWAP1 DIV PUSH20 0xFFFFFFFFFFFFFFFFFFFFFFFFFFFFFFFFFFFFFFFF AND DUP2 JUMP JUMPDEST PUSH1 0x7 PUSH1 0x0 SWAP1 SLOAD SWAP1 PUSH2 0x100 EXP SWAP1 DIV PUSH20 0xFFFFFFFFFFFFFFFFFFFFFFFFFFFFFFFFFFFFFFFF AND DUP2 JUMP JUMPDEST PUSH1 0xC SLOAD DUP2 JUMP JUMPDEST PUSH1 0x8 SLOAD DUP2 JUMP JUMPDEST PUSH1 0xD PUSH1 0x0 SWAP1 SLOAD SWAP1 PUSH2 0x100 EXP SWAP1 DIV PUSH1 0xFF AND DUP2 JUMP JUMPDEST PUSH1 0x3 SLOAD DUP2 JUMP JUMPDEST PUSH1 0x9 SLOAD DUP2 JUMP JUMPDEST PUSH1 0xE PUSH1 0x20 MSTORE DUP1 PUSH1 0x0 MSTORE PUSH1 0x40 PUSH1 0x0 KECCAK256 PUSH1 0x0 SWAP2 POP SLOAD SWAP1 PUSH2 0x100 EXP SWAP1 DIV PUSH1 0xFF AND DUP2 JUMP JUMPDEST PUSH1 0xA SLOAD DUP2 JUMP JUMPDEST PUSH1 0xB SLOAD DUP2 JUMP JUMPDEST PUSH2 0x12C9 DUP5 DUP6 PUSH20 0xFFFFFFFFFFFFFFFFFFFFFFFFFFFFFFFFFFFFFFFF AND PUSH4 0x23B872DD DUP7 DUP7 DUP7 PUSH1 0x40 MLOAD PUSH1 0x24 ADD PUSH2 0x1282 SWAP4 SWAP3 SWAP2 SWAP1 PUSH2 0x1CA2 JUMP JUMPDEST PUSH1 0x40 MLOAD PUSH1 0x20 DUP2 DUP4 SUB SUB DUP2 MSTORE SWAP1 PUSH1 0x40 MSTORE SWAP2 POP PUSH1 0xE0 SHL PUSH1 0x20 DUP3 ADD DUP1 MLOAD PUSH28 0xFFFFFFFFFFFFFFFFFFFFFFFFFFFFFFFFFFFFFFFFFFFFFFFFFFFFFFFF DUP4 DUP2 DUP4 AND OR DUP4 MSTORE POP POP POP POP PUSH2 0x1453 JUMP JUMPDEST POP POP POP POP JUMP JUMPDEST PUSH1 0x0 PUSH1 0x7 PUSH1 0x0 SWAP1 SLOAD SWAP1 PUSH2 0x100 EXP SWAP1 DIV PUSH20 0xFFFFFFFFFFFFFFFFFFFFFFFFFFFFFFFFFFFFFFFF AND PUSH20 0xFFFFFFFFFFFFFFFFFFFFFFFFFFFFFFFFFFFFFFFF AND PUSH1 0x1 PUSH1 0x0 SWAP1 SLOAD SWAP1 PUSH2 0x100 EXP SWAP1 DIV PUSH20 0xFFFFFFFFFFFFFFFFFFFFFFFFFFFFFFFFFFFFFFFF AND DUP4 PUSH1 0x40 MLOAD PUSH1 0x24 ADD PUSH2 0x133F SWAP3 SWAP2 SWAP1 PUSH2 0x1CE8 JUMP JUMPDEST PUSH1 0x40 MLOAD PUSH1 0x20 DUP2 DUP4 SUB SUB DUP2 MSTORE SWAP1 PUSH1 0x40 MSTORE PUSH32 0xE766784D00000000000000000000000000000000000000000000000000000000 PUSH28 0xFFFFFFFFFFFFFFFFFFFFFFFFFFFFFFFFFFFFFFFFFFFFFFFFFFFFFFFF NOT AND PUSH1 0x20 DUP3 ADD DUP1 MLOAD PUSH28 0xFFFFFFFFFFFFFFFFFFFFFFFFFFFFFFFFFFFFFFFFFFFFFFFFFFFFFFFF DUP4 DUP2 DUP4 AND OR DUP4 MSTORE POP POP POP POP PUSH1 0x40 MLOAD PUSH2 0x13C9 SWAP2 SWAP1 PUSH2 0x1D82 JUMP JUMPDEST PUSH1 0x0 PUSH1 0x40 MLOAD DUP1 DUP4 SUB DUP2 PUSH1 0x0 DUP7 GAS CALL SWAP2 POP POP RETURNDATASIZE DUP1 PUSH1 0x0 DUP2 EQ PUSH2 0x1406 JUMPI PUSH1 0x40 MLOAD SWAP2 POP PUSH1 0x1F NOT PUSH1 0x3F RETURNDATASIZE ADD AND DUP3 ADD PUSH1 0x40 MSTORE RETURNDATASIZE DUP3 MSTORE RETURNDATASIZE PUSH1 0x0 PUSH1 0x20 DUP5 ADD RETURNDATACOPY PUSH2 0x140B JUMP JUMPDEST PUSH1 0x60 SWAP2 POP JUMPDEST POP POP SWAP1 POP DUP1 PUSH2 0x144F JUMPI PUSH1 0x40 MLOAD PUSH32 0x8C379A000000000000000000000000000000000000000000000000000000000 DUP2 MSTORE PUSH1 0x4 ADD PUSH2 0x1446 SWAP1 PUSH2 0x1DE5 JUMP JUMPDEST PUSH1 0x40 MLOAD DUP1 SWAP2 SUB SWAP1 REVERT JUMPDEST POP POP JUMP JUMPDEST PUSH1 0x0 DUP1 PUSH1 0x20 PUSH1 0x0 DUP5 MLOAD PUSH1 0x20 DUP7 ADD PUSH1 0x0 DUP9 GAS CALL DUP1 PUSH2 0x1476 JUMPI PUSH1 0x40 MLOAD RETURNDATASIZE PUSH1 0x0 DUP3 RETURNDATACOPY RETURNDATASIZE DUP2 REVERT JUMPDEST RETURNDATASIZE SWAP3 POP PUSH1 0x0 MLOAD SWAP2 POP POP PUSH1 0x0 DUP3 EQ PUSH2 0x1491 JUMPI PUSH1 0x1 DUP2 EQ ISZERO PUSH2 0x14AD JUMP JUMPDEST PUSH1 0x0 DUP5 PUSH20 0xFFFFFFFFFFFFFFFFFFFFFFFFFFFFFFFFFFFFFFFF AND EXTCODESIZE EQ JUMPDEST ISZERO PUSH2 0x14EF JUMPI DUP4 PUSH1 0x40 MLOAD PUSH32 0x5274AFE700000000000000000000000000000000000000000000000000000000 DUP2 MSTORE PUSH1 0x4 ADD PUSH2 0x14E6 SWAP2 SWAP1 PUSH2 0x1748 JUMP JUMPDEST PUSH1 0x40 MLOAD DUP1 SWAP2 SUB SWAP1 REVERT JUMPDEST POP POP POP POP JUMP JUMPDEST PUSH1 0x0 DUP2 SWAP1 POP SWAP2 SWAP1 POP JUMP JUMPDEST PUSH2 0x1508 DUP2 PUSH2 0x14F5 JUMP JUMPDEST DUP3 MSTORE POP POP JUMP JUMPDEST PUSH1 0x0 PUSH1 0x20 DUP3 ADD SWAP1 POP PUSH2 0x1523 PUSH1 0x0 DUP4 ADD DUP5 PUSH2 0x14FF JUMP JUMPDEST SWAP3 SWAP2 POP POP JUMP JUMPDEST PUSH1 0x0 DUP2 MLOAD SWAP1 POP SWAP2 SWAP1 POP JUMP JUMPDEST PUSH1 0x0 DUP3 DUP3 MSTORE PUSH1 0x20 DUP3 ADD SWAP1 POP SWAP3 SWAP2 POP POP JUMP JUMPDEST PUSH1 0x0 DUP2 SWAP1 POP PUSH1 0x20 DUP3 ADD SWAP1 POP SWAP2 SWAP1 POP JUMP JUMPDEST PUSH2 0x155E DUP2 PUSH2 0x14F5 JUMP JUMPDEST DUP3 MSTORE POP POP JUMP JUMPDEST PUSH1 0x0 PUSH2 0x1570 DUP4 DUP4 PUSH2 0x1555 JUMP JUMPDEST PUSH1 0x20 DUP4 ADD SWAP1 POP SWAP3 SWAP2 POP POP JUMP JUMPDEST PUSH1 0x0 PUSH1 0x20 DUP3 ADD SWAP1 POP SWAP2 SWAP1 POP JUMP JUMPDEST PUSH1 0x0 PUSH2 0x1594 DUP3 PUSH2 0x1529 JUMP JUMPDEST PUSH2 0x159E DUP2 DUP6 PUSH2 0x1534 JUMP JUMPDEST SWAP4 POP PUSH2 0x15A9 DUP4 PUSH2 0x1545 JUMP JUMPDEST DUP1 PUSH1 0x0 JUMPDEST DUP4 DUP2 LT ISZERO PUSH2 0x15DA JUMPI DUP2 MLOAD PUSH2 0x15C1 DUP9 DUP3 PUSH2 0x1564 JUMP JUMPDEST SWAP8 POP PUSH2 0x15CC DUP4 PUSH2 0x157C JUMP JUMPDEST SWAP3 POP POP PUSH1 0x1 DUP2 ADD SWAP1 POP PUSH2 0x15AD JUMP JUMPDEST POP DUP6 SWAP4 POP POP POP POP SWAP3 SWAP2 POP POP JUMP JUMPDEST PUSH1 0x0 PUSH1 0x40 DUP3 ADD SWAP1 POP DUP2 DUP2 SUB PUSH1 0x0 DUP4 ADD MSTORE PUSH2 0x1601 DUP2 DUP6 PUSH2 0x1589 JUMP JUMPDEST SWAP1 POP PUSH2 0x1610 PUSH1 0x20 DUP4 ADD DUP5 PUSH2 0x14FF JUMP JUMPDEST SWAP4 SWAP3 POP POP POP JUMP JUMPDEST PUSH1 0x0 DUP1 REVERT JUMPDEST PUSH2 0x1625 DUP2 PUSH2 0x14F5 JUMP JUMPDEST DUP2 EQ PUSH2 0x1630 JUMPI PUSH1 0x0 DUP1 REVERT JUMPDEST POP JUMP JUMPDEST PUSH1 0x0 DUP2 CALLDATALOAD SWAP1 POP PUSH2 0x1642 DUP2 PUSH2 0x161C JUMP JUMPDEST SWAP3 SWAP2 POP POP JUMP JUMPDEST PUSH1 0x0 PUSH1 0x20 DUP3 DUP5 SUB SLT ISZERO PUSH2 0x165E JUMPI PUSH2 0x165D PUSH2 0x1617 JUMP JUMPDEST JUMPDEST PUSH1 0x0 PUSH2 0x166C DUP5 DUP3 DUP6 ADD PUSH2 0x1633 JUMP JUMPDEST SWAP2 POP POP SWAP3 SWAP2 POP POP JUMP JUMPDEST PUSH32 0x4E487B7100000000000000000000000000000000000000000000000000000000 PUSH1 0x0 MSTORE PUSH1 0x21 PUSH1 0x4 MSTORE PUSH1 0x24 PUSH1 0x0 REVERT JUMPDEST PUSH1 0x3 DUP2 LT PUSH2 0x16B5 JUMPI PUSH2 0x16B4 PUSH2 0x1675 JUMP JUMPDEST JUMPDEST POP JUMP JUMPDEST PUSH1 0x0 DUP2 SWAP1 POP PUSH2 0x16C6 DUP3 PUSH2 0x16A4 JUMP JUMPDEST SWAP2 SWAP1 POP JUMP JUMPDEST PUSH1 0x0 PUSH2 0x16D6 DUP3 PUSH2 0x16B8 JUMP JUMPDEST SWAP1 POP SWAP2 SWAP1 POP JUMP JUMPDEST PUSH2 0x16E6 DUP2 PUSH2 0x16CB JUMP JUMPDEST DUP3 MSTORE POP POP JUMP JUMPDEST PUSH1 0x0 PUSH1 0x20 DUP3 ADD SWAP1 POP PUSH2 0x1701 PUSH1 0x0 DUP4 ADD DUP5 PUSH2 0x16DD JUMP JUMPDEST SWAP3 SWAP2 POP POP JUMP JUMPDEST PUSH1 0x0 PUSH20 0xFFFFFFFFFFFFFFFFFFFFFFFFFFFFFFFFFFFFFFFF DUP3 AND SWAP1 POP SWAP2 SWAP1 POP JUMP JUMPDEST PUSH1 0x0 PUSH2 0x1732 DUP3 PUSH2 0x1707 JUMP JUMPDEST SWAP1 POP SWAP2 SWAP1 POP JUMP JUMPDEST PUSH2 0x1742 DUP2 PUSH2 0x1727 JUMP JUMPDEST DUP3 MSTORE POP POP JUMP JUMPDEST PUSH1 0x0 PUSH1 0x20 DUP3 ADD SWAP1 POP PUSH2 0x175D PUSH1 0x0 DUP4 ADD DUP5 PUSH2 0x1739 JUMP JUMPDEST SWAP3 SWAP2 POP POP JUMP JUMPDEST PUSH1 0x0 DUP2 ISZERO ISZERO SWAP1 POP SWAP2 SWAP1 POP JUMP JUMPDEST PUSH2 0x1778 DUP2 PUSH2 0x1763 JUMP JUMPDEST DUP3 MSTORE POP POP JUMP JUMPDEST PUSH1 0x0 PUSH1 0x20 DUP3 ADD SWAP1 POP PUSH2 0x1793 PUSH1 0x0 DUP4 ADD DUP5 PUSH2 0x176F JUMP JUMPDEST SWAP3 SWAP2 POP POP JUMP JUMPDEST PUSH32 0x4E487B7100000000000000000000000000000000000000000000000000000000 PUSH1 0x0 MSTORE PUSH1 0x11 PUSH1 0x4 MSTORE PUSH1 0x24 PUSH1 0x0 REVERT JUMPDEST PUSH1 0x0 PUSH2 0x17D3 DUP3 PUSH2 0x14F5 JUMP JUMPDEST SWAP2 POP PUSH2 0x17DE DUP4 PUSH2 0x14F5 JUMP JUMPDEST SWAP3 POP DUP3 DUP3 SUB SWAP1 POP DUP2 DUP2 GT ISZERO PUSH2 0x17F6 JUMPI PUSH2 0x17F5 PUSH2 0x1799 JUMP JUMPDEST JUMPDEST SWAP3 SWAP2 POP POP JUMP JUMPDEST PUSH32 0x4E487B7100000000000000000000000000000000000000000000000000000000 PUSH1 0x0 MSTORE PUSH1 0x12 PUSH1 0x4 MSTORE PUSH1 0x24 PUSH1 0x0 REVERT JUMPDEST PUSH1 0x0 PUSH2 0x1836 DUP3 PUSH2 0x14F5 JUMP JUMPDEST SWAP2 POP PUSH2 0x1841 DUP4 PUSH2 0x14F5 JUMP JUMPDEST SWAP3 POP DUP3 PUSH2 0x1851 JUMPI PUSH2 0x1850 PUSH2 0x17FC JUMP JUMPDEST JUMPDEST DUP3 DUP3 DIV SWAP1 POP SWAP3 SWAP2 POP POP JUMP JUMPDEST PUSH1 0x0 PUSH2 0x1867 DUP3 PUSH2 0x14F5 JUMP JUMPDEST SWAP2 POP PUSH2 0x1872 DUP4 PUSH2 0x14F5 JUMP JUMPDEST SWAP3 POP DUP3 DUP3 MUL PUSH2 0x1880 DUP2 PUSH2 0x14F5 JUMP JUMPDEST SWAP2 POP DUP3 DUP3 DIV DUP5 EQ DUP4 ISZERO OR PUSH2 0x1897 JUMPI PUSH2 0x1896 PUSH2 0x1799 JUMP JUMPDEST JUMPDEST POP SWAP3 SWAP2 POP POP JUMP JUMPDEST PUSH1 0x0 PUSH2 0x18A9 DUP3 PUSH2 0x14F5 JUMP JUMPDEST SWAP2 POP PUSH2 0x18B4 DUP4 PUSH2 0x14F5 JUMP JUMPDEST SWAP3 POP DUP3 DUP3 ADD SWAP1 POP DUP1 DUP3 GT ISZERO PUSH2 0x18CC JUMPI PUSH2 0x18CB PUSH2 0x1799 JUMP JUMPDEST JUMPDEST SWAP3 SWAP2 POP POP JUMP JUMPDEST PUSH1 0x0 PUSH2 0x18DD DUP3 PUSH2 0x14F5 JUMP JUMPDEST SWAP2 POP PUSH32 0xFFFFFFFFFFFFFFFFFFFFFFFFFFFFFFFFFFFFFFFFFFFFFFFFFFFFFFFFFFFFFFFF DUP3 SUB PUSH2 0x190F JUMPI PUSH2 0x190E PUSH2 0x1799 JUMP JUMPDEST JUMPDEST PUSH1 0x1 DUP3 ADD SWAP1 POP SWAP2 SWAP1 POP JUMP JUMPDEST PUSH32 0x4E487B7100000000000000000000000000000000000000000000000000000000 PUSH1 0x0 MSTORE PUSH1 0x41 PUSH1 0x4 MSTORE PUSH1 0x24 PUSH1 0x0 REVERT JUMPDEST PUSH32 0x4E487B7100000000000000000000000000000000000000000000000000000000 PUSH1 0x0 MSTORE PUSH1 0x32 PUSH1 0x4 MSTORE PUSH1 0x24 PUSH1 0x0 REVERT JUMPDEST PUSH1 0x0 DUP3 DUP3 MSTORE PUSH1 0x20 DUP3 ADD SWAP1 POP SWAP3 SWAP2 POP POP JUMP JUMPDEST PUSH32 0x4F6E6C7920626F72726F7765722063616E207265706179000000000000000000 PUSH1 0x0 DUP3 ADD MSTORE POP JUMP JUMPDEST PUSH1 0x0 PUSH2 0x19BF PUSH1 0x17 DUP4 PUSH2 0x1978 JUMP JUMPDEST SWAP2 POP PUSH2 0x19CA DUP3 PUSH2 0x1989 JUMP JUMPDEST PUSH1 0x20 DUP3 ADD SWAP1 POP SWAP2 SWAP1 POP JUMP JUMPDEST PUSH1 0x0 PUSH1 0x20 DUP3 ADD SWAP1 POP DUP2 DUP2 SUB PUSH1 0x0 DUP4 ADD MSTORE PUSH2 0x19EE DUP2 PUSH2 0x19B2 JUMP JUMPDEST SWAP1 POP SWAP2 SWAP1 POP JUMP JUMPDEST PUSH1 0x0 PUSH1 0x40 DUP3 ADD SWAP1 POP PUSH2 0x1A0A PUSH1 0x0 DUP4 ADD DUP6 PUSH2 0x1739 JUMP JUMPDEST PUSH2 0x1A17 PUSH1 0x20 DUP4 ADD DUP5 PUSH2 0x1739 JUMP JUMPDEST SWAP4 SWAP3 POP POP POP JUMP JUMPDEST PUSH1 0x0 DUP2 MLOAD SWAP1 POP PUSH2 0x1A2D DUP2 PUSH2 0x161C JUMP JUMPDEST SWAP3 SWAP2 POP POP JUMP JUMPDEST PUSH1 0x0 PUSH1 0x20 DUP3 DUP5 SUB SLT ISZERO PUSH2 0x1A49 JUMPI PUSH2 0x1A48 PUSH2 0x1617 JUMP JUMPDEST JUMPDEST PUSH1 0x0 PUSH2 0x1A57 DUP5 DUP3 DUP6 ADD PUSH2 0x1A1E JUMP JUMPDEST SWAP2 POP POP SWAP3 SWAP2 POP POP JUMP JUMPDEST PUSH1 0x0 PUSH1 0x60 DUP3 ADD SWAP1 POP PUSH2 0x1A75 PUSH1 0x0 DUP4 ADD DUP7 PUSH2 0x14FF JUMP JUMPDEST PUSH2 0x1A82 PUSH1 0x20 DUP4 ADD DUP6 PUSH2 0x14FF JUMP JUMPDEST PUSH2 0x1A8F PUSH1 0x40 DUP4 ADD DUP5 PUSH2 0x14FF JUMP JUMPDEST SWAP5 SWAP4 POP POP POP POP JUMP JUMPDEST PUSH1 0x0 PUSH1 0x40 DUP3 ADD SWAP1 POP PUSH2 0x1AAC PUSH1 0x0 DUP4 ADD DUP6 PUSH2 0x14FF JUMP JUMPDEST PUSH2 0x1AB9 PUSH1 0x20 DUP4 ADD DUP5 PUSH2 0x14FF JUMP JUMPDEST SWAP4 SWAP3 POP POP POP JUMP JUMPDEST PUSH1 0x0 DUP2 SWAP1 POP SWAP2 SWAP1 POP JUMP JUMPDEST PUSH1 0x0 DUP2 SWAP1 POP SWAP2 SWAP1 POP JUMP JUMPDEST PUSH1 0x0 DUP2 SWAP1 POP SWAP2 SWAP1 POP JUMP JUMPDEST PUSH1 0x0 PUSH2 0x1AF9 PUSH2 0x1AF4 PUSH2 0x1AEF DUP5 PUSH2 0x1AC0 JUMP JUMPDEST PUSH2 0x1AD4 JUMP JUMPDEST PUSH2 0x1ACA JUMP JUMPDEST SWAP1 POP SWAP2 SWAP1 POP JUMP JUMPDEST PUSH2 0x1B09 DUP2 PUSH2 0x1ADE JUMP JUMPDEST DUP3 MSTORE POP POP JUMP JUMPDEST PUSH1 0x0 PUSH1 0x40 DUP3 ADD SWAP1 POP PUSH2 0x1B24 PUSH1 0x0 DUP4 ADD DUP6 PUSH2 0x14FF JUMP JUMPDEST PUSH2 0x1B31 PUSH1 0x20 DUP4 ADD DUP5 PUSH2 0x1B00 JUMP JUMPDEST SWAP4 SWAP3 POP POP POP JUMP JUMPDEST PUSH32 0x4F6E6C79206C656E6465722063616E206D61726B2064656661756C7400000000 PUSH1 0x0 DUP3 ADD MSTORE POP JUMP JUMPDEST PUSH1 0x0 PUSH2 0x1B6E PUSH1 0x1C DUP4 PUSH2 0x1978 JUMP JUMPDEST SWAP2 POP PUSH2 0x1B79 DUP3 PUSH2 0x1B38 JUMP JUMPDEST PUSH1 0x20 DUP3 ADD SWAP1 POP SWAP2 SWAP1 POP JUMP JUMPDEST PUSH1 0x0 PUSH1 0x20 DUP3 ADD SWAP1 POP DUP2 DUP2 SUB PUSH1 0x0 DUP4 ADD MSTORE PUSH2 0x1B9D DUP2 PUSH2 0x1B61 JUMP JUMPDEST SWAP1 POP SWAP2 SWAP1 POP JUMP JUMPDEST PUSH32 0x4C6F616E206E6F7420616374697665206F7220616C72656164792068616E646C PUSH1 0x0 DUP3 ADD MSTORE PUSH32 0x6564000000000000000000000000000000000000000000000000000000000000 PUSH1 0x20 DUP3 ADD MSTORE POP JUMP JUMPDEST PUSH1 0x0 PUSH2 0x1C00 PUSH1 0x22 DUP4 PUSH2 0x1978 JUMP JUMPDEST SWAP2 POP PUSH2 0x1C0B DUP3 PUSH2 0x1BA4 JUMP JUMPDEST PUSH1 0x40 DUP3 ADD SWAP1 POP SWAP2 SWAP1 POP JUMP JUMPDEST PUSH1 0x0 PUSH1 0x20 DUP3 ADD SWAP1 POP DUP2 DUP2 SUB PUSH1 0x0 DUP4 ADD MSTORE PUSH2 0x1C2F DUP2 PUSH2 0x1BF3 JUMP JUMPDEST SWAP1 POP SWAP2 SWAP1 POP JUMP JUMPDEST PUSH32 0x4C6F616E206973206E6F74206F76657264756520796574000000000000000000 PUSH1 0x0 DUP3 ADD MSTORE POP JUMP JUMPDEST PUSH1 0x0 PUSH2 0x1C6C PUSH1 0x17 DUP4 PUSH2 0x1978 JUMP JUMPDEST SWAP2 POP PUSH2 0x1C77 DUP3 PUSH2 0x1C36 JUMP JUMPDEST PUSH1 0x20 DUP3 ADD SWAP1 POP SWAP2 SWAP1 POP JUMP JUMPDEST PUSH1 0x0 PUSH1 0x20 DUP3 ADD SWAP1 POP DUP2 DUP2 SUB PUSH1 0x0 DUP4 ADD MSTORE PUSH2 0x1C9B DUP2 PUSH2 0x1C5F JUMP JUMPDEST SWAP1 POP SWAP2 SWAP1 POP JUMP JUMPDEST PUSH1 0x0 PUSH1 0x60 DUP3 ADD SWAP1 POP PUSH2 0x1CB7 PUSH1 0x0 DUP4 ADD DUP7 PUSH2 0x1739 JUMP JUMPDEST PUSH2 0x1CC4 PUSH1 0x20 DUP4 ADD DUP6 PUSH2 0x1739 JUMP JUMPDEST PUSH2 0x1CD1 PUSH1 0x40 DUP4 ADD DUP5 PUSH2 0x14FF JUMP JUMPDEST SWAP5 SWAP4 POP POP POP POP JUMP JUMPDEST PUSH2 0x1CE2 DUP2 PUSH2 0x1ACA JUMP JUMPDEST DUP3 MSTORE POP POP JUMP JUMPDEST PUSH1 0x0 PUSH1 0x40 DUP3 ADD SWAP1 POP PUSH2 0x1CFD PUSH1 0x0 DUP4 ADD DUP6 PUSH2 0x1739 JUMP JUMPDEST PUSH2 0x1D0A PUSH1 0x20 DUP4 ADD DUP5 PUSH2 0x1CD9 JUMP JUMPDEST SWAP4 SWAP3 POP POP POP JUMP JUMPDEST PUSH1 0x0 DUP2 MLOAD SWAP1 POP SWAP2 SWAP1 POP JUMP JUMPDEST PUSH1 0x0 DUP2 SWAP1 POP SWAP3 SWAP2 POP POP JUMP JUMPDEST PUSH1 0x0 JUMPDEST DUP4 DUP2 LT ISZERO PUSH2 0x1D45 JUMPI DUP1 DUP3 ADD MLOAD DUP2 DUP5 ADD MSTORE PUSH1 0x20 DUP2 ADD SWAP1 POP PUSH2 0x1D2A JUMP JUMPDEST PUSH1 0x0 DUP5 DUP5 ADD MSTORE POP POP POP POP JUMP JUMPDEST PUSH1 0x0 PUSH2 0x1D5C DUP3 PUSH2 0x1D11 JUMP JUMPDEST PUSH2 0x1D66 DUP2 DUP6 PUSH2 0x1D1C JUMP JUMPDEST SWAP4 POP PUSH2 0x1D76 DUP2 DUP6 PUSH1 0x20 DUP7 ADD PUSH2 0x1D27 JUMP JUMPDEST DUP1 DUP5 ADD SWAP2 POP POP SWAP3 SWAP2 POP POP JUMP JUMPDEST PUSH1 0x0 PUSH2 0x1D8E DUP3 DUP5 PUSH2 0x1D51 JUMP JUMPDEST SWAP2 POP DUP2 SWAP1 POP SWAP3 SWAP2 POP POP JUMP JUMPDEST PUSH32 0x54727573742073636F726520757064617465206661696C656400000000000000 PUSH1 0x0 DUP3 ADD MSTORE POP JUMP JUMPDEST PUSH1 0x0 PUSH2 0x1DCF PUSH1 0x19 DUP4 PUSH2 0x1978 JUMP JUMPDEST SWAP2 POP PUSH2 0x1DDA DUP3 PUSH2 0x1D99 JUMP JUMPDEST PUSH1 0x20 DUP3 ADD SWAP1 POP SWAP2 SWAP1 POP JUMP JUMPDEST PUSH1 0x0 PUSH1 0x20 DUP3 ADD SWAP1 POP DUP2 DUP2 SUB PUSH1 0x0 DUP4 ADD MSTORE PUSH2 0x1DFE DUP2 PUSH2 0x1DC2 JUMP JUMPDEST SWAP1 POP SWAP2 SWAP1 POP JUMP INVALID LOG2 PUSH5 0x6970667358 0x22 SLT KECCAK256 0xE5 0xB4 0xB0 0xBA DIV PUSH26 0xCD8D923DBECA2568ACC19C52A3A6D026271A505A224CFE540CB0 PUSH5 0x736F6C6343 STOP ADDMOD EQ STOP CALLER "},"methodIdentifiers":{"accumulatedLateFees()":"c8a34c0c","borrower()":"7df1f1b9","checkAndPenalizeLatePayments()":"5a94c9fa","countMissedInstallments()":"9675a4bd","dueTimestamp()":"5451073d","factory()":"c45a0155","getDueTimestamp()":"a35a4ab3","getRepaidAmount()":"53069df6","getStatus()":"4e69d560","getTotalOwed()":"95c8cbc9","getUnpenalizedLatePayments()":"0838dce5","installmentInterval()":"de851b0a","interestPercent()":"dd3b3110","lateFeePercent()":"0675d432","latePenaltyApplied(uint256)":"e3a09045","lender()":"bcead63e","markDefault()":"8cff3e4b","markedDefault()":"d8bac5ed","principal()":"ba5d3078","repaidAmount()":"f98b8028","repay(uint256)":"371fd8e6","startTimestamp()":"e6fd48bc","tokenAddress()":"9d76ea58","totalInstallments()":"ccb6a048"}}}}}