{
  "_format": "hh-sol-artifact-1",
  "contractName": "LoanAgreement",
  "sourceName": "contracts/LoanAgreement.sol",
  "abi": [
    {
      "inputs": [
        {
          "internalType": "address",
          "name": "_lender",
          "type": "address"
        },
        {
          "internalType": "address",
          "name": "_borrower",
          "type": "address"
        },
        {
          "internalType": "uint256",
          "name": "_amount",
          "type": "uint256"
        },
        {
          "internalType": "address",
          "name": "_token",
          "type": "address"
        },
        {
          "internalType": "uint256",
          "name": "_duration",
          "type": "uint256"
        },
        {
          "internalType": "uint256",
          "name": "_interestPercent",
          "type": "uint256"
        },
        {
          "internalType": "uint256",
          "name": "_lateFeePercent",
          "type": "uint256"
        },
        {
          "internalType": "uint256",
          "name": "_installments",
          "type": "uint256"
        },
        {
          "internalType": "address",
          "name": "_factory",
          "type": "address"
        }
      ],
      "stateMutability": "nonpayable",
      "type": "constructor"
    },
    {
      "anonymous": false,
      "inputs": [
        {
          "indexed": true,
          "internalType": "address",
          "name": "loan",
          "type": "address"
        },
        {
          "indexed": true,
          "internalType": "address",
          "name": "lender",
          "type": "address"
        }
      ],
      "name": "DefaultMarked",
      "type": "event"
    },
    {
      "anonymous": false,
      "inputs": [
        {
          "indexed": true,
          "internalType": "address",
          "name": "loan",
          "type": "address"
        }
      ],
      "name": "FullyRepaid",
      "type": "event"
    },
    {
      "anonymous": false,
      "inputs": [
        {
          "indexed": true,
          "internalType": "address",
          "name": "payer",
          "type": "address"
        },
        {
          "indexed": false,
          "internalType": "uint256",
          "name": "amount",
          "type": "uint256"
        },
        {
          "indexed": false,
          "internalType": "uint256",
          "name": "totalRepaid",
          "type": "uint256"
        }
      ],
      "name": "Repaid",
      "type": "event"
    },
    {
      "inputs": [],
      "name": "borrower",
      "outputs": [
        {
          "internalType": "address",
          "name": "",
          "type": "address"
        }
      ],
      "stateMutability": "view",
      "type": "function"
    },
    {
      "inputs": [],
      "name": "countMissedInstallments",
      "outputs": [
        {
          "internalType": "uint256",
          "name": "missed",
          "type": "uint256"
        }
      ],
      "stateMutability": "view",
      "type": "function"
    },
    {
      "inputs": [],
      "name": "dueTimestamp",
      "outputs": [
        {
          "internalType": "uint256",
          "name": "",
          "type": "uint256"
        }
      ],
      "stateMutability": "view",
      "type": "function"
    },
    {
      "inputs": [],
      "name": "factory",
      "outputs": [
        {
          "internalType": "address",
          "name": "",
          "type": "address"
        }
      ],
      "stateMutability": "view",
      "type": "function"
    },
    {
      "inputs": [],
      "name": "getDueTimestamp",
      "outputs": [
        {
          "internalType": "uint256",
          "name": "",
          "type": "uint256"
        }
      ],
      "stateMutability": "view",
      "type": "function"
    },
    {
      "inputs": [],
      "name": "getRepaidAmount",
      "outputs": [
        {
          "internalType": "uint256",
          "name": "",
          "type": "uint256"
        }
      ],
      "stateMutability": "view",
      "type": "function"
    },
    {
      "inputs": [],
      "name": "getStatus",
      "outputs": [
        {
          "internalType": "enum LoanAgreement.LoanStatus",
          "name": "",
          "type": "uint8"
        }
      ],
      "stateMutability": "view",
      "type": "function"
    },
    {
      "inputs": [],
      "name": "getTotalOwed",
      "outputs": [
        {
          "internalType": "uint256",
          "name": "totalOwed",
          "type": "uint256"
        }
      ],
      "stateMutability": "view",
      "type": "function"
    },
    {
      "inputs": [],
      "name": "installmentInterval",
      "outputs": [
        {
          "internalType": "uint256",
          "name": "",
          "type": "uint256"
        }
      ],
      "stateMutability": "view",
      "type": "function"
    },
    {
      "inputs": [],
      "name": "interestPercent",
      "outputs": [
        {
          "internalType": "uint256",
          "name": "",
          "type": "uint256"
        }
      ],
      "stateMutability": "view",
      "type": "function"
    },
    {
      "inputs": [],
      "name": "lateFeePercent",
      "outputs": [
        {
          "internalType": "uint256",
          "name": "",
          "type": "uint256"
        }
      ],
      "stateMutability": "view",
      "type": "function"
    },
    {
      "inputs": [],
      "name": "lender",
      "outputs": [
        {
          "internalType": "address",
          "name": "",
          "type": "address"
        }
      ],
      "stateMutability": "view",
      "type": "function"
    },
    {
      "inputs": [],
      "name": "markDefault",
      "outputs": [],
      "stateMutability": "nonpayable",
      "type": "function"
    },
    {
      "inputs": [],
      "name": "markedDefault",
      "outputs": [
        {
          "internalType": "bool",
          "name": "",
          "type": "bool"
        }
      ],
      "stateMutability": "view",
      "type": "function"
    },
    {
      "inputs": [],
      "name": "principal",
      "outputs": [
        {
          "internalType": "uint256",
          "name": "",
          "type": "uint256"
        }
      ],
      "stateMutability": "view",
      "type": "function"
    },
    {
      "inputs": [],
      "name": "repaidAmount",
      "outputs": [
        {
          "internalType": "uint256",
          "name": "",
          "type": "uint256"
        }
      ],
      "stateMutability": "view",
      "type": "function"
    },
    {
      "inputs": [
        {
          "internalType": "uint256",
          "name": "amount",
          "type": "uint256"
        }
      ],
      "name": "repay",
      "outputs": [],
      "stateMutability": "nonpayable",
      "type": "function"
    },
    {
      "inputs": [],
      "name": "startTimestamp",
      "outputs": [
        {
          "internalType": "uint256",
          "name": "",
          "type": "uint256"
        }
      ],
      "stateMutability": "view",
      "type": "function"
    },
    {
      "inputs": [],
      "name": "tokenAddress",
      "outputs": [
        {
          "internalType": "address",
          "name": "",
          "type": "address"
        }
      ],
      "stateMutability": "view",
      "type": "function"
    },
    {
      "inputs": [],
      "name": "totalInstallments",
      "outputs": [
        {
          "internalType": "uint256",
          "name": "",
          "type": "uint256"
        }
      ],
      "stateMutability": "view",
      "type": "function"
    }
  ],
  "bytecode": "0x60806040523480156200001157600080fd5b50604051620018823803806200188283398181016040528101906200003791906200023b565b886000806101000a81548173ffffffffffffffffffffffffffffffffffffffff021916908373ffffffffffffffffffffffffffffffffffffffff16021790555087600160006101000a81548173ffffffffffffffffffffffffffffffffffffffff021916908373ffffffffffffffffffffffffffffffffffffffff1602179055508660028190555085600660006101000a81548173ffffffffffffffffffffffffffffffffffffffff021916908373ffffffffffffffffffffffffffffffffffffffff160217905550836003819055508260058190555081600881905550818562000123919062000378565b60098190555080600760006101000a81548173ffffffffffffffffffffffffffffffffffffffff021916908373ffffffffffffffffffffffffffffffffffffffff16021790555042600a8190555084600a54620001819190620003b0565b600481905550505050505050505050620003eb565b600080fd5b600073ffffffffffffffffffffffffffffffffffffffff82169050919050565b6000620001c8826200019b565b9050919050565b620001da81620001bb565b8114620001e657600080fd5b50565b600081519050620001fa81620001cf565b92915050565b6000819050919050565b620002158162000200565b81146200022157600080fd5b50565b60008151905062000235816200020a565b92915050565b60008060008060008060008060006101208a8c03121562000261576200026062000196565b5b6000620002718c828d01620001e9565b9950506020620002848c828d01620001e9565b9850506040620002978c828d0162000224565b9750506060620002aa8c828d01620001e9565b9650506080620002bd8c828d0162000224565b95505060a0620002d08c828d0162000224565b94505060c0620002e38c828d0162000224565b93505060e0620002f68c828d0162000224565b9250506101006200030a8c828d01620001e9565b9150509295985092959850929598565b7f4e487b7100000000000000000000000000000000000000000000000000000000600052601260045260246000fd5b7f4e487b7100000000000000000000000000000000000000000000000000000000600052601160045260246000fd5b6000620003858262000200565b9150620003928362000200565b925082620003a557620003a46200031a565b5b828204905092915050565b6000620003bd8262000200565b9150620003ca8362000200565b9250828201905080821115620003e557620003e462000349565b5b92915050565b61148780620003fb6000396000f3fe608060405234801561001057600080fd5b506004361061012c5760003560e01c8063a35a4ab3116100ad578063d8bac5ed11610071578063d8bac5ed146102dd578063dd3b3110146102fb578063de851b0a14610319578063e6fd48bc14610337578063f98b8028146103555761012c565b8063a35a4ab314610247578063ba5d307814610265578063bcead63e14610283578063c45a0155146102a1578063ccb6a048146102bf5761012c565b80637df1f1b9116100f45780637df1f1b9146101c55780638cff3e4b146101e357806395c8cbc9146101ed5780639675a4bd1461020b5780639d76ea58146102295761012c565b80630675d43214610131578063371fd8e61461014f5780634e69d5601461016b57806353069df6146101895780635451073d146101a7575b600080fd5b610139610373565b6040516101469190610ccd565b60405180910390f35b61016960048036038101906101649190610d19565b610379565b005b61017361069b565b6040516101809190610dbd565b60405180910390f35b6101916106dc565b60405161019e9190610ccd565b60405180910390f35b6101af6106e6565b6040516101bc9190610ccd565b60405180910390f35b6101cd6106ec565b6040516101da9190610e19565b60405180910390f35b6101eb610712565b005b6101f561092c565b6040516102029190610ccd565b60405180910390f35b6102136109aa565b6040516102209190610ccd565b60405180910390f35b610231610a7f565b60405161023e9190610e19565b60405180910390f35b61024f610aa5565b60405161025c9190610ccd565b60405180910390f35b61026d610aaf565b60405161027a9190610ccd565b60405180910390f35b61028b610ab5565b6040516102989190610e19565b60405180910390f35b6102a9610ad9565b6040516102b69190610e19565b60405180910390f35b6102c7610aff565b6040516102d49190610ccd565b60405180910390f35b6102e5610b05565b6040516102f29190610e4f565b60405180910390f35b610303610b18565b6040516103109190610ccd565b60405180910390f35b610321610b1e565b60405161032e9190610ccd565b60405180910390f35b61033f610b24565b60405161034c9190610ccd565b60405180910390f35b61035d610b2a565b60405161036a9190610ccd565b60405180910390f35b60055481565b600160009054906101000a900473ffffffffffffffffffffffffffffffffffffffff1673ffffffffffffffffffffffffffffffffffffffff163373ffffffffffffffffffffffffffffffffffffffff1614610409576040517f08c379a000000000000000000000000000000000000000000000000000000000815260040161040090610ec7565b60405180910390fd5b600061041361092c565b90508082600b546104249190610f16565b1115610465576040517f08c379a000000000000000000000000000000000000000000000000000000000815260040161045c90610f96565b60405180910390fd5b6000600660009054906101000a900473ffffffffffffffffffffffffffffffffffffffff1690508073ffffffffffffffffffffffffffffffffffffffff166323b872dd3360008054906101000a900473ffffffffffffffffffffffffffffffffffffffff16866040518463ffffffff1660e01b81526004016104e993929190610fb6565b6020604051808303816000875af1158015610508573d6000803e3d6000fd5b505050506040513d601f19601f8201168201806040525081019061052c9190611019565b61056b576040517f08c379a000000000000000000000000000000000000000000000000000000000815260040161056290611092565b60405180910390fd5b82600b600082825461057d9190610f16565b925050819055503373ffffffffffffffffffffffffffffffffffffffff167f1b8cd61ed43bec7c6bdad3a18ffee613f99c853d16c50678d248d879e1b4343884600b546040516105ce9291906110b2565b60405180910390a2600160028111156105ea576105e9610d46565b5b6105f261069b565b600281111561060457610603610d46565b5b03610696573073ffffffffffffffffffffffffffffffffffffffff167f927542d877f6ef1fb1779cb252a65aaa543f48e6d9abc25433c57e19ceccf61d60405160405180910390a260006106566109aa565b111561068a576106857fffffffffffffffffffffffffffffffffffffffffffffffffffffffffffffffff610b30565b610695565b6106946001610b30565b5b5b505050565b6000600c60009054906101000a900460ff16156106bb57600290506106d9565b6106c361092c565b600b54106106d457600190506106d9565b600090505b90565b6000600b54905090565b60045481565b600160009054906101000a900473ffffffffffffffffffffffffffffffffffffffff1681565b60008054906101000a900473ffffffffffffffffffffffffffffffffffffffff1673ffffffffffffffffffffffffffffffffffffffff163373ffffffffffffffffffffffffffffffffffffffff16146107a0576040517f08c379a000000000000000000000000000000000000000000000000000000000815260040161079790611127565b60405180910390fd5b600060028111156107b4576107b3610d46565b5b6107bc61069b565b60028111156107ce576107cd610d46565b5b1461080e576040517f08c379a0000000000000000000000000000000000000000000000000000000008152600401610805906111b9565b60405180910390fd5b60095460085461081e91906111d9565b600a5461082b9190610f16565b421161086c576040517f08c379a000000000000000000000000000000000000000000000000000000000815260040161086390611267565b60405180910390fd5b6001600c60006101000a81548160ff02191690831515021790555060008054906101000a900473ffffffffffffffffffffffffffffffffffffffff1673ffffffffffffffffffffffffffffffffffffffff163073ffffffffffffffffffffffffffffffffffffffff167fa6e9acf469d627e8f02eec880995bb6f37ecadea71c528f0e35081bd77e9189760405160405180910390a361092a7ffffffffffffffffffffffffffffffffffffffffffffffffffffffffffffffffe610b30565b565b6000606460035460025461094091906111d9565b61094a91906112b6565b6002546109579190610f16565b905060006109636109aa565b9050600854606461097491906111d9565b8160055460025461098591906111d9565b61098f91906111d9565b61099991906112b6565b826109a49190610f16565b91505090565b600080600954600a54426109be91906112e7565b6109c891906112b6565b90506008548111156109da5760085490505b60006008548260646003546002546109f291906111d9565b6109fc91906112b6565b600254610a099190610f16565b610a1391906111d9565b610a1d91906112b6565b9050600b54811115610a7a576064600354600254610a3b91906111d9565b610a4591906112b6565b600254610a529190610f16565b600854600b54610a6291906111d9565b610a6c91906112b6565b82610a7791906112e7565b92505b505090565b600660009054906101000a900473ffffffffffffffffffffffffffffffffffffffff1681565b6000600454905090565b60025481565b60008054906101000a900473ffffffffffffffffffffffffffffffffffffffff1681565b600760009054906101000a900473ffffffffffffffffffffffffffffffffffffffff1681565b60085481565b600c60009054906101000a900460ff1681565b60035481565b60095481565b600a5481565b600b5481565b6000600760009054906101000a900473ffffffffffffffffffffffffffffffffffffffff1673ffffffffffffffffffffffffffffffffffffffff16600160009054906101000a900473ffffffffffffffffffffffffffffffffffffffff1683604051602401610ba0929190611334565b6040516020818303038152906040527fe766784d000000000000000000000000000000000000000000000000000000007bffffffffffffffffffffffffffffffffffffffffffffffffffffffff19166020820180517bffffffffffffffffffffffffffffffffffffffffffffffffffffffff8381831617835250505050604051610c2a91906113ce565b6000604051808303816000865af19150503d8060008114610c67576040519150601f19603f3d011682016040523d82523d6000602084013e610c6c565b606091505b5050905080610cb0576040517f08c379a0000000000000000000000000000000000000000000000000000000008152600401610ca790611431565b60405180910390fd5b5050565b6000819050919050565b610cc781610cb4565b82525050565b6000602082019050610ce26000830184610cbe565b92915050565b600080fd5b610cf681610cb4565b8114610d0157600080fd5b50565b600081359050610d1381610ced565b92915050565b600060208284031215610d2f57610d2e610ce8565b5b6000610d3d84828501610d04565b91505092915050565b7f4e487b7100000000000000000000000000000000000000000000000000000000600052602160045260246000fd5b60038110610d8657610d85610d46565b5b50565b6000819050610d9782610d75565b919050565b6000610da782610d89565b9050919050565b610db781610d9c565b82525050565b6000602082019050610dd26000830184610dae565b92915050565b600073ffffffffffffffffffffffffffffffffffffffff82169050919050565b6000610e0382610dd8565b9050919050565b610e1381610df8565b82525050565b6000602082019050610e2e6000830184610e0a565b92915050565b60008115159050919050565b610e4981610e34565b82525050565b6000602082019050610e646000830184610e40565b92915050565b600082825260208201905092915050565b7f4f6e6c7920626f72726f7765722063616e207265706179000000000000000000600082015250565b6000610eb1601783610e6a565b9150610ebc82610e7b565b602082019050919050565b60006020820190508181036000830152610ee081610ea4565b9050919050565b7f4e487b7100000000000000000000000000000000000000000000000000000000600052601160045260246000fd5b6000610f2182610cb4565b9150610f2c83610cb4565b9250828201905080821115610f4457610f43610ee7565b5b92915050565b7f52657061796d656e74206578636565647320746f74616c206f77656400000000600082015250565b6000610f80601c83610e6a565b9150610f8b82610f4a565b602082019050919050565b60006020820190508181036000830152610faf81610f73565b9050919050565b6000606082019050610fcb6000830186610e0a565b610fd86020830185610e0a565b610fe56040830184610cbe565b949350505050565b610ff681610e34565b811461100157600080fd5b50565b60008151905061101381610fed565b92915050565b60006020828403121561102f5761102e610ce8565b5b600061103d84828501611004565b91505092915050565b7f546f6b656e207472616e73666572206661696c65640000000000000000000000600082015250565b600061107c601583610e6a565b915061108782611046565b602082019050919050565b600060208201905081810360008301526110ab8161106f565b9050919050565b60006040820190506110c76000830185610cbe565b6110d46020830184610cbe565b9392505050565b7f4f6e6c79206c656e6465722063616e206d61726b2064656661756c7400000000600082015250565b6000611111601c83610e6a565b915061111c826110db565b602082019050919050565b6000602082019050818103600083015261114081611104565b9050919050565b7f4c6f616e206e6f7420616374697665206f7220616c72656164792068616e646c60008201527f6564000000000000000000000000000000000000000000000000000000000000602082015250565b60006111a3602283610e6a565b91506111ae82611147565b604082019050919050565b600060208201905081810360008301526111d281611196565b9050919050565b60006111e482610cb4565b91506111ef83610cb4565b92508282026111fd81610cb4565b9150828204841483151761121457611213610ee7565b5b5092915050565b7f4c6f616e206973206e6f74206f76657264756520796574000000000000000000600082015250565b6000611251601783610e6a565b915061125c8261121b565b602082019050919050565b6000602082019050818103600083015261128081611244565b9050919050565b7f4e487b7100000000000000000000000000000000000000000000000000000000600052601260045260246000fd5b60006112c182610cb4565b91506112cc83610cb4565b9250826112dc576112db611287565b5b828204905092915050565b60006112f282610cb4565b91506112fd83610cb4565b925082820390508181111561131557611314610ee7565b5b92915050565b6000819050919050565b61132e8161131b565b82525050565b60006040820190506113496000830185610e0a565b6113566020830184611325565b9392505050565b600081519050919050565b600081905092915050565b60005b83811015611391578082015181840152602081019050611376565b60008484015250505050565b60006113a88261135d565b6113b28185611368565b93506113c2818560208601611373565b80840191505092915050565b60006113da828461139d565b915081905092915050565b7f54727573742073636f726520757064617465206661696c656400000000000000600082015250565b600061141b601983610e6a565b9150611426826113e5565b602082019050919050565b6000602082019050818103600083015261144a8161140e565b905091905056fea26469706673582212202a54561bb93c79e17bb90f46a6ee6c46c51ff135e66e9192639aaaf4baeb186a64736f6c63430008180033",
  "linkReferences": {},
  "deployedLinkReferences": {}
}