{
  "_format": "hh-sol-artifact-1",
  "contractName": "LoanAgreement",
  "sourceName": "contracts/LoanAgreement.sol",
  "abi": [
    {
      "inputs": [
        {
          "internalType": "address",
          "name": "_lender",
          "type": "address"
        },
        {
          "internalType": "address",
          "name": "_borrower",
          "type": "address"
        },
        {
          "internalType": "uint256",
          "name": "_amount",
          "type": "uint256"
        },
        {
          "internalType": "address",
          "name": "_token",
          "type": "address"
        },
        {
          "internalType": "uint256",
          "name": "_duration",
          "type": "uint256"
        },
        {
          "internalType": "uint256",
          "name": "_interestPercent",
          "type": "uint256"
        },
        {
          "internalType": "uint256",
          "name": "_lateFeePercent",
          "type": "uint256"
        },
        {
          "internalType": "uint256",
          "name": "_installments",
          "type": "uint256"
        },
        {
          "internalType": "address",
          "name": "_factory",
          "type": "address"
        }
      ],
      "stateMutability": "nonpayable",
      "type": "constructor"
    },
    {
      "inputs": [
        {
          "internalType": "address",
          "name": "token",
          "type": "address"
        }
      ],
      "name": "SafeERC20FailedOperation",
      "type": "error"
    },
    {
      "anonymous": false,
      "inputs": [
        {
          "indexed": false,
          "internalType": "uint256",
          "name": "allowance",
          "type": "uint256"
        },
        {
          "indexed": false,
          "internalType": "uint256",
          "name": "borrowerBalance",
          "type": "uint256"
        },
        {
          "indexed": false,
          "internalType": "uint256",
          "name": "totalOwed",
          "type": "uint256"
        }
      ],
      "name": "DebugRepayment",
      "type": "event"
    },
    {
      "anonymous": false,
      "inputs": [
        {
          "indexed": true,
          "internalType": "address",
          "name": "loan",
          "type": "address"
        },
        {
          "indexed": true,
          "internalType": "address",
          "name": "lender",
          "type": "address"
        }
      ],
      "name": "DefaultMarked",
      "type": "event"
    },
    {
      "anonymous": false,
      "inputs": [
        {
          "indexed": true,
          "internalType": "address",
          "name": "loan",
          "type": "address"
        }
      ],
      "name": "FullyRepaid",
      "type": "event"
    },
    {
      "anonymous": false,
      "inputs": [
        {
          "indexed": true,
          "internalType": "address",
          "name": "borrower",
          "type": "address"
        },
        {
          "indexed": false,
          "internalType": "uint256",
          "name": "installmentNumber",
          "type": "uint256"
        },
        {
          "indexed": false,
          "internalType": "uint256",
          "name": "lateFeeAmount",
          "type": "uint256"
        },
        {
          "indexed": false,
          "internalType": "uint256",
          "name": "totalAccumulatedFees",
          "type": "uint256"
        }
      ],
      "name": "LateFeeAccumulated",
      "type": "event"
    },
    {
      "anonymous": false,
      "inputs": [
        {
          "indexed": true,
          "internalType": "address",
          "name": "borrower",
          "type": "address"
        },
        {
          "indexed": false,
          "internalType": "uint256",
          "name": "installmentNumber",
          "type": "uint256"
        },
        {
          "indexed": false,
          "internalType": "int256",
          "name": "trustScoreChange",
          "type": "int256"
        }
      ],
      "name": "LatePaymentPenalty",
      "type": "event"
    },
    {
      "anonymous": false,
      "inputs": [
        {
          "indexed": true,
          "internalType": "address",
          "name": "borrower",
          "type": "address"
        },
        {
          "indexed": false,
          "internalType": "uint256",
          "name": "refundAmount",
          "type": "uint256"
        }
      ],
      "name": "RefundIssued",
      "type": "event"
    },
    {
      "anonymous": false,
      "inputs": [
        {
          "indexed": true,
          "internalType": "address",
          "name": "payer",
          "type": "address"
        },
        {
          "indexed": false,
          "internalType": "uint256",
          "name": "amount",
          "type": "uint256"
        },
        {
          "indexed": false,
          "internalType": "uint256",
          "name": "totalRepaid",
          "type": "uint256"
        }
      ],
      "name": "Repaid",
      "type": "event"
    },
    {
      "inputs": [],
      "name": "accumulatedLateFees",
      "outputs": [
        {
          "internalType": "uint256",
          "name": "",
          "type": "uint256"
        }
      ],
      "stateMutability": "view",
      "type": "function"
    },
    {
      "inputs": [],
      "name": "borrower",
      "outputs": [
        {
          "internalType": "address",
          "name": "",
          "type": "address"
        }
      ],
      "stateMutability": "view",
      "type": "function"
    },
    {
      "inputs": [],
      "name": "checkAndPenalizeLatePayments",
      "outputs": [],
      "stateMutability": "nonpayable",
      "type": "function"
    },
    {
      "inputs": [],
      "name": "countMissedInstallments",
      "outputs": [
        {
          "internalType": "uint256",
          "name": "missed",
          "type": "uint256"
        }
      ],
      "stateMutability": "view",
      "type": "function"
    },
    {
      "inputs": [],
      "name": "dueTimestamp",
      "outputs": [
        {
          "internalType": "uint256",
          "name": "",
          "type": "uint256"
        }
      ],
      "stateMutability": "view",
      "type": "function"
    },
    {
      "inputs": [],
      "name": "factory",
      "outputs": [
        {
          "internalType": "address",
          "name": "",
          "type": "address"
        }
      ],
      "stateMutability": "view",
      "type": "function"
    },
    {
      "inputs": [],
      "name": "getDueTimestamp",
      "outputs": [
        {
          "internalType": "uint256",
          "name": "",
          "type": "uint256"
        }
      ],
      "stateMutability": "view",
      "type": "function"
    },
    {
      "inputs": [],
      "name": "getRepaidAmount",
      "outputs": [
        {
          "internalType": "uint256",
          "name": "",
          "type": "uint256"
        }
      ],
      "stateMutability": "view",
      "type": "function"
    },
    {
      "inputs": [],
      "name": "getStatus",
      "outputs": [
        {
          "internalType": "enum LoanAgreement.LoanStatus",
          "name": "",
          "type": "uint8"
        }
      ],
      "stateMutability": "view",
      "type": "function"
    },
    {
      "inputs": [],
      "name": "getTotalOwed",
      "outputs": [
        {
          "internalType": "uint256",
          "name": "totalOwed",
          "type": "uint256"
        }
      ],
      "stateMutability": "view",
      "type": "function"
    },
    {
      "inputs": [],
      "name": "getUnpenalizedLatePayments",
      "outputs": [
        {
          "internalType": "uint256[]",
          "name": "lateInstallments",
          "type": "uint256[]"
        },
        {
          "internalType": "uint256",
          "name": "potentialPenalties",
          "type": "uint256"
        }
      ],
      "stateMutability": "view",
      "type": "function"
    },
    {
      "inputs": [],
      "name": "installmentInterval",
      "outputs": [
        {
          "internalType": "uint256",
          "name": "",
          "type": "uint256"
        }
      ],
      "stateMutability": "view",
      "type": "function"
    },
    {
      "inputs": [],
      "name": "interestPercent",
      "outputs": [
        {
          "internalType": "uint256",
          "name": "",
          "type": "uint256"
        }
      ],
      "stateMutability": "view",
      "type": "function"
    },
    {
      "inputs": [],
      "name": "lateFeePercent",
      "outputs": [
        {
          "internalType": "uint256",
          "name": "",
          "type": "uint256"
        }
      ],
      "stateMutability": "view",
      "type": "function"
    },
    {
      "inputs": [
        {
          "internalType": "uint256",
          "name": "",
          "type": "uint256"
        }
      ],
      "name": "latePenaltyApplied",
      "outputs": [
        {
          "internalType": "bool",
          "name": "",
          "type": "bool"
        }
      ],
      "stateMutability": "view",
      "type": "function"
    },
    {
      "inputs": [],
      "name": "lender",
      "outputs": [
        {
          "internalType": "address",
          "name": "",
          "type": "address"
        }
      ],
      "stateMutability": "view",
      "type": "function"
    },
    {
      "inputs": [],
      "name": "markDefault",
      "outputs": [],
      "stateMutability": "nonpayable",
      "type": "function"
    },
    {
      "inputs": [],
      "name": "markedDefault",
      "outputs": [
        {
          "internalType": "bool",
          "name": "",
          "type": "bool"
        }
      ],
      "stateMutability": "view",
      "type": "function"
    },
    {
      "inputs": [],
      "name": "principal",
      "outputs": [
        {
          "internalType": "uint256",
          "name": "",
          "type": "uint256"
        }
      ],
      "stateMutability": "view",
      "type": "function"
    },
    {
      "inputs": [],
      "name": "repaidAmount",
      "outputs": [
        {
          "internalType": "uint256",
          "name": "",
          "type": "uint256"
        }
      ],
      "stateMutability": "view",
      "type": "function"
    },
    {
      "inputs": [
        {
          "internalType": "uint256",
          "name": "amount",
          "type": "uint256"
        }
      ],
      "name": "repay",
      "outputs": [],
      "stateMutability": "nonpayable",
      "type": "function"
    },
    {
      "inputs": [],
      "name": "startTimestamp",
      "outputs": [
        {
          "internalType": "uint256",
          "name": "",
          "type": "uint256"
        }
      ],
      "stateMutability": "view",
      "type": "function"
    },
    {
      "inputs": [],
      "name": "tokenAddress",
      "outputs": [
        {
          "internalType": "address",
          "name": "",
          "type": "address"
        }
      ],
      "stateMutability": "view",
      "type": "function"
    },
    {
      "inputs": [],
      "name": "totalInstallments",
      "outputs": [
        {
          "internalType": "uint256",
          "name": "",
          "type": "uint256"
        }
      ],
      "stateMutability": "view",
      "type": "function"
    }
  ],
  "bytecode": "0x60806040523480156200001157600080fd5b50604051620022363803806200223683398181016040528101906200003791906200023b565b886000806101000a81548173ffffffffffffffffffffffffffffffffffffffff021916908373ffffffffffffffffffffffffffffffffffffffff16021790555087600160006101000a81548173ffffffffffffffffffffffffffffffffffffffff021916908373ffffffffffffffffffffffffffffffffffffffff1602179055508660028190555085600660006101000a81548173ffffffffffffffffffffffffffffffffffffffff021916908373ffffffffffffffffffffffffffffffffffffffff160217905550836003819055508260058190555081600881905550818562000123919062000378565b60098190555080600760006101000a81548173ffffffffffffffffffffffffffffffffffffffff021916908373ffffffffffffffffffffffffffffffffffffffff16021790555042600a8190555084600a54620001819190620003b0565b600481905550505050505050505050620003eb565b600080fd5b600073ffffffffffffffffffffffffffffffffffffffff82169050919050565b6000620001c8826200019b565b9050919050565b620001da81620001bb565b8114620001e657600080fd5b50565b600081519050620001fa81620001cf565b92915050565b6000819050919050565b620002158162000200565b81146200022157600080fd5b50565b60008151905062000235816200020a565b92915050565b60008060008060008060008060006101208a8c03121562000261576200026062000196565b5b6000620002718c828d01620001e9565b9950506020620002848c828d01620001e9565b9850506040620002978c828d0162000224565b9750506060620002aa8c828d01620001e9565b9650506080620002bd8c828d0162000224565b95505060a0620002d08c828d0162000224565b94505060c0620002e38c828d0162000224565b93505060e0620002f68c828d0162000224565b9250506101006200030a8c828d01620001e9565b9150509295985092959850929598565b7f4e487b7100000000000000000000000000000000000000000000000000000000600052601260045260246000fd5b7f4e487b7100000000000000000000000000000000000000000000000000000000600052601160045260246000fd5b6000620003858262000200565b9150620003928362000200565b925082620003a557620003a46200031a565b5b828204905092915050565b6000620003bd8262000200565b9150620003ca8362000200565b9250828201905080821115620003e557620003e462000349565b5b92915050565b611e3b80620003fb6000396000f3fe608060405234801561001057600080fd5b50600436106101585760003560e01c8063a35a4ab3116100c3578063d8bac5ed1161007c578063d8bac5ed14610350578063dd3b31101461036e578063de851b0a1461038c578063e3a09045146103aa578063e6fd48bc146103da578063f98b8028146103f857610158565b8063a35a4ab31461029c578063ba5d3078146102ba578063bcead63e146102d8578063c45a0155146102f6578063c8a34c0c14610314578063ccb6a0481461033257610158565b80635a94c9fa116101155780635a94c9fa146102105780637df1f1b91461021a5780638cff3e4b1461023857806395c8cbc9146102425780639675a4bd146102605780639d76ea581461027e57610158565b80630675d4321461015d5780630838dce51461017b578063371fd8e61461019a5780634e69d560146101b657806353069df6146101d45780635451073d146101f2575b600080fd5b610165610416565b604051610172919061150e565b60405180910390f35b61018361041c565b6040516101919291906115e7565b60405180910390f35b6101b460048036038101906101af9190611648565b61067f565b005b6101be610b1b565b6040516101cb91906116ec565b60405180910390f35b6101dc610b5c565b6040516101e9919061150e565b60405180910390f35b6101fa610b66565b604051610207919061150e565b60405180910390f35b610218610b6c565b005b610222610e18565b60405161022f9190611748565b60405180910390f35b610240610e3e565b005b61024a611060565b604051610257919061150e565b60405180910390f35b6102686110a0565b604051610275919061150e565b60405180910390f35b610286611176565b6040516102939190611748565b60405180910390f35b6102a461119c565b6040516102b1919061150e565b60405180910390f35b6102c26111a6565b6040516102cf919061150e565b60405180910390f35b6102e06111ac565b6040516102ed9190611748565b60405180910390f35b6102fe6111d0565b60405161030b9190611748565b60405180910390f35b61031c6111f6565b604051610329919061150e565b60405180910390f35b61033a6111fc565b604051610347919061150e565b60405180910390f35b610358611202565b604051610365919061177e565b60405180910390f35b610376611215565b604051610383919061150e565b60405180910390f35b61039461121b565b6040516103a1919061150e565b60405180910390f35b6103c460048036038101906103bf9190611648565b611221565b6040516103d1919061177e565b60405180910390f35b6103e2611241565b6040516103ef919061150e565b60405180910390f35b610400611247565b60405161040d919061150e565b60405180910390f35b60055481565b60606000804290506000600954600a548361043791906117c8565b610441919061182b565b90506008548111156104535760085490505b600080600190505b82811161052d57600060095482610472919061185c565b600a5461047f919061189e565b905080851180156104ae5750600e600083815260200190815260200160002060009054906101000a900460ff16155b1561051957600060646003546002546104c7919061185c565b6104d1919061182b565b6002546104de919061189e565b9050600060085484836104f1919061185c565b6104fb919061182b565b905080600b541015610516578480610512906118d2565b9550505b50505b508080610525906118d2565b91505061045b565b508067ffffffffffffffff8111156105485761054761191a565b5b6040519080825280602002602001820160405280156105765781602001602082028036833780820191505090505b509450600080600190505b83811161067357600060095482610598919061185c565b600a546105a5919061189e565b905080861180156105d45750600e600083815260200190815260200160002060009054906101000a900460ff16155b1561065f57600060646003546002546105ed919061185c565b6105f7919061182b565b600254610604919061189e565b905060006008548483610617919061185c565b610621919061182b565b905080600b54101561065c57838a868151811061064157610640611949565b5b6020026020010181815250508480610658906118d2565b9550505b50505b50808061066b906118d2565b915050610581565b50819450505050509091565b600160009054906101000a900473ffffffffffffffffffffffffffffffffffffffff1673ffffffffffffffffffffffffffffffffffffffff163373ffffffffffffffffffffffffffffffffffffffff161461070f576040517f08c379a0000000000000000000000000000000000000000000000000000000008152600401610706906119d5565b60405180910390fd5b610717610b6c565b6000610721611060565b90506000600b548261073391906117c8565b90506000600660009054906101000a900473ffffffffffffffffffffffffffffffffffffffff1690507fb660cb1c866503d0663185064f29f91c40c52213a6f3d80bda170bb0012016bf8173ffffffffffffffffffffffffffffffffffffffff1663dd62ed3e33306040518363ffffffff1660e01b81526004016107b89291906119f5565b602060405180830381865afa1580156107d5573d6000803e3d6000fd5b505050506040513d601f19601f820116820180604052508101906107f99190611a33565b8273ffffffffffffffffffffffffffffffffffffffff166370a08231336040518263ffffffff1660e01b81526004016108329190611748565b602060405180830381865afa15801561084f573d6000803e3d6000fd5b505050506040513d601f19601f820116820180604052508101906108739190611a33565b8560405161088393929190611a60565b60405180910390a160008490506000838611156108ac5783915083866108a991906117c8565b90505b600082111561096e576109023360008054906101000a900473ffffffffffffffffffffffffffffffffffffffff16848673ffffffffffffffffffffffffffffffffffffffff1661124d909392919063ffffffff16565b81600b6000828254610914919061189e565b925050819055503373ffffffffffffffffffffffffffffffffffffffff167f1b8cd61ed43bec7c6bdad3a18ffee613f99c853d16c50678d248d879e1b4343883600b54604051610965929190611a97565b60405180910390a25b6000811115610a37576109c633600160009054906101000a900473ffffffffffffffffffffffffffffffffffffffff16838673ffffffffffffffffffffffffffffffffffffffff1661124d909392919063ffffffff16565b600160009054906101000a900473ffffffffffffffffffffffffffffffffffffffff1673ffffffffffffffffffffffffffffffffffffffff167fa171b6942063c6f2800ce40a780edce37baa2b618571b11eedd1e69e626e7d7682604051610a2e919061150e565b60405180910390a25b60016002811115610a4b57610a4a611675565b5b610a53610b1b565b6002811115610a6557610a64611675565b5b03610b13573073ffffffffffffffffffffffffffffffffffffffff167f927542d877f6ef1fb1779cb252a65aaa543f48e6d9abc25433c57e19ceccf61d60405160405180910390a2600080600190505b6008548111610b0057600e600082815260200190815260200160002060009054906101000a900460ff1615610aed5760019150610b00565b8080610af8906118d2565b915050610ab5565b5080610b1157610b1060016112cf565b5b505b505050505050565b6000600d60009054906101000a900460ff1615610b3b5760029050610b59565b610b43611060565b600b5410610b545760019050610b59565b600090505b90565b6000600b54905090565b60045481565b60004290506000600954600a5483610b8491906117c8565b610b8e919061182b565b9050600854811115610ba05760085490505b6000600190505b818111610e1357600060095482610bbe919061185c565b600a54610bcb919061189e565b90508084118015610bfa5750600e600083815260200190815260200160002060009054906101000a900460ff16155b15610dff5760006064600354600254610c13919061185c565b610c1d919061182b565b600254610c2a919061189e565b905060006008548483610c3d919061185c565b610c47919061182b565b905080600b541015610dfc57600060085483610c63919061182b565b90506000606460055483610c77919061185c565b610c81919061182b565b905080600c6000828254610c95919061189e565b925050819055506001600e600088815260200190815260200160002060006101000a81548160ff021916908315150217905550610cf17fffffffffffffffffffffffffffffffffffffffffffffffffffffffffffffffff6112cf565b600160009054906101000a900473ffffffffffffffffffffffffffffffffffffffff1673ffffffffffffffffffffffffffffffffffffffff167fa7bd5babec89be19bd24d4899772d4a15bca76bf6ef0e38f879570888f2ea580877fffffffffffffffffffffffffffffffffffffffffffffffffffffffffffffffff604051610d7b929190611b0f565b60405180910390a2600160009054906101000a900473ffffffffffffffffffffffffffffffffffffffff1673ffffffffffffffffffffffffffffffffffffffff167f5404a4578129817a8c738f6c714573aa3c1a10e2107e949fcd86a29b7f1b66d68783600c54604051610df193929190611a60565b60405180910390a250505b50505b508080610e0b906118d2565b915050610ba7565b505050565b600160009054906101000a900473ffffffffffffffffffffffffffffffffffffffff1681565b60008054906101000a900473ffffffffffffffffffffffffffffffffffffffff1673ffffffffffffffffffffffffffffffffffffffff163373ffffffffffffffffffffffffffffffffffffffff1614610ecc576040517f08c379a0000000000000000000000000000000000000000000000000000000008152600401610ec390611b84565b60405180910390fd5b60006002811115610ee057610edf611675565b5b610ee8610b1b565b6002811115610efa57610ef9611675565b5b14610f3a576040517f08c379a0000000000000000000000000000000000000000000000000000000008152600401610f3190611c16565b60405180910390fd5b600954600854610f4a919061185c565b600a54610f57919061189e565b4211610f98576040517f08c379a0000000000000000000000000000000000000000000000000000000008152600401610f8f90611c82565b60405180910390fd5b610fa0610b6c565b6001600d60006101000a81548160ff02191690831515021790555060008054906101000a900473ffffffffffffffffffffffffffffffffffffffff1673ffffffffffffffffffffffffffffffffffffffff163073ffffffffffffffffffffffffffffffffffffffff167fa6e9acf469d627e8f02eec880995bb6f37ecadea71c528f0e35081bd77e9189760405160405180910390a361105e7ffffffffffffffffffffffffffffffffffffffffffffffffffffffffffffffffe6112cf565b565b60006064600354600254611074919061185c565b61107e919061182b565b60025461108b919061189e565b9050600c548161109b919061189e565b905090565b600080600954600a54426110b491906117c8565b6110be919061182b565b90506008548111156110d05760085490505b600060646003546002546110e4919061185c565b6110ee919061182b565b6002546110fb919061189e565b90506000600854838361110e919061185c565b611118919061182b565b9050600b54811115611170576000600b548261113491906117c8565b9050600060085484611146919061182b565b90508060018284611157919061189e565b61116191906117c8565b61116b919061182b565b955050505b50505090565b600660009054906101000a900473ffffffffffffffffffffffffffffffffffffffff1681565b6000600454905090565b60025481565b60008054906101000a900473ffffffffffffffffffffffffffffffffffffffff1681565b600760009054906101000a900473ffffffffffffffffffffffffffffffffffffffff1681565b600c5481565b60085481565b600d60009054906101000a900460ff1681565b60035481565b60095481565b600e6020528060005260406000206000915054906101000a900460ff1681565b600a5481565b600b5481565b6112c9848573ffffffffffffffffffffffffffffffffffffffff166323b872dd86868660405160240161128293929190611ca2565b604051602081830303815290604052915060e01b6020820180517bffffffffffffffffffffffffffffffffffffffffffffffffffffffff8381831617835250505050611453565b50505050565b6000600760009054906101000a900473ffffffffffffffffffffffffffffffffffffffff1673ffffffffffffffffffffffffffffffffffffffff16600160009054906101000a900473ffffffffffffffffffffffffffffffffffffffff168360405160240161133f929190611ce8565b6040516020818303038152906040527fe766784d000000000000000000000000000000000000000000000000000000007bffffffffffffffffffffffffffffffffffffffffffffffffffffffff19166020820180517bffffffffffffffffffffffffffffffffffffffffffffffffffffffff83818316178352505050506040516113c99190611d82565b6000604051808303816000865af19150503d8060008114611406576040519150601f19603f3d011682016040523d82523d6000602084013e61140b565b606091505b505090508061144f576040517f08c379a000000000000000000000000000000000000000000000000000000000815260040161144690611de5565b60405180910390fd5b5050565b600080602060008451602086016000885af180611476576040513d6000823e3d81fd5b3d9250600051915050600082146114915760018114156114ad565b60008473ffffffffffffffffffffffffffffffffffffffff163b145b156114ef57836040517f5274afe70000000000000000000000000000000000000000000000000000000081526004016114e69190611748565b60405180910390fd5b50505050565b6000819050919050565b611508816114f5565b82525050565b600060208201905061152360008301846114ff565b92915050565b600081519050919050565b600082825260208201905092915050565b6000819050602082019050919050565b61155e816114f5565b82525050565b60006115708383611555565b60208301905092915050565b6000602082019050919050565b600061159482611529565b61159e8185611534565b93506115a983611545565b8060005b838110156115da5781516115c18882611564565b97506115cc8361157c565b9250506001810190506115ad565b5085935050505092915050565b600060408201905081810360008301526116018185611589565b905061161060208301846114ff565b9392505050565b600080fd5b611625816114f5565b811461163057600080fd5b50565b6000813590506116428161161c565b92915050565b60006020828403121561165e5761165d611617565b5b600061166c84828501611633565b91505092915050565b7f4e487b7100000000000000000000000000000000000000000000000000000000600052602160045260246000fd5b600381106116b5576116b4611675565b5b50565b60008190506116c6826116a4565b919050565b60006116d6826116b8565b9050919050565b6116e6816116cb565b82525050565b600060208201905061170160008301846116dd565b92915050565b600073ffffffffffffffffffffffffffffffffffffffff82169050919050565b600061173282611707565b9050919050565b61174281611727565b82525050565b600060208201905061175d6000830184611739565b92915050565b60008115159050919050565b61177881611763565b82525050565b6000602082019050611793600083018461176f565b92915050565b7f4e487b7100000000000000000000000000000000000000000000000000000000600052601160045260246000fd5b60006117d3826114f5565b91506117de836114f5565b92508282039050818111156117f6576117f5611799565b5b92915050565b7f4e487b7100000000000000000000000000000000000000000000000000000000600052601260045260246000fd5b6000611836826114f5565b9150611841836114f5565b925082611851576118506117fc565b5b828204905092915050565b6000611867826114f5565b9150611872836114f5565b9250828202611880816114f5565b9150828204841483151761189757611896611799565b5b5092915050565b60006118a9826114f5565b91506118b4836114f5565b92508282019050808211156118cc576118cb611799565b5b92915050565b60006118dd826114f5565b91507fffffffffffffffffffffffffffffffffffffffffffffffffffffffffffffffff820361190f5761190e611799565b5b600182019050919050565b7f4e487b7100000000000000000000000000000000000000000000000000000000600052604160045260246000fd5b7f4e487b7100000000000000000000000000000000000000000000000000000000600052603260045260246000fd5b600082825260208201905092915050565b7f4f6e6c7920626f72726f7765722063616e207265706179000000000000000000600082015250565b60006119bf601783611978565b91506119ca82611989565b602082019050919050565b600060208201905081810360008301526119ee816119b2565b9050919050565b6000604082019050611a0a6000830185611739565b611a176020830184611739565b9392505050565b600081519050611a2d8161161c565b92915050565b600060208284031215611a4957611a48611617565b5b6000611a5784828501611a1e565b91505092915050565b6000606082019050611a7560008301866114ff565b611a8260208301856114ff565b611a8f60408301846114ff565b949350505050565b6000604082019050611aac60008301856114ff565b611ab960208301846114ff565b9392505050565b6000819050919050565b6000819050919050565b6000819050919050565b6000611af9611af4611aef84611ac0565b611ad4565b611aca565b9050919050565b611b0981611ade565b82525050565b6000604082019050611b2460008301856114ff565b611b316020830184611b00565b9392505050565b7f4f6e6c79206c656e6465722063616e206d61726b2064656661756c7400000000600082015250565b6000611b6e601c83611978565b9150611b7982611b38565b602082019050919050565b60006020820190508181036000830152611b9d81611b61565b9050919050565b7f4c6f616e206e6f7420616374697665206f7220616c72656164792068616e646c60008201527f6564000000000000000000000000000000000000000000000000000000000000602082015250565b6000611c00602283611978565b9150611c0b82611ba4565b604082019050919050565b60006020820190508181036000830152611c2f81611bf3565b9050919050565b7f4c6f616e206973206e6f74206f76657264756520796574000000000000000000600082015250565b6000611c6c601783611978565b9150611c7782611c36565b602082019050919050565b60006020820190508181036000830152611c9b81611c5f565b9050919050565b6000606082019050611cb76000830186611739565b611cc46020830185611739565b611cd160408301846114ff565b949350505050565b611ce281611aca565b82525050565b6000604082019050611cfd6000830185611739565b611d0a6020830184611cd9565b9392505050565b600081519050919050565b600081905092915050565b60005b83811015611d45578082015181840152602081019050611d2a565b60008484015250505050565b6000611d5c82611d11565b611d668185611d1c565b9350611d76818560208601611d27565b80840191505092915050565b6000611d8e8284611d51565b915081905092915050565b7f54727573742073636f726520757064617465206661696c656400000000000000600082015250565b6000611dcf601983611978565b9150611dda82611d99565b602082019050919050565b60006020820190508181036000830152611dfe81611dc2565b905091905056fea2646970667358221220e5b4b0ba0479cd8d923dbeca2568acc19c52a3a6d026271a505a224cfe540cb064736f6c63430008140033",
  "linkReferences": {},
  "deployedLinkReferences": {}
}